:10000000B0C10000DFC10000DDC10000DBC10000A5
:10001000D9C10000D7C10000D5C10000D3C1000084
:10002000D1C1000044C6000042C6000040C6000026
:10003000C9C10000C7C10000C5C10000C3C10000A4
:10004000C1C10000BFC10000BDC10000BBC10000B4
:10005000B9C10000B4C70000B5C1000058C4000019
:10006000B1C100000C943C08DEC70000ABC1000029
:10007000A9C10000A7C10000A5C10000A3C10000E4
:10008000A1C100009FC100009DC100009BC10000F4
:1000900099C1000097C1000095C1000093C1000004
:1000A00091C100008FC100008DC100008BC1000014
:1000B00089C1000087C1000085C1000083C1000024
:1000C00081C100007FC100007DC100007BC1000034
:1000D00079C1000077C1000075C1000073C1000044
:1000E00071C1000087028A0279027D028102C10289
:1000F0008E02920298029C02A002A602AA02AE02FE
:10010000C102B402B802BC024E414E494E49545994
:10011000494E46CDCCCC3D0AD7233C17B7D13877D2
:10012000CC2B329595E6241FB14F0A0000204100E8
:1001300000C84200401C4620BCBE4CCA1B0E5AAE32
:10014000C59D7400407A10F35A00A0724E18090041
:1001500010A5D4E80000E87648170000E40B54022C
:100160000000CA9A3B000000E1F505000080969867
:1001700000000040420F000000A0860100000010B7
:100180002700000000E803000000006400000000F9
:10019000000A00000000000100000000002C76D8DA
:1001A00088DC674F0823DFC1DFAE59E1B1B796E5C0
:1001B000E3E453C63AE651997696E8E6C28426EB24
:1001C000898C9B62ED407C6FFCEFBC9C9F40F2BA37
:1001D000A56FA5F490055A2AF75C936B6CF9676DCF
:1001E000C11BFCE0E40D47FEF520E6B500D0ED9024
:1001F0002E0300943577050080841E080000204EF1
:100200000A000000C80C333333330F986E12831189
:1002100041EF8D2114893BE65516CFFEE6DB18D160
:10022000844B381BF77C1D901DA4BBE42420328432
:10023000725E228100C9F124ECA1E53D2700002176
:1002400000240027002A002D0030003300010100A7
:1002500000040107010A01000020002300260029F4
:10026000002C002F003200000100000301060109EC
:100270000100002200250028002B002E0031003450
:100280000002010000050108010B01050505050735
:100290000508080808020202020A0A080804040401
:1002A000040101010101010101030303030303032D
:1002B00003040707070C0C0C0C0C0C0C0C020202BC
:1002C0000206060606060606060B0B0B0B0B0B0BAF
:1002D0000B0102102020080810204010204080024E
:1002E000010201080402010102040810204080807C
:1002F0004020100804020180040201804020100800
:1003000004020108040201010204081020408001D7
:100310000204081020408000000A0B02090C0D0E98
:1003200008070304010000000000000000000000B6
:1003300000000000000000000000000000000000BD
:10034000000000121110000000000000000000007A
:100350000000000000000000000000000000FB1092
:10036000200A11241FBECFEFD1E2DEBFCDBF00E0D7
:100370000CBF25E0A2E0B3E001C01D92AB37B2078D
:10038000E1F713E0A0E0B2E0EEEDF6E300E00BBF32
:1003900002C007900D92A230B107D9F711E0C0EB6F
:1003A000D1E000E006C021970109802FFE010E94E4
:1003B000E918CF3AD10780E00807A9F70E94340A6C
:1003C0000C945E1B1DCEFC01538D448D252F30E017
:1003D000842F90E0821B930B541710F0CF96089552
:1003E00001970895FC01918D828D981761F0828D9F
:1003F000DF01A80FB11D5D968C91928D9F5F9F7359
:10040000928F90E008958FEF9FEF0895FC01918DFA
:10041000828D981731F0828DE80FF11D858D90E067
:1004200008958FEF9FEF0895FC01918D228D892F04
:1004300090E0805C9F4F821B91098F7399270895EC
:1004400080E090E0892B19F0E5D5811125C080E08E
:1004500090E0892B41F080E090E0892B21F00E9410
:10046000000081111CC080E090E0892B41F080E009
:1004700090E0892B21F00E940000811113C080E0E0
:1004800090E0892BA1F080E090E0892B81F00E9420
:10049000000081110AC008950E940000D8CF0E9478
:1004A0000000E1CF0E940000EACF0C940000089504
:1004B000362F90E0FC01E95EFC4F4491FC01EF52C5
:1004C000FD4F2491FC01E557FD4F9491992309F4C8
:1004D0006BC0442309F455C050E0FA013197E23172
:1004E000F10508F04EC08827EE58FF4F8F4F0C944F
:1004F000E918809180008F7707C0809180008F7D00
:1005000003C080918000877F809380003AC084B5CB
:100510008F7702C084B58F7D84BD33C08091B000D9
:100520008F7703C08091B0008F7D8093B00029C089
:10053000809190008F7707C0809190008F7D03C0DD
:1005400080919000877F809390001BC08091A000D5
:100550008F7707C08091A0008F7D03C08091A0009D
:10056000877F8093A0000DC0809120018F7707C006
:10057000809120018F7D03C080912001877F80932F
:100580002001E92FF0E0EE0FFF1FEF58FD4FA5917E
:10059000B4918FB7F894EC91311103C020952E23BC
:1005A00001C02E2B2C938FBF08953FB7F8948091F4
:1005B0004C0390914D03A0914E03B0914F0326B58B
:1005C000A89B05C02F3F19F00196A11DB11D3FBF8B
:1005D000BA2FA92F982F8827820F911DA11DB11D19
:1005E000BC01CD0142E0660F771F881F991F4A9515
:1005F000D1F7089520914503309146032817390714
:1006000071F49091440380914303981741F0E09175
:100610004403F0E0ED5FFC4F808190E008958FEFA0
:100620009FEF089508951F93CF93DF93DC015C96AD
:100630002D913C915D972115310539F481E090E0D1
:1006400013969C938E9312973DC05196ED91FC9119
:10065000529750969C915097892F80951FB75E9620
:100660004C915E9741FB772770F941FD6095F894B6
:100670004081772311F0492B01C048234083E901D1
:100680002197F1F748E0508160FF02C0592B01C06B
:1006900058235083E9012197F1F76695415099F766
:1006A000772321F090818923808303C08081982B58
:1006B00090831FBF5C968D919C915D970197F1F798
:1006C00021E030E0C901DF91CF911F910895209181
:1006D0004503309146032817390769F48091430395
:1006E0002091440390E0805C9F4F821B910960E45D
:1006F00070E00C94981880E090E0089520914503F4
:100700003091460328173907B9F49091440380913A
:100710004303981789F0E0914403F0E0ED5FFC4F4C
:1007200080812091440330E02F5F3F4F2F733327A8
:100730002093440390E008958FEF9FEF0895E09198
:100740004503F0914603E817F90769F4A389B489D2
:100750009C918589809589238C93109246031092F1
:10076000450381E0089580E00895089580E090E0D9
:1007700008950E94161BFC01848DDF01A80FB11D96
:10078000A35ABF4F2C91848D90E001968F739927C7
:10079000848FA689B7892C93A089B1898C918064B4
:1007A0008C93938D848D981306C00288F389E02D75
:1007B00080818F7D80830895EF92FF920F931F9326
:1007C000CF93DF93EC0181E0888F9B8D8C8D981304
:1007D00005C0E889F989808185FD23C0F62E0B8D3F
:1007E00010E00F5F1F4F0F731127E02E8C8DE81262
:1007F0000BC00FB607FCFACFE889F989808185FF25
:10080000F5CFCE01B8DFF2CF8B8DFE01E80FF11DE1
:10081000E35AFF4FF0820B8FEA89FB898081806267
:1008200007C0EE89FF896083E889F9898081806447
:10083000808381E090E0DF91CF911F910F91FF9035
:10084000EF900895CF93DF93EC01888D8823C1F05A
:10085000EA89FB89808185FD05C0A889B9898C91C9
:1008600086FD0EC00FB607FCF5CF808185FFF2CF65
:10087000A889B9898C9185FFEDCFCE017CDFE8CFC7
:10088000DF91CF9108958F929F92AF92BF92CF92B6
:10089000DF92EF92FF926B017C0187DE4B015C01DE
:1008A000C114D104E104F104E9F07FDEDC01CB01E5
:1008B00088199909AA09BB09883E9340A105B10589
:1008C00078F321E0C21AD108E108F10888EE880E19
:1008D00083E0981EA11CB11CC114D104E104F104F1
:1008E00021F7DECFFF90EF90DF90CF90BF90AF90D9
:1008F0009F908F9008952FB7F8946091480370915E
:10090000490380914A0390914B032FBF08951F9292
:100910000F920FB60F9211242F933F938F939F93B3
:10092000AF93BF938091480390914903A0914A03EC
:10093000B0914B033091470323E0230F2D3720F470
:100940000196A11DB11D05C026E8230F0296A11D29
:10095000B11D209347038093480390934903A093CC
:100960004A03B0934B0380914C0390914D03A091A7
:100970004E03B0914F030196A11DB11D80934C030E
:1009800090934D03A0934E03B0934F03BF91AF914B
:100990009F918F913F912F910F900FBE0F901F90BD
:1009A00018951F93CF93DF93EC019A01AB011B8E37
:1009B0001A8E198E188E1F8A1E8A60E079E08DE3E8
:1009C00090E00E94CD18F9012430310518F0C901DA
:1009D000039702C081E090E09D8F8C8F8C8516EF8D
:1009E000180F143048F09EEC980F943028F092ECD9
:1009F000980F983008F080C0B901769567956431FA
:100A0000710518F06351710902C061E070E07F8BDD
:100A10006E8B369720F0B9016550710902C061E014
:100A200070E0798F688FB901660F771F260F371F27
:100A300036952795369527952D30310518F02C5091
:100A4000310902C021E030E03B8F2A8F143060F082
:100A50009EEC980F943040F092EC980F983008F488
:100A60006BC0A0E0B0E06AC0A8E6B0E0E8E6F0E065
:100A70009081143018F08E53883010F081E001C05E
:100A800084E0892B8C938C8596EF980F943058F0E6
:100A90002EEC280F243038F022EC280F283030F0CC
:100AA00020E030E005C02BE630E002C02DE630E06B
:100AB0003C8B2B8B943010F49AEF0BC0823381F077
:100AC000833381F0843381F092EC980F983070F486
:100AD00092EC980F81E001C0880F9A95EAF707C061
:100AE00088E005C084E003C082E001C081E08D8B16
:100AF0008C8D9D8D0197F1F78A8D9B8D892B21F12E
:100B000080914503909146038C179D07E9F000976B
:100B100009F015DE8E8D8E7F8E8F1092430310921A
:100B20004403D0934603C0934503EB89FC8990812D
:100B30008D89892B808308C0A8E6B0E0983008F43E
:100B400095CFE0E0F0E094CFDF91CF911F91089531
:100B5000AF92BF92CF92DF92FF920F931F93CF93EA
:100B6000DF931F92CDB7DEB75C01F62EFC01138236
:100B7000128288EE93E0A0E0B0E084839583A683A0
:100B8000B7838AE092E091838083178A168A118E58
:100B9000108E138E128E158E148E668D6E7F20FB36
:100BA00061F9668F6695617081E06827842F4983BB
:100BB0007FDC498150E0BA016F527D4FFB01A49167
:100BC00045575D4FFA0184918823A9F090E0880F82
:100BD000991F9C01235C3D4FF901059114918F5899
:100BE0009D4FFC01259134918FB7F894F8019081C5
:100BF000A92BA0838FBFFB016491F501608BFA01E3
:100C00004491E42FF0E0EE0FFF1FEF58FD4F859168
:100C10009491F501928B818B0F2D10E0C8018F52BA
:100C20009D4F6C01FC01849105571D4FF8012491E3
:100C30002223C1F030E0220F331FF901E35CFD4FA6
:100C4000A591B4912F583D4FF901459154912FB77B
:100C5000F8949C91809598239C93FA019081892324
:100C600080832FBFF501868D81FD03C061E08F2D4C
:100C70001FDCF501F486F601C490F501C586F80184
:100C80000491E02FF0E0EE0FFF1FE95AFD4F859130
:100C90009491F501978786870F90DF91CF911F91EF
:100CA0000F91FF90DF90CF90BF90AF9008951F926B
:100CB0000F920FB60F9211240BB60F922F933F9302
:100CC0004F935F936F937F938F939F93AF93BF9354
:100CD000EF93FF93E0914503F0914603309709F4B9
:100CE00051C0968DA685B785858591FF04C09C91DE
:100CF000892329F447C09C91892309F043C0A38923
:100D0000B4899C918589809589238C93868997895C
:100D10000197F1F7608D718DA685B785558538E00F
:100D200020E0CB010197F1F7822F90E09595879510
:100D3000282F4C91452309F02068315091F7868D7A
:100D400081FD20958091430390E001968F73992750
:100D500030914403381749F0A0914303B0E0AD5FF0
:100D6000BC4F2C938093430303C0868D8160868F94
:100D7000828D938D0197F1F7A389B4899C91858920
:100D8000892B8C93FF91EF91BF91AF919F918F91A0
:100D90007F916F915F914F913F912F910F900BBE7B
:100DA0000F900FBE0F901F901895EF92FF920F9328
:100DB0001F93CF93DF93CDB7DEB768970FB6F89444
:100DC000DEBF0FBECDBF1A8219821C821B821E821B
:100DD0001D8240E050E062E872E0CE01019651D2FF
:100DE00080913004882309F46EC040911104509121
:100DF0001204609113047091140424E0CE01439610
:100E000074D240910D0450910E0460910F047091C2
:100E1000100424E0CE01079668D21E861D86188A2B
:100E20001F861A8A198ABE01695F7F4FCE010D960F
:100E300047D209891A890E5F1F4FB801CE010D965E
:100E4000E7D1882309F4B7C02D853E8589899A8921
:100E500068E472E0820F931F0E942E1B1A8B098B8D
:100E60008F89988DEB88FC8809891A89E114F1042F
:100E700009F49DC00097A1F0080F191FB801CE0119
:100E80000D96C6D1882309F492C02D853E858989A7
:100E90009A89B701820F931F0E942E1B1A8B098B10
:100EA000BE01635F7F4FCE0101960AD28D859E857C
:100EB0000E949A198F8198850E949A198B899C8922
:100EC0000E949A1907C04EE050E06BE472E0CE0138
:100ED0000196D7D118861F821A8619861C861B8612
:100EE000BE016F5F7F4FCE010796EAD16AE572E0DF
:100EF00083E694E03CD264E670E080E090E0C3DCFE
:100F000065E672E083E694E032D264E670E080E069
:100F100090E0B9DC63E772E083E694E028D264E60F
:100F200070E080E090E0AFDC61E772E083E694E09F
:100F300075D264E670E080E090E0A5DC4B855C85CE
:100F40006F81788583E694E0CDD060E872E083E637
:100F500094E00DD264E670E080E090E094DC6AE119
:100F600083E694E0FDD160E872E083E694E0FFD18F
:100F700064E670E080E090E086DC60E872E083E6A2
:100F800094E0F5D18F8198850E949A1989819A8180
:100F90000E949A1968960FB6F894DEBF0FBECDBFB7
:100FA000DF91CF911F910F91FF90EF900895CE01A7
:100FB0000D9655D175CFCE010D9651D151CF1F92BF
:100FC0000F920FB60F9211240BB60F922F933F93EF
:100FD0004F935F936F937F938F939F93AF93BF9341
:100FE000EF93FF9380913F04811101C0A6D0FF9140
:100FF000EF91BF91AF919F918F917F916F915F9191
:101000004F913F912F910F900BBE0F900FBE0F90FD
:101010001F90189581E593E007DA21E0892B09F408
:1010200020E0822F08951F920F920FB60F92112485
:101030000BB60F922F933F934F935F936F937F93D2
:101040008F939F93AF93BF93EF93FF9381E593E0CB
:1010500092DBFF91EF91BF91AF919F918F917F9123
:101060006F915F914F913F912F910F900BBE0F9019
:101070000FBE0F901F9018951F920F920FB60F92F0
:1010800011240BB60F922F938F939F93EF93FF939F
:10109000E0916103F09162038081E0916703F09138
:1010A000680382FD12C0908180916A038F5F8F7305
:1010B00020916B03821751F0E0916A03F0E0EF5A40
:1010C000FC4F958F80936A0301C08081FF91EF915F
:1010D0009F918F912F910F900BBE0F900FBE0F908D
:1010E0001F901895CF92DF92EF92FF920F931F936C
:1010F000CF93DF936C017A018B01C0E0D0E0CE1575
:10110000DF0589F0D8016D918D01D601ED91FC913B
:101110000190F081E02DC6011995892B11F47E0113
:1011200002C02196ECCFC701DF91CF911F910F91A3
:10113000FF90EF90DF90CF900895809140049091C0
:101140004104009781F0DC01ED91FC910084F18570
:10115000E02D1995892B11F480E0089580914004C9
:101160009091410411C08091420490914304DC01AC
:10117000ED91FC910084F185E02D1995892B61F3A7
:101180008091420490914304DC01ED91FC91028432
:10119000F385E02D19958A3031F520917205309153
:1011A000730590917405F901E90FF11D1082B4E007
:1011B0002A3F3B0739F442E854E0509373054093CB
:1011C000720508C02AEF34E030937305209372054E
:1011D00022E834E03093EF032093EE03109274057D
:1011E00091E09093F003E0917205F0917305909176
:1011F000740521E0290F20937405E90FF11D808308
:1012000090917405983718F097E7909374050895B6
:101210000F931F93CF93DF93EC01888199810097FF
:1012200029F02A813B812617370788F48B016F5FED
:101230007F4F0E94321A009761F0998388831B8345
:101240000A832C813D81232B11F4FC01108281E063
:1012500001C080E0DF91CF911F910F910895CF934E
:10126000DF93EC0188819981009711F00E949A190F
:10127000198218821D821C821B821A82DF91CF91F3
:101280000895EF92FF920F931F93CF93DF93EC019A
:101290007B018A01BA01BCDF811103C0CE01DFDF0F
:1012A00007C01D830C83B701888199810E942E1B82
:1012B000CE01DF91CF911F910F91FF90EF90089594
:1012C000CF93DF93EC01FB018617970751F0608104
:1012D00071816115710521F044815581D2DF01C012
:1012E000BEDFCE01DF91CF910895EF92FF920F9371
:1012F0001F93CF93DF93CDB7DEB7A1970FB6F894C6
:10130000DEBF0FBECDBF7C01CB01BA01F701118258
:101310001082138212821582148242E0420F8E01E3
:101320000F5F1F4FFAD7009761F0FC01019000207A
:10133000E9F73197AF01481B590BBC01C701A1DF89
:1013400002C0C7018CDFA1960FB6F894DEBF0FBEB6
:10135000CDBFDF91CF911F910F91FF90EF90089536
:10136000DC01ED91FC910190F081E02D1994611563
:10137000710579F0FB0101900020E9F73197AF0189
:10138000461B570BDC01ED91FC910280F381E02DAF
:10139000199480E090E008958F929F92AF92BF924F
:1013A0000F931F93CF93DF93CDB7DEB7A1970FB6FF
:1013B000F894DEBF0FBECDBF19A2423008F44AE058
:1013C0008E010F5D1F4F842E912CA12CB12CA501F5
:1013D00094010E94AB18E62FB901CA01015011090E
:1013E000EA3014F4E05D01C0E95CD801EC93232BF2
:1013F000242B252B61F7B80181E593E0B8DFA19696
:101400000FB6F894DEBF0FBECDBFDF91CF911F9115
:101410000F91BF90AF909F908F9008950F931F935F
:10142000CF93DF93EC01A3DF8C0160E872E0CE0183
:101430009EDF800F911FDF91CF911F910F91089533
:10144000CF93DF93CAE0D2E0D0934504C093440425
:1014500084E494E074D9D0936404C093630483E675
:1014600094E0DF91CF916BC9CF93DF93CDB7DEB717
:101470002A970FB6F894DEBF0FBECDBF789484B51F
:10148000826084BD84B5816084BD85B5826085BD80
:1014900085B5816085BD80916E00816080936E000E
:1014A0001092810080918100826080938100809100
:1014B00081008160809381008091800081608093B1
:1014C00080008091B10084608093B1008091B00071
:1014D00081608093B0008091910082608093910040
:1014E0008091910081608093910080919000816053
:1014F000809390008091A10082608093A1008091F0
:10150000A10081608093A1008091A0008160809300
:10151000A0008091210182608093210180912101AE
:10152000816080932101809120018160809320015E
:1015300080917A00846080937A0080917A00826042
:1015400080937A0080917A00816080937A00809104
:101550007A00806880937A001092C10040E05BE4DA
:1015600060E070E083E694E01CDAE0916103F091C2
:10157000620302E00083E0915D03F0915E0310825C
:10158000E0915F03F091600387E680831092690326
:10159000E0916503F091660316E01083E091630328
:1015A000F0916403808180618083E0916303F09116
:1015B0006403808188608083E0916303F091640319
:1015C000808180688083E0916303F091640380816F
:1015D0008F7D808364EF71E080E090E054D963E810
:1015E00072E081E593E01ADF80914004909141041C
:1015F000009731F040E855E260E070E0D2D927C0B2
:10160000E0914204F0914304A089B1890C93A48530
:10161000B5851C92A685B7858FEC8C93108EA48916
:10162000B5891C93A289B3898C9180618C93A2891E
:10163000B3898C9188608C93A289B3898C918068DE
:101640008C930288F389E02D80818F7D80836AE00E
:1016500070E080E090E017D98091400490914104BF
:1016600064E972E0009721F4809142049091430470
:10167000D5DE809140049091410466EC72E00097C1
:1016800021F48091420490914304C8DE8FEA87BD23
:1016900080916E00826080936E0081E080935003A1
:1016A00068EE73E080E090E0EED867ED72E084E4ED
:1016B00094E0B4DE63EE72E081E593E0AFDE75DBCB
:1016C00084E6C82ED12CE12CF12C94E6392E8091A1
:1016D0005003811105C080913F04811101C02DDDAF
:1016E0002090F003211019C08090F1039090F20334
:1016F000A090F303B090F403FED8681579058A052D
:101700009B0508F01AC5F7D86093F1037093F203B4
:101710008093F3039093F40310C51092F0030091AB
:10172000EE031091EF03F80101900020E9F73197E3
:101730009F01201B310BA90144505109F801E40F0E
:10174000F51F80818A32E1F5200F311FF9013397AF
:101750008081803354F08A3314F4805307C09FEBA8
:10176000980F963010F4875301C080E060E1869FA7
:10177000C0011124F90132972081203354F02A331B
:1017800014F4205307C03FEB320F363010F42753C8
:1017900001C020E0820F911D62E0262F30E0241767
:1017A000350758F4F801E20FF31F2081022E000CD8
:1017B000330B822793276F5FF0CF892B09F018C571
:1017C00063EF72E0C8010E94441B892B09F460C2D8
:1017D0006CE270E0C8010E94231B8C010F5F1F4F59
:1017E000C801BAD54B015C010E9401182B013C01D4
:1017F00020E137E240E050E00E94AB182093F5036F
:10180000A70196010E94AB182093F603C301B20111
:10181000A70196010E94AB186093F70320E030E027
:1018200040E85FE3C501B4010E94341820E030E0D5
:101830004AE754E40E945F160E9401187093FC036B
:101840006093FB036CE270E0C8010E94231B5C0103
:101850008C010F5F1F4FFC0181818C3209F4A6C0FF
:1018600042E050E0B801CE0101960E94351B1B8278
:10187000CE01019691D59B01AC0160E876E988E93B
:1018800090E00E9489182B013C01B5016D5F7F4FEC
:1018900042E050E0CE0101960E94351B0B5F1F4FC6
:1018A00044E050E0B801CE0103960E94351B1F8230
:1018B000CE01019671D59B01AC01A2E3B0E00E947C
:1018C000161723E030E040E050E00E94CD184901B7
:1018D0005A01D301C201820F931FA41FB51F809329
:1018E000050490930604A0930704B0930804C30171
:1018F000B20120EA36E841E050E00E94CD18CA016A
:10190000B9010E9400162B013C01C501B4010E94DF
:1019100000162CE933E549EC56E30E945F169B0163
:10192000AC01C301B2010E9430172B013C0160934E
:10193000FD037093FE038093FF039093000420E067
:1019400030E048EC52E40E9494170E94FC174B01CF
:101950005C01389CB001399C700D1124072E000CDD
:10196000880B990B0E9400169B01AC01C301B201C8
:101970000E942F1720E030E040E752E40E949417C5
:101980002B013C01B401990C880B990B0E940016A5
:101990009B01AC01C301B2010E94301760930D049A
:1019A00070930E0480930F04909310046CE270E027
:1019B000C8010E94231BFC019C012F5F3F4F8181C6
:1019C0008C3201F1833589F480910D0490910E04DD
:1019D000A0910F04B0911004B05880930D0490931F
:1019E0000E04A0930F04B093100491819E3411F063
:1019F000933519F490932D0405C09C3209F0F8C377
:101A000010922D046CE270E0C9010E94231B5C015E
:101A10008C010F5F1F4FFC0181818C3209F4A6C03D
:101A200043E050E0B801CE0101960E94351B1C82B4
:101A3000CE010196B1D49B01AC0160E876E988E95A
:101A400090E00E9489182B013C01B5016C5F7F4F2B
:101A500042E050E0CE0101960E94351B0A5F1F4F05
:101A600044E050E0B801CE0103960E94351B1F826E
:101A7000CE01019691D49B01AC01A2E3B0E00E949B
:101A8000161723E030E040E050E00E94CD184901F5
:101A90005A01D301C201820F931FA41FB51F809367
:101AA000090490930A04A0930B04B0930C04C3019F
:101AB000B20120EA36E841E050E00E94CD18CA01A8
:101AC000B9010E9400162B013C01C501B4010E941E
:101AD00000162CE933E549EC56E30E945F169B01A2
:101AE000AC01C301B2010E9430172B013C0160938D
:101AF000010470930204809303049093040420E093
:101B000030E048EC52E40E9494170E94FC174B010D
:101B10005C01389CB001399C700D1124072E000C1B
:101B2000880B990B0E9400169B01AC01C301B20106
:101B30000E942F1720E030E040E752E40E94941703
:101B40002B013C01B401990C880B990B0E940016E3
:101B50009B01AC01C301B2010E94301760931104D4
:101B60007093120480931304909314046CE270E059
:101B7000C8010E94231BFC019C012F5F3F4F818104
:101B80008C3201F1873589F480911104909112040F
:101B9000A0911304B0911404B05880931104909351
:101BA0001204A0931304B09314049181973511F09B
:101BB000953419F490932E0405C09C3209F018C393
:101BC00010922E046CE270E0C9010E94231B8C016C
:101BD0000F5F1F4FFC0181818C3221F0C801BFD300
:101BE000809331046CE270E0C8010E94231B8C01D9
:101BF0000F5F1F4FFC0181818C3221F0C801AFD3F0
:101C0000809332046CE270E0C8010E94231B8C01B7
:101C10000F5F1F4FFC0181818C3251F0C8019CD3B2
:101C20006093290470932A0480932B0490932C04CE
:101C30006CE270E0C8010E94231B8C010F5F1F4FF4
:101C4000FC0181818C3251F0C80186D36093190464
:101C500070931A0480931B0490931C046CE270E050
:101C6000C8010E94231B6CE270E001960E94231BB6
:101C7000FC0121812C3209F45DC201966DD3609381
:101C8000150470931604809317049093180452C29D
:101C90006AEF72E0C8010E94441B892B09F4A8C2B4
:101CA0006CE270E0C8010E94231B8C010F5F1F4F84
:101CB000C80152D34B015C010E9401182B013C0169
:101CC00020E137E240E050E00E94AB182093F5039A
:101CD000A70196010E94AB182093F603C301B2013D
:101CE000A70196010E94AB186093F70320E030E053
:101CF00040E85FE3C501B4010E94341820E030E001
:101D00004AE754E4DCD70E9401187093FC03609307
:101D1000FB036CE270E0C8010E94231BFC012181DF
:101D2000213421F4F1E0F093300405C0263509F0A8
:101D30005FC2109230046CE270E001960E94231B97
:101D40005C018C010F5F1F4FFC0181818C3209F413
:101D5000A0C042E050E0B801CE0101960E94351BC0
:101D60001B82CE01019618D39B01AC0160E876E995
:101D700088E990E00E9489182B013C01B5016D5F54
:101D80007F4F42E050E0CE0101960E94351B0B5F71
:101D90001F4F44E050E0B801CE0103960E94351B6E
:101DA0001F82CE010196F8D29B01AC01A2E3B0E004
:101DB0000E94161723E030E040E050E00E94CD186A
:101DC00049015A01D301C201820F931FA41FB51FFD
:101DD0008093050490930604A0930704B09308042D
:101DE000C301B20120EA36E841E050E00E94CD187C
:101DF000CA01B90105D72B013C01C501B40100D7C7
:101E00002CE933E549EC56E35AD79B01AC01C301F9
:101E1000B2010E9430172B013C016093FD037093C7
:101E2000FE038093FF039093000420E030E048EC31
:101E300052E40E9494170E94FC174B015C01389CED
:101E4000B001399C700D1124072E000C880B990BE2
:101E5000D7D69B01AC01C301B2010E942F1720E02D
:101E600030E040E752E40E9494172B013C01B4019A
:101E7000990C880B990BC4D69B01AC01C301B2012C
:101E8000EFD760930D0470930E0480930F0490932A
:101E900010046CE270E0C8010E94231BFC019C014D
:101EA0002F5F3F4F81818C3201F1833589F480911E
:101EB0000D0490910E04A0910F04B0911004B0583D
:101EC00080930D0490930E04A0930F04B09310041C
:101ED00091819E3411F0933519F490932D0405C02F
:101EE0009C3209F085C110922D046CE270E0C901AA
:101EF0000E94231B5C018C010F5F1F4FFC0181813D
:101F00008C3209F49BC043E050E0B801CE01019649
:101F10000E94351B1C82CE0101963ED29B01AC0172
:101F200060E876E988E990E00E9489182B013C017D
:101F3000B5016C5F7F4F42E050E0CE0101960E94F8
:101F4000351B0A5F1F4F44E050E0B801CE010396F5
:101F50000E94351B1F82CE0101961ED29B01AC014F
:101F6000A2E3B0E063D723E030E040E050E00E941D
:101F7000CD1849015A01D301C201820F931FA41F3A
:101F8000B51F8093090490930A04A0930B04B093A7
:101F90000C04C301B20120EA36E841E050E00E949F
:101FA000CD18CA01B9012CD62B013C01C501B401E1
:101FB00027D62CE933E549EC56E381D69B01AC01E9
:101FC000C301B2014DD72B013C0160930104709312
:101FD0000204809303049093040420E030E048EC72
:101FE00052E4A2D70E94FC174B015C01389CB0015F
:101FF000399C700D1124072E000C880B990B00D60C
:102000009B01AC01C301B2012AD720E030E040E7D8
:1020100052E48AD72B013C01B401990C880B990B2F
:10202000EFD59B01AC01C301B2011AD76093110433
:102030007093120480931304909314046CE270E084
:10204000C8010E94231BFC019C012F5F3F4F81812F
:102050008C3201F1873589F480911104909112043A
:10206000A0911304B0911404B0588093110490937C
:102070001204A0931304B09314049181973511F0C6
:10208000953419F490932E0405C09C3209F0B0C029
:1020900010922E046CE270E0C9010E94231B8C0197
:1020A0000F5F1F4FFC0181818C3251F0C80154D168
:1020B00060931D0470931E0480931F04909320046A
:1020C0006CE270E0C8010E94231B8C010F5F1F4F60
:1020D000FC0181818C3251F0C8013ED16093210412
:1020E0007093220480932304909324046CE270E0A4
:1020F000C8010E94231BFC0121812C32D9F00196DA
:102100002BD17FD74B015C0120E137E240E050E06A
:102110000E94AB182093FA03A70196010E94AB1806
:102120002093F903C501B401A70196010E94AB18E1
:102130006093F8032110D8CA5BC00E947B044AE078
:102140002BD969E081E593E00BD96091F10370919F
:10215000F2038091F3039091F4034AE01DD969E002
:1021600081E593E0FDD80E947B040091F10310917A
:10217000F2032091F3033091F403601B710B820B87
:10218000930B4AE009D960E872E081E593E0EFD86B
:102190000E947B040091F1031091F2032091F3035C
:1021A0003091F403DC01CB01801B910BA20BB30B2C
:1021B000813E9349A440B10560F00E947B04609386
:1021C000F1037093F2038093F3039093F4030E945E
:1021D000D50683E694E00E946703892B49F083E6E5
:1021E00094E00E947E03682F81E593E00E94DC0367
:1021F0000E9420026CCAE1E5F3E01382128288EEAD
:1022000093E0A0E0B0E084839583A683B7838CE15C
:1022100092E09183808385EC90E09587848784ECBD
:1022200090E09787868780EC90E0918B808B81ECA3
:1022300090E0938B828B82EC90E0958B848B86EC84
:1022400090E0978B868B118E128E138E148E20E069
:1022500048E067E083E694E00E94A80520E042E0C1
:1022600063E084E494E00E94A805E5EFF3E01092B7
:102270004304109242041092F00310923F04109213
:1022800074058AEF94E0909373058093720582E859
:1022900094E09093EF038093EE031092320414AE17
:1022A00015821482138212821182108212AE11AE34
:1022B00010AE13AE1782168214AA15AA16AA17AA70
:1022C00010AA11AA12AA13AA14A615A616A617A632
:1022D00010A611A612A613A614A215A216A217A242
:1022E00010A211A212A213A21486158616861786B2
:1022F000108611861286138684E494E0909341043C
:10230000809340040E947B046093F1037093F20376
:102310008093F3039093F4030895EF920F931F9328
:10232000CF93DF93E80147FD02C034E001C034E100
:10233000E42F440FFF0BF7FF03C0F195E195F1097E
:10234000E32E022F2E2FAE016AD0CE01DF91CF9166
:102350001F910F91EF90089566277727EDC1FC013B
:1023600088279927E89421912032E9F3293010F049
:102370002E30C8F32B3239F02D3231F4689403C07B
:1023800046D0820F911D219120532A30C8F31EF4AC
:10239000909581959F4F08951F93FC019927882759
:1023A000BC01E89411911032E9F3193010F01E309D
:1023B000C8F31B3249F01D3241F4689405C012D0B5
:1023C000610F711D811D911D119110531A30B8F3C9
:1023D0003EF490958095709561957F4F8F4F9F4FFC
:1023E0001F910895592F482F372F262F660F771FDB
:1023F000881F991F660F771F881F991F620F731F11
:10240000841F951F660F771F881F991F08957AE014
:10241000979F902D879F802D910D112408954F92A5
:102420005F926F927F929F92AF92BF92CF92DF9214
:10243000EF92FF920F931F93CF93DF93CDB7DEB749
:1024400029970FB6F894DEBF0FBECDBF6A01122FD9
:10245000B02E2BE3201720F0FF24F394F00E02C0DF
:10246000BCE3FB2E0F2D27E0AE014F5F5F4FCAD2BA
:10247000AC018981982F9970913031F0E1FC06C050
:10248000E0FE06C090E205C09DE203C09BE201C0F1
:1024900090E0EE2DE07183FF3CC0911102C083E01B
:1024A00001C084E0811718F4212F281B01C020E00F
:1024B000E1110BC0F601822F30E2882319F031932D
:1024C0008150FBCFC20ED11C20E0992329F0D60108
:1024D0009C93F60131966F01C6010396E2FE0AC095
:1024E0003EE4D6013C9341E411964C931197129629
:1024F0003C9306C03EE6F601308341E641833283D9
:10250000FC01322F40E2332309F442C041933150A1
:10251000FACF82FF44C0911102C083E001C084E081
:10252000811718F4212F281B01C020E0E1110BC0F6
:10253000F601822F30E2882319F031938150FBCFCE
:10254000C20ED11C20E0992329F0D6019C93F601FC
:1025500031966F01C6010396E2FE0BC039E4D60145
:102560003C933EE411963C93119736E412963C93CB
:1025700007C039E6F60130833EE6318336E6328322
:10258000FC01322F40E2332319F041933150FBCF4D
:10259000FC01E20FF11D10828EEF9FEFB7C0F1E05A
:1025A000911101C0F0E06F2F70E01416150624F4AD
:1025B0009A012F5F3F4F02C021E030E0260F371F06
:1025C000BB2029F06B2D70E06F5F7F4F02C060E091
:1025D00070E0260F371F612F70E0261737071CF4B5
:1025E000121B212F01C020E03E2D387159F4D60175
:1025F000322F60E2332319F06D933150FBCFC20EBE
:10260000D11C20E0FF2331F0D6019C93B6016F5F0F
:102610007F4F6B01E1110BC0F601922F30E399233C
:1026200019F031939150FBCFC20ED11C20E09F2DA9
:10263000940F3A81782F7071A72E84FF03C0313335
:1026400009F49150191624F4993018F098E001C05B
:1026500091E0E42F852F57FF02C0E0E080E06E2F6D
:10266000782FE0E0F0E0AEE29A2E3A01691A7108A4
:102670002A01461A570A0B2D10E0119501951109F0
:102680006F3F8FEF780729F4D6019C92C60101961F
:102690006C014617570784F0661677066CF47F01C5
:1026A000E40CF51CA1E0B0E0AC0FBD1FEA0EFB1E70
:1026B000D7011196BC9002C090E3B92E6150710908
:1026C0003196C60101967C016017710724F0D6018E
:1026D000BC926C01D5CF6417750741F4363320F4F2
:1026E000353321F4A11002C081E3B82EF601B08287
:1026F000F701822F90E2882319F091938150FBCF4C
:10270000F701E20FF11D108280E090E029960FB6EC
:10271000F894DEBF0FBECDBFDF91CF911F910F9117
:10272000FF90EF90DF90CF90BF90AF909F907F9001
:102730006F905F904F9008956F927F928F929F92CB
:10274000AF92BF92CF92DF92EF92FF920F931F93BF
:10275000CF93DF93EC017B016115710519F0DB016B
:102760008D939C938E010F5F1F4F7880872D90E093
:1027700021D2892B11F0E801F5CFBDE27B1205C013
:102780000F5F1F4F7980C1E008C0EBE27E1204C0EA
:102790008E010E5F1F4F7980C0E06801F1E0CF1A13
:1027A000D10843E050E060E171E0C6010BD2892B13
:1027B000E9F4680122E0C20ED11C45E050E06BE074
:1027C00071E0C601FFD1892B21F4680187E0C80EB2
:1027D000D11CE114F10419F0D701CD92DC92C111A2
:1027E000F9C060E070E080E89FE7FDC043E050E0A2
:1027F00068E071E0C601E6D1892B51F4E114F104DF
:1028000009F4EDC00E5F1F4FF70111830083E7C08D
:10281000680160E070E0CB0100E010E0F601D0ED6F
:10282000D70DDA3050F52C2F2260622E2C2F287015
:10283000C2FF05C0211127C00F5F1F4F24C02223F4
:1028400011F001501109A5E0B0E09B01AC01EED2FE
:102850004B015C01880C991CAA1CBB1CC501B4016E
:102860006D0F711D811D911D6839A9E97A078A07CD
:10287000A9E19A0740F0C66005C0DE3F51F4C3FDF0
:1028800044C0C8606C2EBFEFCB1ADB0A7080C62D27
:10289000C5CF2D2F2F7D2531C1F540814D3211F44B
:1028A000C06106C04B3221F0319621E030E006C015
:1028B0003296D60111964C9122E030E0A0EDA40FA3
:1028C000AA3018F0E21BF30B20C040E050E0403883
:1028D000BCE05B075CF49A01220F331F220F331F09
:1028E000420F531F440F551F4A0F511D3196DF01F0
:1028F00011972C91A0EDA20FAA3048F3C4FF03C09A
:10290000519541955109040F151FC1FF07C0E114EE
:10291000F10421F03197D701ED93FC936FD1C3708F
:10292000C33019F06B017C0106C06B017C01F7FA22
:10293000F094F7F8F09420E030E0A901C701B60167
:1029400059D1882309F443C017FF06C0119501959A
:102950001109C7E2D1E002C0CFE3D1E05E01B8E1E6
:10296000AB1AB1084601BE2DAF2D90E2E92EF12C35
:102970000E151F057CF0FE0125913591459154916E
:10298000B4018B2F9A2F9BD14B01B82FA92F0E1971
:102990001F09EECF2497F594E794CA15DB0541F79C
:1029A0006401EB2EFA2E8E2D880F8F2D881F8F3FFE
:1029B00041F020E030E0A901C701B6011BD181112F
:1029C00006C082E290E09093760580937505C7017A
:1029D000B60109C060E070E080E89FEF04C060E0ED
:1029E00070E080EC9FE7DF91CF911F910F91FF90F6
:1029F000EF90DF90CF90BF90AF909F908F907F909F
:102A00006F900895283008F027E03327DA01990FF6
:102A1000311D87FD916000966105710539F43260C2
:102A20002E5F3D9330E32A95E1F708959F3F30F004
:102A300080387105610509F03C5F3C5F3D93913042
:102A400008F08068911DDF93CF931F930F93FF923F
:102A5000EF92192F987F9695E92F96959695E90F05
:102A6000FF27E356FE4F99273327EE24FF24A701C3
:102A7000E70105900894079428F4360FE71EF81E26
:102A8000491F511D660F771F881F991F0694A1F7D4
:102A90000590079428F4E70EF81E491F561FC11D24
:102AA000770F881F991F661F0694A1F7059007945A
:102AB00028F4F80E491F561FC71FD11D880F991FF4
:102AC000661F771F0694A1F70590079420F4490F1D
:102AD000561FC71FD81F990F661F771F881F0694A0
:102AE000A9F784911095177041F0D695C795579521
:102AF0004795F794E7941A95C1F7E3E4F1E06894F9
:102B00001590159135916591959105907FE273959A
:102B1000E118F10A430B560BC90BD009C0F7E10CC1
:102B2000F11E431F561FC91FD01D7EF4703311F4D0
:102B30008A95E6CFE894015030F0080F0AF4002798
:102B4000021708F4202F2395022F7A3328F079E317
:102B50007D932A95E9F710C07D932A9589F606940E
:102B600097956795379517951794E118F10A430BD8
:102B7000560BC90BD00998F023957E9173957A3343
:102B800008F070E37C932013B8F77E9170617D9319
:102B900030F0839571E37D9370E32A95E1F711247A
:102BA000EF90FF900F911F91CF91DF91992787FDB3
:102BB000909508959111E6C0803219F089508550A2
:102BC000D0F70895FB01DC014150504088F08D9111
:102BD00081341CF08B350CF4805E659161341CF0FF
:102BE0006B350CF4605E861B611171F3990B0895CF
:102BF000881BFCCF40D008F481E00895E89409C018
:102C000097FB3EF490958095709561957F4F8F4F1F
:102C10009F4F9923A9F0F92F96E9BB279395F69535
:102C2000879577956795B795F111F8CFFAF4BB0FB3
:102C300011F460FF1BC06F5F7F4F8F4F9F4F16C017
:102C4000882311F096E911C0772321F09EE8872FA1
:102C5000762F05C0662371F096E8862F70E060E05D
:102C60002AF09A95660F771F881FDAF7880F9695D6
:102C7000879597F90895990F0008550FAA0BE0E87A
:102C8000FEEF16161706E807F907C0F0121613062E
:102C9000E407F50798F0621B730B840B950B39F46E
:102CA0000A2661F0232B242B252B21F408950A26D4
:102CB00009F4A140A6958FEF811D811D08950BD0C9
:102CC0007BC06CD028F071D018F0952309F05DC05E
:102CD00062C01124A5C081D0A0F3959FD1F3950FB8
:102CE00050E0551F629FF001729FBB27F00DB11D90
:102CF000639FAA27F00DB11DAA1F649F6627B00D20
:102D0000A11D661F829F2227B00DA11D621F739F08
:102D1000B00DA11D621F839FA00D611D221F749F16
:102D20003327A00D611D231F849F600D211D822F5D
:102D3000762F6A2F11249F5750408AF0E1F08823A4
:102D40004AF0EE0FFF1FBB1F661F771F881F9150B1
:102D50005040A9F79E3F510570F017C061C05F3F1A
:102D6000ECF3983EDCF3869577956795B795F795E4
:102D7000E7959F5FC1F7FE2B880F911D969587956C
:102D800097F9089599278827089597F99F6780E80C
:102D900070E060E008959FEF80EC089500240A94AD
:102DA0001616170618060906089500240A94121626
:102DB0001306140605060895092E0394000C11F459
:102DC000882352F0BB0F40F4BF2B11F460FF04C006
:102DD0006F5F7F4F8F4F9F4F089557FD9058440F5F
:102DE000551F59F05F3F71F04795880F97FB991F6A
:102DF00061F09F3F79F08795089512161306140627
:102E0000551FF2CF4695F1DF08C0161617061806B3
:102E1000991FF1CF86957105610508940895E8948E
:102E2000BB2766277727CB0197F9089509D0A59F7F
:102E3000900DB49F900DA49F800D911D11240895B5
:102E4000A29FB001B39FC001A39F700D811D1124EB
:102E5000911DB29F700D811D1124911D0895505830
:102E6000BB27AA270ED0A8CF99DF30F09EDF20F035
:102E700031F49F3F11F41EF48ECF0EF4E095E7FB82
:102E800084CFE92FAADF80F3BA176207730784079C
:102E9000950718F071F49EF5C2CF0EF4E0950B2E55
:102EA000BA2FA02D0B01B90190010C01CA01A0019C
:102EB0001124FF27591B99F0593F50F4503E68F1F7
:102EC0001A16F040A22F232F342F4427585FF3CF38
:102ED000469537952795A795F0405395C9F77EF409
:102EE0001F16BA0B620B730B840BBAF09150A1F052
:102EF000FF0FBB1F661F771F881FC2F70EC0BA0FD8
:102F0000621F731F841F48F4879577956795B7955F
:102F1000F7959E3F08F0B3CF9395880F08F0992757
:102F2000EE0F9795879508950CD046CF3EDF40F081
:102F300035DF30F021F45F3F19F027CF511170CF0A
:102F40002ACF4BDF98F39923C9F35523B1F3951B8F
:102F5000550BBB27AA2762177307840738F09F5FBA
:102F60005F4F220F331F441FAA1FA9F333D00E2E29
:102F70003AF0E0E830D091505040E695001CCAF796
:102F800029D0FE2F27D0660F771F881FBB1F26175B
:102F900037074807AB07B0E809F0BB0B802DBF012E
:102FA000FF2793585F4F2AF09E3F510568F0EDCE02
:102FB00037CF5F3FECF3983EDCF3869577956795C6
:102FC000B795F7959F5FC9F7880F911D96958795DF
:102FD00097F90895E1E0660F771F881FBB1F6217FE
:102FE00073078407BA0720F0621B730B840BBA0BBC
:102FF000EE1F88F7E095089504D06894B11110CFC2
:103000000895F3DE88F09F5790F0B92F9927B751B4
:10301000A0F0D1F0660F771F881F991F1AF0BA959C
:10302000C9F712C0B13081F0FADEB1E00895F7CEF1
:10303000672F782F8827B85F39F0B93FCCF3869592
:1030400077956795B395D9F73EF4909580957095EF
:1030500061957F4F8F4F9F4F0895A0DE18F011F0BC
:10306000A4DE38F498CEDCCEE92FB7DEB0F35523DA
:10307000C9F3E7FB6217730784079507A8F199F373
:10308000E92FFF2788232AF03197660F771F881FC3
:10309000DAF7952F5527442332F091505040220FF4
:1030A000331F441FD2F7BB27E91BF50B621B730BC1
:1030B000840BB109C1F222F4620F731F841FB11D8A
:1030C00031972AF0660F771F881FBB1FEFCF9150F3
:1030D00050405AF041F0882332F0660F771F881F66
:1030E00091505040C1F7939506C0869577956795A6
:1030F0009F5FD9F7F8CF9F3F31F0915020F487952B
:1031000077956795B795880F911D9695879597F94F
:103110000895DB018F939F9389DEBF91AF91A29FAA
:10312000800D911DA39F900DB29F900D11240895C5
:1031300097FB072E16F4009406D077FD08D051D0E7
:1031400007FC05D03EF4909581959F4F08957095AA
:1031500061957F4F0895A1E21A2EAA1BBB1BFD01AA
:103160000DC0AA1FBB1FEE1FFF1FA217B307E40766
:10317000F50720F0A21BB30BE40BF50B661F771FBE
:10318000881F991F1A9469F760957095809590959E
:103190009B01AC01BD01CF010895052E97FB16F4EC
:1031A00000940FD057FD05D0D6DF07FC02D046F4BF
:1031B00008C050954095309521953F4F4F4F5F4F38
:1031C000089590958095709561957F4F8F4F9F4F93
:1031D0000895EE0FFF1F881F8BBF0790F691E02D1B
:1031E0001994AA1BBB1B51E107C0AA1FBB1FA6173E
:1031F000B70710F0A61BB70B881F991F5A95A9F7A0
:1032000080959095BC01CD010895CF93DF938230D6
:10321000910510F482E090E0E0917905F0917A0553
:1032200020E030E0C0E0D0E0309711F140815181E2
:1032300048175907C0F04817590761F482819381F4
:10324000209719F09B838A832BC090937A058093F3
:10325000790526C02115310519F04217530718F4D6
:103260009A01BE01DF01EF010280F381E02DDCCF86
:103270002115310509F1281B390B2430310590F453
:1032800012968D919C9113976115710521F0FB01A8
:103290009383828304C090937A0580937905FD011E
:1032A000329644C0FD01E20FF31F819391932250A7
:1032B00031092D933C933AC02091770530917805E0
:1032C000232B41F4209102023091030230937805C0
:1032D00020937705209100023091010221153105DC
:1032E00041F42DB73EB74091040250910502241BD2
:1032F000350BE0917705F0917805E217F307A0F41C
:103300002E1B3F0B2817390778F0AC014E5F5F4F3B
:103310002417350748F04E0F5F1F509378054093F0
:1033200077058193919302C0E0E0F0E0CF01DF9157
:10333000CF9108950F931F93CF93DF93009709F4D4
:103340008CC0FC0132971382128200917905109192
:103350007A050115110581F420813181820F931FB7
:1033600020917705309178052817390779F5F09382
:103370007805E093770571C0D80140E050E0AE17C2
:10338000BF0750F412962D913C911397AD01211572
:10339000310509F1D901F3CF9D01DA01338322838D
:1033A00060817181860F971F8217930769F4EC0182
:1033B00028813981260F371F2E5F3F4F31832083AD
:1033C0008A819B8193838283452B29F4F0937A052C
:1033D000E093790542C01396FC93EE931297ED01AA
:1033E000499159919E01240F351FE217F30771F49B
:1033F00080819181840F951F029611969C938E93E4
:103400008281938113969C938E931297E0E0F0E073
:10341000D80112968D919C911397009719F0F8019D
:103420008C01F6CF8D919C9198012E5F3F4F820FBA
:10343000931F20917705309178052817390769F493
:10344000309729F410927A051092790502C0138200
:1034500012821093780500937705DF91CF911F9129
:103460000F9108956F927F928F929F92AF92BF9229
:10347000CF92DF92EF92FF920F931F93CF93DF9340
:10348000EC01009781F4CB01DF91CF911F910F9157
:10349000FF90EF90DF90CF90BF90AF909F908F9074
:1034A0007F906F90B2CEFC01E60FF71F9C01225077
:1034B0003109E217F30708F4A8C0D9010D911C9156
:1034C000119706171707A8F00530110508F49BC0DF
:1034D000C80104978617970708F495C00250110990
:1034E000061B170B019311936D937C93CF0122DF81
:1034F0008AC05B01A01AB10A4C01800E911EA091F6
:103500007905B0917A0540E050E0E12CF12C10975C
:1035100009F44AC0A815B905D1F56D907C901197B2
:10352000630182E0C80ED11CCA14DB0480F1A30140
:103530004A195B096A0182E0C80ED11C1296BC9040
:1035400012971396AC91B5E0CB16D10440F0B2823D
:10355000A38351834083D9016D937C930AC00E5F8E
:103560001F4FC301800F911FF90191838083EB2DC1
:10357000FA2FE114F10431F0D7011396FC93EE9386
:10358000129741C0F0937A05E09379053CC08D9184
:103590009C9111974817590708F4AC017D011296C8
:1035A0000D90BC91A02DB3CF8091770590917805B7
:1035B00088159905E1F446175707C8F48091000271
:1035C00090910102009741F48DB79EB7409104029B
:1035D00050910502841B950BE817F907B0F4F0939E
:1035E0007805E0937705F901718360830CC0CB0106
:1035F0000CDE7C01009749F0A801BE011BD0CE0172
:1036000099DEC70104C0CE0102C080E090E0DF91E6
:10361000CF911F910F91FF90EF90DF90CF90BF90CF
:10362000AF909F908F907F906F90089581E090E091
:10363000F89444C0FB01DC0102C001900D9241509E
:103640005040D8F70895FC018191861721F0882316
:10365000D9F7992708953197CF010895FB01DC012F
:1036600001900D920020E1F70895FB01DC0141502B
:10367000504048F001900D920020C9F701C01D9202
:1036800041505040E0F70895FB0151915523A9F0B6
:10369000BF01DC014D9145174111E1F759F4CD010E
:1036A0000190002049F04D9140154111C9F3FB01F3
:1036B0004111EFCF81E090E00197089511E0C0EB58
:1036C000D1E000E005C0802FFE0183DD2196011DC1
:0E36D000C13BD10780E00807B1F7F894FFCFA7
:1036DE0000007B0580000000000013037208B60393
:1036EE00120367037E03FA0200000000DC03720877
:1036FE00E30122041402F201060200000000B903E5
:10370E007208B603B503B903B903B903000000008C
:10371E00B9037208B603B5032C2000312E323334B0
:10372E00352C20312E323334350041542B434D4746
:10373E00463D310D004154202B20434D4753203D33
:10374E002022002B313634373532383732393900B2
:10375E000D0A004750525320494E495449414C4995
:10376E005A45440024504D544B3331342C302C31B7
:10377E002C302C312C302C302C302C302C302C305A
:10378E002C302C302C302C302C302C302C302C304B
:10379E002C302A32380024504D544B3232302C31DA
:1037AE003030302A31460024504D544B3630352AB5
:1037BE0033310047505320494E495449414C495AE0
:1037CE0045440024475047474100244750524D433B
:0237DE000000E9
:00000001FF
