:1000000015C1000042C1000040C100003EC1000017
:100010003CC100003AC1000038C1000036C10000F8
:1000200034C10000CCC40000CAC40000C8C4000031
:100030002CC100002AC1000028C1000026C1000018
:1000400024C1000022C1000020C100001EC1000028
:100050001CC100001AC1000018C1000066C40000E5
:1000600014C100002CC4000001C400000EC1000037
:100070000CC100000AC1000008C1000006C1000058
:1000800004C1000002C1000000C10000FEC0000069
:10009000FCC00000FAC00000F8C00000F6C000007C
:1000A000F4C00000F2C00000F0C00000EEC000008C
:1000B000ECC00000EAC00000E8C00000E6C000009C
:1000C000E4C00000E2C00000E0C00000DEC00000AC
:1000D000DCC00000DAC00000D8C00000D6C00000BC
:1000E000D4C00000A502A80297029B029F02DF0273
:1000F000AC02B002B602BA02BE02C402C802CC020E
:10010000DF02D202D602DA0200000A0B02090C0D4D
:100110000E080703040100000000000000000000BA
:1001200000000000000000000000000000000000CF
:10013000000000001211100000000000000000008C
:1001400000000000000000000000000000000000AF
:100150002200250028002B002E003100340002016F
:100160000000050108010B01000021002400270008
:100170002A002D00300033000101000004010701B6
:100180000A01000020002300260029002C002F0077
:100190003200000100000301060109010505050503
:1001A000070508080808020202020A0A08080404EF
:1001B000040401010101010101010303030303031D
:1001C0000303040707070C0C0C0C0C0C0C0C0202AC
:1001D000020206060606060606060B0B0B0B0B0BA9
:1001E0000B0B010210202008081020401020408036
:1001F00002010201080402010102040810204080EB
:100200008040201008040201800402018040201078
:1002100008040201080402010102040810204080C1
:1002200001020408102040805D05300811241FBE23
:10023000CFEFD1E2DEBFCDBF00E00CBF23E0A0E9ED
:10024000B2E001C01D92AD39B207E1F712E0A0E0C3
:10025000B2E0ECE3F5E100E00BBF02C007900D92C5
:10026000A039B107D9F711E0C5E1D1E000E005C040
:1002700021970109802FFE010FD7C431D10780E0FB
:100280000807B1F7FAD40C948D0ABACECF92DF9258
:10029000EF92FF920F931F93CF93DF936C017A013C
:1002A0008B01C0E0D0E0CE15DF0589F0D8016D915B
:1002B0008D01D601ED91FC910190F081E02DC601F8
:1002C0001995892B11F47E0102C02196ECCFC7014C
:1002D000DF91CF911F910F91FF90EF90DF90CF9022
:1002E0000895FC01538D448D252F30E0842F90E03C
:1002F000821B930B541710F0CF9608950197089521
:10030000FC01918D828D981761F0828DDF01A80F1D
:10031000B11D5D968C91928D9F5F9F73928F90E03F
:1003200008958FEF9FEF0895FC01918D828D9817AE
:1003300031F0828DE80FF11D858D90E008958FEFEB
:100340009FEF0895FC01918D228D892F90E0805CB4
:100350009F4F821B91098F73992708958DED92E02D
:10036000F1DF21E0892B09F420E0822F0895FC01C0
:10037000848DDF01A80FB11DA35ABF4F2C91848D2E
:1003800090E001968F739927848FA689B7892C9363
:10039000A089B1898C9180648C93938D848D9813FE
:1003A00006C00288F389E02D80818F7D80830895C7
:1003B000EF92FF920F931F93CF93DF93EC0181E0B5
:1003C000888F9B8D8C8D981305C0E889F989808171
:1003D00085FD23C0F62E0B8D10E00F5F1F4F0F73AE
:1003E0001127E02E8C8DE8120BC00FB607FCFACF58
:1003F000E889F989808185FFF5CFCE01B8DFF2CF9A
:100400008B8DFE01E80FF11DE35AFF4FF0820B8F39
:10041000EA89FB898081806207C0EE89FF89608359
:10042000E889F98980818064808381E090E0DF91B0
:10043000CF911F910F91FF90EF900895CF93DF938D
:10044000EC01888D8823C1F0EA89FB89808185FDD4
:1004500005C0A889B9898C9186FD0EC00FB607FC2E
:10046000F5CF808185FFF2CFA889B9898C9185FF6E
:10047000EDCFCE017CDFE8CFDF91CF91089580E012
:1004800090E0892B19F06ADF811125C080E090E0AF
:10049000892B41F080E090E0892B21F00E94000040
:1004A00081111CC080E090E0892B41F080E090E059
:1004B000892B21F00E940000811113C080E090E0A0
:1004C000892BA1F080E090E0892B81F00E94000050
:1004D00081110AC008950E940000D8CF0E94000038
:1004E000E1CF0E940000EACF0C9400000895362F5F
:1004F00090E0FC01E85FFE4F4491FC01EE51FE4F9D
:100500002491FC01E456FE4F9491992309F46AC0AA
:10051000442309F454C050E0FA013197E231F10567
:1005200008F04DC08827EE58FF4F8F4FB5C580911A
:1005300080008F7707C0809180008F7D03C08091FD
:100540008000877F809380003AC084B58F7702C097
:1005500084B58F7D84BD33C08091B0008F7703C098
:100560008091B0008F7D8093B00029C08091900071
:100570008F7707C0809190008F7D03C0809190009D
:10058000877F809390001BC08091A0008F7707C069
:100590008091A0008F7D03C08091A000877F809311
:1005A000A0000DC0809120018F7707C080912001AD
:1005B0008F7D03C080912001877F80932001E92FE8
:1005C000F0E0EE0FFF1FE25BFE4FA591B4918FB7F5
:1005D000F894EC91311103C020952E2301C02E2BED
:1005E0002C938FBF08953FB7F8948091D5029091D6
:1005F000D602A091D702B091D80226B5A89B05C01B
:100600002F3F19F00196A11DB11D3FBFBA2FA92F91
:10061000982F8827820F911DA11DB11DBC01CD010E
:1006200042E0660F771F881F991F4A95D1F70895FA
:100630008F929F92AF92BF92CF92DF92EF92FF92F2
:100640006B017C01D0DF4B015C01C114D104E104DA
:10065000F104E9F0C8DFDC01CB0188199909AA0986
:10066000BB09883E9340A105B10578F321E0C21A89
:10067000D108E108F10888EE880E83E0981EA11CDD
:10068000B11CC114D104E104F10421F7DECFFF90C5
:10069000EF90DF90CF90BF90AF909F908F90089594
:1006A0002091DB023091DC022817390771F4909118
:1006B000D9028091DA02981741F0E091D902F0E076
:1006C000E057FD4F808190E008958FEF9FEF0895F0
:1006D00008951F93CF93DF93DC015C962D913C919D
:1006E0005D972115310539F481E090E013969C93D4
:1006F0008E9312973DC05196ED91FC915297509672
:100700009C915097892F80951FB75E964C915E976C
:1007100041FB772770F941FD6095F894408177237C
:1007200011F0492B01C048234083E9012197F1F7DB
:1007300048E0508160FF02C0592B01C0582350830C
:10074000E9012197F1F76695415099F7772321F058
:1007500090818923808303C08081982B90831FBF61
:100760005C968D919C915D970197F1F721E030E0C7
:10077000C901DF91CF911F9108952091DB02309143
:10078000DC022817390761F48091DA022091D9023E
:1007900090E0805C9F4F821B910960E470E069C427
:1007A00080E090E008952091DB023091DC02281770
:1007B0003907B9F49091D9028091DA02981789F03B
:1007C000E091D902F0E0E057FD4F80812091D902FD
:1007D00030E02F5F3F4F2F7333272093D90290E0F3
:1007E00008958FEF9FEF0895E091DB02F091DC0216
:1007F000E817F90769F4A389B4899C9185898095E4
:1008000089238C931092DC021092DB0281E0089520
:1008100080E00895089580E090E0089561157105E5
:1008200079F0FB0101900020E9F73197AF01461BF9
:10083000570BDC01ED91FC910280F381E02D1994BE
:1008400080E090E008950F931F93CF93DF93EC0126
:10085000E5DF8C016AE272E0CE01E0DF800F911FDC
:10086000DF91CF911F910F91089543D61F920F9260
:100870000FB60F9211240BB60F922F933F934F9305
:100880005F936F937F938F939F93AF93BF93EF93F8
:10089000FF938DED92E06BDDFF91EF91BF91AF91F2
:1008A0009F918F917F916F915F914F913F912F9188
:1008B0000F900BBE0F900FBE0F901F9018951F92B8
:1008C0000F920FB60F9211240BB60F922F938F93A6
:1008D0009F93EF93FF93E091ED02F091EE02808100
:1008E000E091F302F091F40282FD12C090818091B8
:1008F000F6028F5F8F732091F702821751F0E0911B
:10090000F602F0E0E352FD4F958F8093F60201C0AE
:100910008081FF91EF919F918F912F910F900BBE4E
:100920000F900FBE0F901F9018951F920F920FB649
:100930000F9211242F933F938F939F93AF93BF9365
:100940008091D1029091D202A091D302B091D402B1
:100950003091D00223E0230F2D3720F40196A11D02
:10096000B11D05C026E8230F0296A11DB11D2093DD
:10097000D0028093D1029093D202A093D302B0937D
:10098000D4028091D5029091D602A091D702B09165
:10099000D8020196A11DB11D8093D5029093D60275
:1009A000A093D702B093D802BF91AF919F918F913E
:1009B0003F912F910F900FBE0F901F9018951F928F
:1009C0000F920FB60F9211240BB60F922F933F93F5
:1009D0004F935F936F937F938F939F93AF93BF9347
:1009E000EF93FF93E091DB02F091DC02309709F482
:1009F00051C0968DA685B785858591FF04C09C91D1
:100A0000892329F447C09C91892309F043C0A38915
:100A1000B4899C918589809589238C93868997894F
:100A20000197F1F7608D718DA685B785558538E002
:100A300020E0CB010197F1F7822F90E09595879503
:100A4000282F4C91452309F02068315091F7868D6D
:100A500081FD20958091DA0290E001968F739927AD
:100A60003091D902381749F0A091DA02B0E0A057CE
:100A7000BD4F2C938093DA0203C0868D8160868FF0
:100A8000828D938D0197F1F7A389B4899C91858913
:100A9000892B8C93FF91EF91BF91AF919F918F9193
:100AA0007F916F915F914F913F912F910F900BBE6E
:100AB0000F900FBE0F901F901895CF93DF93109259
:100AC000E0021092DF0288EE93E0A0E0B0E08093B5
:100AD000E1029093E202A093E302B093E4022AE0E1
:100AE00032E03093DE022093DD0225EC30E03093DB
:100AF000EA022093E90224EC30E03093EC022093E8
:100B0000EB0220EC30E03093EE022093ED0221EC7A
:100B100030E03093F0022093EF0222EC30E030938B
:100B2000F2022093F10226EC30E03093F40220939D
:100B3000F3021092F6021092F7021092F80210924D
:100B4000F90210927D0310927C0380937E039093B0
:100B50007F03A0938003B09381038CE192E0909394
:100B60007B0380937A03109291031092900310926A
:100B70009303109292031092950310929403109293
:100B8000970310929603609198036E7F6D7F609338
:100B900098036695617081E0682788E0A8DCEAEE3A
:100BA000F1E02491E4EAF1E08491882399F090E067
:100BB000880F991FFC01E859FE4FA591B491FC01E3
:100BC000E25BFE4F859194918FB7F894EC91E22B04
:100BD000EC938FBFEAEEF1E0E491E0938A03E4EA5C
:100BE000F1E0E491F0E0EE0FFF1FE25BFE4F859134
:100BF000949190938C0380938B03E9EEF1E0249120
:100C0000E3EAF1E084918823C1F090E0880F991F16
:100C1000FC01E859FE4FC591D491FC01E25BFE4F07
:100C2000A591B4919FB7F8948881E22FE0958E2327
:100C300088838C91E823EC939FBF8091980381FD7A
:100C400003C061E087E053DC87E080938603E9EE30
:100C5000F1E0E491E0938703E3EAF1E0E491F0E06E
:100C6000EE0FFF1FEE57FE4F8591949190938903ED
:100C700080938803DF91CF910895789484B5826042
:100C800084BD84B5816084BD85B5826085BD85B530
:100C9000816085BD80916E00816080936E001092AE
:100CA0008100809181008260809381008091810029
:100CB00081608093810080918000816080938000BA
:100CC0008091B10084608093B1008091B000816018
:100CD0008093B00080919100826080939100809118
:100CE0009100816080939100809190008160809359
:100CF00090008091A10082608093A1008091A1006A
:100D000081608093A1008091A00081608093A00009
:100D10008091210182608093210180912101816075
:100D20008093210180912001816080932001809136
:100D30007A00846080937A0080917A008260809348
:100D40007A0080917A00816080937A0080917A00A5
:100D5000806880937A001092C100109295031092DF
:100D600094031092930310929203109291031092A5
:100D700090038DEC90E0909397038093960380917D
:100D8000860396EF980F943048F02EEC280F24300D
:100D900028F022EC280F283008F06EC025E530E05E
:100DA00030939103209390032BEC30E03093930326
:100DB0002093920320E930E030939503209394032D
:100DC000943060F02EEC280F243040F022EC280FF5
:100DD000283008F43DC1A0E0B0E03CC1A8E6B0E096
:100DE000E8E6F0E02081943018F08E53883010F05F
:100DF00081E001C084E0822B8C938091860396EF82
:100E0000980F943058F02EEC280F243038F022EC54
:100E1000280F283030F020E030E005C02BE630E02D
:100E200002C02DE630E030938E0320938D03943082
:100E300010F49AEF0BC0823381F0833381F0843356
:100E400081F092EC980F983070F492EC980F81E05A
:100E500001C0880F9A95EAF707C088E005C084E0D2
:100E600003C082E001C081E080938F0380919603EC
:100E7000909197030197F1F78091940390919503D6
:100E8000892B19F18091DB029091DC0223E08A37F3
:100E90009207D9F0009709F0A7DC809198038E7F24
:100EA000809398031092DA021092D9028AE793E0B5
:100EB0009093DC028093DB02E0918D03F0918E032E
:100EC000908180918F03892B8083E091ED02F091D6
:100ED000EE0282E08083E091E902F091EA02108262
:100EE000E091EB02F091EC0287E680831092F5022C
:100EF000E091F102F091F20286E08083E091EF024E
:100F0000F091F002808180618083E091EF02F091A6
:100F1000F002808188608083E091EF02F091F0021E
:100F2000808180688083E091EF02F091F0028081FF
:100F30008F7D808364EF71E080E090E079DB6DE28B
:100F400072E08DED92E07FDC8DED92E0FBD9892B94
:100F500009F47CC06EE372E08DED92E074DC8DEDFF
:100F600092E0CED98437910509F064C06AE170E05F
:100F700080E090E0DAD1EC01009739F018826FE45C
:100F800072E0C4D209E110E002C000E010E069E6BE
:100F900072E08AE793E042DC64E670E080E090E093
:100FA00047DB64E772E08AE793E038DC64E670E0F0
:100FB00080E090E03DDB62E872E08AE793E02EDCBF
:100FC00064E670E080E090E033DB60E872E08AE79E
:100FD00093E039DC64E670E080E090E029DBA80172
:100FE000BE018AE793E052D96AE272E08AE793E0B1
:100FF00015DC64E670E080E090E01ADBE0917A03B3
:10100000F0917B030190F081E02D6AE18AE793E0A3
:1010100019956AE272E08AE793E000DC64E670E02A
:1010200080E090E005DB6AE272E08AE793E0F6DBBD
:10103000CE01E3D08AE793E0A0DB892B39F08AE781
:1010400093E0B1DB682F8DED92E0B2D918DA7CCF56
:10105000A8E6B0E0283008F4C3CEE0E0F0E0C2CE6D
:101060008CE192E090937B0380937A038AE793E08C
:10107000BBCB97FB072E16F4009406D077FD08D063
:1010800013D007FC05D03EF4909581959F4F0895AD
:10109000709561957F4F0895EE0FFF1F881F8BBFDE
:1010A0000790F691E02D1994AA1BBB1B51E107C0D4
:1010B000AA1FBB1FA617B70710F0A61BB70B881FE8
:1010C000991F5A95A9F780959095BC01CD01089577
:1010D000CF93DF938230910510F482E090E0E091AD
:1010E0009B03F0919C0320E030E0C0E0D0E030971B
:1010F00011F14081518148175907C0F0481759072D
:1011000061F482819381209719F09B838A832BC09D
:1011100090939C0380939B0326C02115310519F001
:101120004217530718F49A01BE01DF01EF01028054
:10113000F381E02DDCCF2115310509F1281B390B96
:101140002430310590F412968D919C91139761157E
:10115000710521F0FB019383828304C090939C036B
:1011600080939B03FD01329644C0FD01E20FF31F03
:1011700081939193225031092D933C933AC0209151
:10118000990330919A03232B41F42091020230916C
:10119000030230939A032093990320910002309127
:1011A00001022115310541F42DB73EB740910402EB
:1011B00050910502241B350BE0919903F0919A039D
:1011C000E217F307A0F42E1B3F0B2817390778F01E
:1011D000AC014E5F5F4F2417350748F04E0F5F1F7D
:1011E00050939A03409399038193919302C0E0E056
:1011F000F0E0CF01DF91CF9108950F931F93CF932C
:10120000DF93009709F48CC0FC013297138212829D
:1012100000919B0310919C030115110581F420811D
:101220003181820F931F2091990330919A032817DF
:10123000390779F5F0939A03E093990371C0D801C7
:1012400040E050E0AE17BF0750F412962D913C914C
:101250001397AD012115310509F1D901F3CF9D0196
:10126000DA013383228360817181860F971F821791
:10127000930769F4EC0128813981260F371F2E5F0F
:101280003F4F318320838A819B8193838283452BC7
:1012900029F4F0939C03E0939B0342C01396FC93C4
:1012A000EE931297ED01499159919E01240F351F3C
:1012B000E217F30771F480819181840F951F0296E4
:1012C00011969C938E938281938113969C938E9317
:1012D0001297E0E0F0E0D80112968D919C9113975F
:1012E000009719F0F8018C01F6CF8D919C9198012F
:1012F0002E5F3F4F820F931F2091990330919A03E5
:101300002817390769F4309729F410929C0310923A
:101310009B0302C01382128210939A0300939903D5
:10132000DF91CF911F910F9108956F927F928F92CD
:101330009F92AF92BF92CF92DF92EF92FF920F9364
:101340001F93CF93DF93EC01009781F4CB01DF91E2
:10135000CF911F910F91FF90EF90DF90CF90BF90B2
:10136000AF909F908F907F906F90B2CEFC01E60F70
:10137000F71F9C0122503109E217F30708F4A8C0B7
:10138000D9010D911C91119706171707A8F0053088
:10139000110508F49BC0C80104978617970708F445
:1013A00095C002501109061B170B019311936D9301
:1013B0007C93CF0122DF8AC05B01A01AB10A4C01E5
:1013C000800E911EA0919B03B0919C0340E050E0E1
:1013D000E12CF12C109709F44AC0A815B905D1F5F4
:1013E0006D907C901197630182E0C80ED11CCA14E5
:1013F000DB0480F1A3014A195B096A0182E0C80E8F
:10140000D11C1296BC9012971396AC91B5E0CB16F6
:10141000D10440F0B282A38351834083D9016D93FC
:101420007C930AC00E5F1F4FC301800F911FF9010B
:1014300091838083EB2DFA2FE114F10431F0D70171
:101440001396FC93EE93129741C0F0939C03E093A4
:101450009B033CC08D919C9111974817590708F444
:10146000AC017D0112960D90BC91A02DB3CF80915F
:10147000990390919A0388159905E1F44617570747
:10148000C8F48091000290910102009741F48DB759
:101490009EB74091040250910502841B950BE817FA
:1014A000F907B0F4F0939A03E0939903F90171837B
:1014B00060830CC0CB010CDE7C01009749F0A801D1
:1014C000BE011BD0CE0199DEC70104C0CE0102C00F
:1014D00080E090E0DF91CF911F910F91FF90EF900E
:1014E000DF90CF90BF90AF909F908F907F906F9044
:1014F000089581E090E0F89410C0FB01DC0102C087
:1015000001900D9241505040D8F70895FB01DC0145
:1015100001900D920020E1F7089511E0C5E1D1E0BE
:1015200000E005C0802FFE01B7DD2196011DC63108
:0C153000D10780E00807B1F7F894FFCF66
:10153C0000009D03800000000000D80146017101ED
:10154C001E02A20180019401000000006903460103
:10155C000B046803BD03D30350030D0A004750521C
:10156C005320494E495449414C495A454400436F14
:10157C006D6D616E64205265636569766564004CBF
:10158C004F4F4F4F4C2054455354494E47204154D4
:10159C0020343A333020414D0041542B434D4746C3
:1015AC003D310D004154202B20434D4753203D200D
:1015BC0022002B3136343732313634393336000091
:00000001FF
