:10000000B0C10000DFC10000DDC10000DBC10000A5
:10001000D9C10000D7C10000D5C10000D3C1000084
:10002000D1C1000044C6000042C6000040C6000026
:10003000C9C10000C7C10000C5C10000C3C10000A4
:10004000C1C10000BFC10000BDC10000BBC10000B4
:10005000B9C10000BDC70000B5C1000058C4000010
:10006000B1C100000C944508E7C70000ABC1000017
:10007000A9C10000A7C10000A5C10000A3C10000E4
:10008000A1C100009FC100009DC100009BC10000F4
:1000900099C1000097C1000095C1000093C1000004
:1000A00091C100008FC100008DC100008BC1000014
:1000B00089C1000087C1000085C1000083C1000024
:1000C00081C100007FC100007DC100007BC1000034
:1000D00079C1000077C1000075C1000073C1000044
:1000E00071C1000087028A0279027D028102C10289
:1000F0008E02920298029C02A002A602AA02AE02FE
:10010000C102B402B802BC024E414E494E49545994
:10011000494E46CDCCCC3D0AD7233C17B7D13877D2
:10012000CC2B329595E6241FB14F0A0000204100E8
:1001300000C84200401C4620BCBE4CCA1B0E5AAE32
:10014000C59D7400407A10F35A00A0724E18090041
:1001500010A5D4E80000E87648170000E40B54022C
:100160000000CA9A3B000000E1F505000080969867
:1001700000000040420F000000A0860100000010B7
:100180002700000000E803000000006400000000F9
:10019000000A00000000000100000000002C76D8DA
:1001A00088DC674F0823DFC1DFAE59E1B1B796E5C0
:1001B000E3E453C63AE651997696E8E6C28426EB24
:1001C000898C9B62ED407C6FFCEFBC9C9F40F2BA37
:1001D000A56FA5F490055A2AF75C936B6CF9676DCF
:1001E000C11BFCE0E40D47FEF520E6B500D0ED9024
:1001F0002E0300943577050080841E080000204EF1
:100200000A000000C80C333333330F986E12831189
:1002100041EF8D2114893BE65516CFFEE6DB18D160
:10022000844B381BF77C1D901DA4BBE42420328432
:10023000725E228100C9F124ECA1E53D2700002176
:1002400000240027002A002D0030003300010100A7
:1002500000040107010A01000020002300260029F4
:10026000002C002F003200000100000301060109EC
:100270000100002200250028002B002E0031003450
:100280000002010000050108010B01050505050735
:100290000508080808020202020A0A080804040401
:1002A000040101010101010101030303030303032D
:1002B00003040707070C0C0C0C0C0C0C0C020202BC
:1002C0000206060606060606060B0B0B0B0B0B0BAF
:1002D0000B0102102020080810204010204080024E
:1002E000010201080402010102040810204080807C
:1002F0004020100804020180040201804020100800
:1003000004020108040201010204081020408001D7
:100310000204081020408000000A0B02090C0D0E98
:1003200008070304010000000000000000000000B6
:1003300000000000000000000000000000000000BD
:10034000000000121110000000000000000000007A
:100350000000000000000000000000000000091282
:10036000EE0A11241FBECFEFD1E2DEBFCDBF00E009
:100370000CBF25E0ACE0B3E001C01D92A538B20788
:10038000E1F713E0A0E0B2E0EAE0F9E300E00BBF40
:1003900002C007900D92AC30B107D9F711E0C0EB65
:1003A000D1E000E006C021970109802FFE010E94E4
:1003B000FF19CF3AD10780E00807A9F70E94020B86
:1003C0000C94741C1DCEFC01538D448D252F30E000
:1003D000842F90E0821B930B541710F0CF96089552
:1003E00001970895FC01918D828D981761F0828D9F
:1003F000DF01A80FB11D5D968C91928D9F5F9F7359
:10040000928F90E008958FEF9FEF0895FC01918DFA
:10041000828D981731F0828DE80FF11D858D90E067
:1004200008958FEF9FEF0895FC01918D228D892F04
:1004300090E0805C9F4F821B91098F7399270895EC
:1004400080E090E0892B19F0EED5811125C080E085
:1004500090E0892B41F080E090E0892B21F00E9410
:10046000000081111CC080E090E0892B41F080E009
:1004700090E0892B21F00E940000811113C080E0E0
:1004800090E0892BA1F080E090E0892B81F00E9420
:10049000000081110AC008950E940000D8CF0E9478
:1004A0000000E1CF0E940000EACF0C940000089504
:1004B000362F90E0FC01E95EFC4F4491FC01EF52C5
:1004C000FD4F2491FC01E557FD4F9491992309F4C8
:1004D0006BC0442309F455C050E0FA013197E23172
:1004E000F10508F04EC08827EE58FF4F8F4F0C944F
:1004F000FF19809180008F7707C0809180008F7DE9
:1005000003C080918000877F809380003AC084B5CB
:100510008F7702C084B58F7D84BD33C08091B000D9
:100520008F7703C08091B0008F7D8093B00029C089
:10053000809190008F7707C0809190008F7D03C0DD
:1005400080919000877F809390001BC08091A000D5
:100550008F7707C08091A0008F7D03C08091A0009D
:10056000877F8093A0000DC0809120018F7707C006
:10057000809120018F7D03C080912001877F80932F
:100580002001E92FF0E0EE0FFF1FEF58FD4FA5917E
:10059000B4918FB7F894EC91311103C020952E23BC
:1005A00001C02E2B2C938FBF08953FB7F8948091F4
:1005B000560390915703A0915803B091590326B563
:1005C000A89B05C02F3F19F00196A11DB11D3FBF8B
:1005D000BA2FA92F982F8827820F911DA11DB11D19
:1005E000BC01CD0142E0660F771F881F991F4A9515
:1005F000D1F7089520914F03309150032817390700
:1006000071F490914E0380914D03981741F0E09161
:100610004E03F0E0E35FFC4F808190E008958FEFA0
:100620009FEF089508951F93CF93DF93DC015C96AD
:100630002D913C915D972115310539F481E090E0D1
:1006400013969C938E9312973DC05196ED91FC9119
:10065000529750969C915097892F80951FB75E9620
:100660004C915E9741FB772770F941FD6095F894B6
:100670004081772311F0492B01C048234083E901D1
:100680002197F1F748E0508160FF02C0592B01C06B
:1006900058235083E9012197F1F76695415099F766
:1006A000772321F090818923808303C08081982B58
:1006B00090831FBF5C968D919C915D970197F1F798
:1006C00021E030E0C901DF91CF911F910895209181
:1006D0004F03309150032817390769F480914D0377
:1006E00020914E0390E0805C9F4F821B910960E453
:1006F00070E00C94AE1980E090E0089520914F03D3
:100700003091500328173907B9F490914E03809126
:100710004D03981789F0E0914E03F0E0E35FFC4F42
:10072000808120914E0330E02F5F3F4F2F7333279E
:1007300020934E0390E008958FEF9FEF0895E0918E
:100740004F03F0915003E817F90769F4A389B489BE
:100750009C918589809589238C93109250031092E7
:100760004F0381E0089580E00895089580E090E0CF
:1007700008950E942C1CFC01848DDF01A80FB11D7F
:10078000A35ABF4F2C91848D90E001968F739927C7
:10079000848FA689B7892C93A089B1898C918064B4
:1007A0008C93938D848D981306C00288F389E02D75
:1007B00080818F7D80830895EF92FF920F931F9326
:1007C000CF93DF93EC0181E0888F9B8D8C8D981304
:1007D00005C0E889F989808185FD23C0F62E0B8D3F
:1007E00010E00F5F1F4F0F731127E02E8C8DE81262
:1007F0000BC00FB607FCFACFE889F989808185FF25
:10080000F5CFCE01B8DFF2CF8B8DFE01E80FF11DE1
:10081000E35AFF4FF0820B8FEA89FB898081806267
:1008200007C0EE89FF896083E889F9898081806447
:10083000808381E090E0DF91CF911F910F91FF9035
:10084000EF900895CF93DF93EC01888D8823C1F05A
:10085000EA89FB89808185FD05C0A889B9898C91C9
:1008600086FD0EC00FB607FCF5CF808185FFF2CF65
:10087000A889B9898C9185FFEDCFCE017CDFE8CFC7
:10088000DF91CF9108958F929F92AF92BF92CF92B6
:10089000DF92EF92FF926B017C0187DE4B015C01DE
:1008A000C114D104E104F104E9F07FDEDC01CB01E5
:1008B00088199909AA09BB09883E9340A105B10589
:1008C00078F321E0C21AD108E108F10888EE880E19
:1008D00083E0981EA11CB11CC114D104E104F104F1
:1008E00021F7DECFFF90EF90DF90CF90BF90AF90D9
:1008F0009F908F9008952FB7F89460915203709154
:10090000530380915403909155032FBF08951F9274
:100910000F920FB60F9211242F933F938F939F93B3
:10092000AF93BF938091520390915303A0915403CE
:10093000B09155033091510323E0230F2D3720F45C
:100940000196A11DB11D05C026E8230F0296A11D29
:10095000B11D209351038093520390935303A093AE
:100960005403B09355038091560390915703A0917F
:100970005803B09159030196A11DB11D80935603F0
:1009800090935703A0935803B0935903BF91AF912D
:100990009F918F913F912F910F900FBE0F901F90BD
:1009A00018951F93CF93DF93EC019A01AB011B8E37
:1009B0001A8E198E188E1F8A1E8A60E079E08DE3E8
:1009C00090E00E94E319F9012430310518F0C901C3
:1009D000039702C081E090E09D8F8C8F8C8516EF8D
:1009E000180F143048F09EEC980F943028F092ECD9
:1009F000980F983008F080C0B901769567956431FA
:100A0000710518F06351710902C061E070E07F8BDD
:100A10006E8B369720F0B9016550710902C061E014
:100A200070E0798F688FB901660F771F260F371F27
:100A300036952795369527952D30310518F02C5091
:100A4000310902C021E030E03B8F2A8F143060F082
:100A50009EEC980F943040F092EC980F983008F488
:100A60006BC0A0E0B0E06AC0A8E6B0E0E8E6F0E065
:100A70009081143018F08E53883010F081E001C05E
:100A800084E0892B8C938C8596EF980F943058F0E6
:100A90002EEC280F243038F022EC280F283030F0CC
:100AA00020E030E005C02BE630E002C02DE630E06B
:100AB0003C8B2B8B943010F49AEF0BC0823381F077
:100AC000833381F0843381F092EC980F983070F486
:100AD00092EC980F81E001C0880F9A95EAF707C061
:100AE00088E005C084E003C082E001C081E08D8B16
:100AF0008C8D9D8D0197F1F78A8D9B8D892B21F12E
:100B000080914F03909150038C179D07E9F0009757
:100B100009F015DE8E8D8E7F8E8F10924D03109210
:100B20004E03D0935003C0934F03EB89FC8990810F
:100B30008D89892B808308C0A8E6B0E0983008F43E
:100B400095CFE0E0F0E094CFDF91CF911F91089531
:100B5000AF92BF92CF92DF92FF920F931F93CF93EA
:100B6000DF931F92CDB7DEB75C01F62EFC01138236
:100B7000128288EE93E0A0E0B0E084839583A683A0
:100B8000B7838AE092E091838083178A168A118E58
:100B9000108E138E128E158E148E668D6E7F20FB36
:100BA00061F9668F6695617081E06827842F4983BB
:100BB0007FDC498150E0BA016F527D4FFB01A49167
:100BC00045575D4FFA0184918823A9F090E0880F82
:100BD000991F9C01235C3D4FF901059114918F5899
:100BE0009D4FFC01259134918FB7F894F8019081C5
:100BF000A92BA0838FBFFB016491F501608BFA01E3
:100C00004491E42FF0E0EE0FFF1FEF58FD4F859168
:100C10009491F501928B818B0F2D10E0C8018F52BA
:100C20009D4F6C01FC01849105571D4FF8012491E3
:100C30002223C1F030E0220F331FF901E35CFD4FA6
:100C4000A591B4912F583D4FF901459154912FB77B
:100C5000F8949C91809598239C93FA019081892324
:100C600080832FBFF501868D81FD03C061E08F2D4C
:100C70001FDCF501F486F601C490F501C586F80184
:100C80000491E02FF0E0EE0FFF1FE95AFD4F859130
:100C90009491F501978786870F90DF91CF911F91EF
:100CA0000F91FF90DF90CF90BF90AF9008951F926B
:100CB0000F920FB60F9211240BB60F922F933F9302
:100CC0004F935F936F937F938F939F93AF93BF9354
:100CD000EF93FF93E0914F03F0915003309709F4A5
:100CE00051C0968DA685B785858591FF04C09C91DE
:100CF000892329F447C09C91892309F043C0A38923
:100D0000B4899C918589809589238C93868997895C
:100D10000197F1F7608D718DA685B785558538E00F
:100D200020E0CB010197F1F7822F90E09595879510
:100D3000282F4C91452309F02068315091F7868D7A
:100D400081FD209580914D0390E001968F73992746
:100D500030914E03381749F0A0914D03B0E0A35FE6
:100D6000BC4F2C9380934D0303C0868D8160868F8A
:100D7000828D938D0197F1F7A389B4899C91858920
:100D8000892B8C93FF91EF91BF91AF919F918F91A0
:100D90007F916F915F914F913F912F910F900BBE7B
:100DA0000F900FBE0F901F901895EF92FF920F9328
:100DB0001F93CF93DF93CDB7DEB768970FB6F89444
:100DC000DEBF0FBECDBF1A8219821C821B821E821B
:100DD0001D8240E050E061E872E0CE0101965AD2F7
:100DE00080913A04882309F46EC040911B0450910D
:100DF0001C0460911D0470911E0424E0CE014396F2
:100E00007DD240911704509118046091190470919B
:100E10001A0424E0CE01079671D21E861D86188A18
:100E20001F861A8A198ABE01695F7F4FCE010D960F
:100E300050D209891A890F5F1F4FB801CE010D9654
:100E4000F0D1882309F4C0C02D853E8589899A890F
:100E500068E472E0820F931F0E94441C1A8B098B76
:100E60008F89988DEB88FC8809891A89E114F1042F
:100E700009F4A6C00097A1F0080F191FB801CE0110
:100E80000D96CFD1882309F49BC02D853E85898995
:100E90009A89B701820F931F0E94441C1A8B098BF9
:100EA000BE01635F7F4FCE01019613D28D859E8573
:100EB0000E94B01A8F8198850E94B01A8B899C89F4
:100EC0000E94B01A07C04EE050E06AE472E0CE0122
:100ED0000196E0D118861F821A8619861C861B8609
:100EE000BE016F5F7F4FCE010796F3D169E572E0D7
:100EF0008DE694E046D264E670E080E090E0C3DCEA
:100F000064E672E08DE694E03CD264E670E080E056
:100F100090E0B9DC62E772E08DE694E032D264E6FC
:100F200070E080E090E0AFDC60E772E08DE694E096
:100F300043D364E670E080E090E0A5DC4B855C85FF
:100F40006F8178858DE694E0D6D06FE772E08DE60C
:100F500094E017D264E670E080E090E094DC6AE10F
:100F60008DE694E007D26FE772E08DE694E009D257
:100F700064E670E080E090E086DC6FE772E08DE68A
:100F800094E0FFD18F8198850E94B01AB4DC609301
:100F9000FB037093FC038093FD039093FE03898110
:100FA0009A810E94B01A68960FB6F894DEBF0FBE01
:100FB000CDBFDF91CF911F910F91FF90EF900895DA
:100FC000CE010D9655D16CCFCE010D9651D148CFA3
:100FD0001F920F920FB60F9211240BB60F922F9300
:100FE0003F934F935F936F937F938F939F93AF93B1
:100FF000BF93EF93FF9380914904811101C0A6D064
:10100000FF91EF91BF91AF919F918F917F916F91E0
:101010005F914F913F912F910F900BBE0F900FBE9C
:101020000F901F9018958BE593E0FED921E0892B56
:1010300009F420E0822F08951F920F920FB60F92AD
:1010400011240BB60F922F933F934F935F936F939F
:101050007F938F939F93AF93BF93EF93FF938BE512
:1010600093E089DBFF91EF91BF91AF919F918F91B9
:101070007F916F915F914F913F912F910F900BBE98
:101080000F900FBE0F901F9018951F920F920FB6E2
:101090000F9211240BB60F922F938F939F93EF9380
:1010A000FF93E0916B03F0916C038081E0917103F9
:1010B000F091720382FD12C09081809174038F5F62
:1010C0008F7320917503821751F0E0917403F0E063
:1010D000E55AFC4F958F8093740301C08081FF9186
:1010E000EF919F918F912F910F900BBE0F900FBE9C
:1010F0000F901F901895CF92DF92EF92FF920F936F
:101100001F93CF93DF936C017A018B01C0E0D0E095
:10111000CE15DF0589F0D8016D918D01D601ED91D5
:10112000FC910190F081E02DC6011995892B11F4F5
:101130007E0102C02196ECCFC701DF91CF911F91B4
:101140000F91FF90EF90DF90CF90089580914A0427
:1011500090914B04009781F0DC01ED91FC910084AB
:10116000F185E02D1995892B11F480E00895809187
:101170004A0490914B0411C080914C0490914D040D
:10118000DC01ED91FC910084F185E02D1995892B0E
:1011900061F380914C0490914D04DC01ED91FC9140
:1011A0000284F385E02D19958A3031F520917C0574
:1011B00030917D0590917E05F901E90FF11D1082B6
:1011C000B5E024303B0739F44CE854E050937D05FA
:1011D00040937C0508C024E035E030937D052093E2
:1011E0007C052CE834E03093F9032093F803109247
:1011F0007E0591E09093FA03E0917C05F0917D05E6
:1012000090917E0521E0290F20937E05E90FF11DC5
:10121000808390917E05983718F097E790937E052C
:1012200008950F931F93CF93DF93EC0188819981E9
:10123000009729F02A813B812617370788F48B0114
:101240006F5F7F4F0E94481B009761F099838883EE
:101250001B830A832C813D81232B11F4FC01108216
:1012600081E001C080E0DF91CF911F910F9108953F
:10127000CF93DF93EC0188819981009711F00E9450
:10128000B01A198218821D821C821B821A82DF9179
:10129000CF910895EF92FF920F931F93CF93DF9317
:1012A000EC017B018A01BA01BCDF811103C0CE01D0
:1012B000DFDF07C01D830C83B701888199810E94FD
:1012C000441CCE01DF91CF911F910F91FF90EF90C1
:1012D0000895CF93DF93EC01FB018617970751F038
:1012E000608171816115710521F044815581D2DFE2
:1012F00001C0BEDFCE01DF91CF910895EF92FF9242
:101300000F931F93CF93DF93CDB7DEB7A1970FB69F
:10131000F894DEBF0FBECDBF7C01CB01BA01F7014F
:1013200011821082138212821582148242E0420FCF
:101330008E010F5F1F4F0E949B12009761F0FC010E
:1013400001900020E9F73197AF01481B590BBC0110
:10135000C701A0DF02C0C7018BDFA1960FB6F894CA
:10136000DEBF0FBECDBFDF91CF911F910F91FF90D8
:10137000EF900895DC01ED91FC910190F081E02D5A
:1013800019946115710579F0FB0101900020E9F7CE
:101390003197AF01461B570BDC01ED91FC910280A8
:1013A000F381E02D199480E090E008958F929F9250
:1013B000AF92BF920F931F93CF93DF93CDB7DEB75A
:1013C000A1970FB6F894DEBF0FBECDBF19A2423071
:1013D00008F44AE08E010F5D1F4F842E912CA12C42
:1013E000B12CA50194010E94C119E62FB901CA01CF
:1013F00001501109EA3014F4E05D01C0E95CD80144
:10140000EC93232B242B252B61F7B8018BE593E07C
:10141000B8DFA1960FB6F894DEBF0FBECDBFDF9147
:10142000CF911F910F91BF90AF909F908F90089593
:101430008F929F92AF92BF92CF92DF92EF92FF92E4
:10144000CF93DF936B017C019B01AC010E949B1940
:10145000882319F060E073E027C046015701E89443
:10146000B7F82FEF3FEF4FE75FE7C501B4010E94E8
:101470009B1981110DC02FEF3FEF4FE75FE7C501CB
:10148000B4010E94081718161CF464E073E00CC045
:101490002FEF3FEF4FE75FE4C701B6010E949719B6
:1014A00018167CF468E073E08BE593E0DF91CF9150
:1014B000FF90EF90DF90CF90BF90AF909F908F9074
:1014C00060CF2FEF3FEF4FE75FECC701B6010E94FF
:1014D000081787FDE7CF20E030E0A901C701B6017A
:1014E0000E94081787FF0AC06DE28BE593E042DF98
:1014F000EC01F7FAF094F7F8F09402C0C0E0D0E005
:101500002AE037ED43EA5BE3C701B6010E943E18CB
:101510004B015C010E940F196B017C010E940C17AA
:101520009B01AC01C501B4010E943D184B015C0157
:101530004AE0C701B6013ADFC80FD91F6EE28BE55A
:1015400093E018DFC80FD91F20E030E040E251E4FB
:10155000C501B4010E946D174B015C010E940F1977
:101560006B01E12CF12C4AE0C701B6011FDFC80F67
:10157000D91FC701B6010E940C179B01AC01C50120
:10158000B4010E943D1820E030E040E251E40E94A6
:101590006D170E940F1980E090E04AE007DF8C0F82
:1015A0009D1FDF91CF91FF90EF90DF90CF90BF9084
:1015B000AF909F908F9008950F931F93CF93DF93D9
:1015C000EC01DFDE8C016FE772E0CE01DADE800F26
:1015D000911FDF91CF911F910F910895CF93DF93CA
:1015E000CAE0D2E0D0934F04C0934E048EE494E05E
:1015F000A6D8D0936E04C0936D048DE694E0DF917D
:10160000CF919DC8CF93DF93CDB7DEB72A970FB6A2
:10161000F894DEBF0FBECDBF789484B5826084BDE0
:1016200084B5816084BD85B5826085BD85B58160E6
:1016300085BD80916E00816080936E001092810064
:10164000809181008260809381008091810081601F
:1016500080938100809180008160809380008091E0
:10166000B10084608093B1008091B000816080936C
:10167000B0008091910082608093910080919100F0
:1016800081608093910080919000816080939000B0
:101690008091A10082608093A1008091A10081606F
:1016A0008093A1008091A00081608093A000809130
:1016B00021018260809321018091210181608093CA
:1016C00021018091200181608093200180917A0026
:1016D000846080937A0080917A00826080937A009F
:1016E00080917A00816080937A0080917A0080688E
:1016F00080937A001092C10040E05BE460E070E00B
:101700008DE694E04ED9E0916B03F0916C0302E01A
:101710000083E0916703F09168031082E091690310
:10172000F0916A0387E6808310927303E0916F0360
:10173000F091700316E01083E0916D03F0916E0359
:10174000808180618083E0916D03F0916E038081E0
:1017500088608083E0916D03F0916E0380818068E2
:101760008083E0916D03F0916E0380818F7D808393
:1017700064EF71E080E090E086D862E872E08BE58B
:1017800093E01ADF80914A0490914B04009731F066
:1017900040E855E260E070E004D927C0E0914C04D5
:1017A000F0914D04A089B1890C93A485B5851C9254
:1017B000A685B7858FEC8C93108EA489B5891C9370
:1017C000A289B3898C9180618C93A289B3898C9111
:1017D00088608C93A289B3898C9180688C930288ED
:1017E000F389E02D80818F7D80836AE070E080E066
:1017F00090E049D880914A0490914B0463E972E0EB
:10180000009721F480914C0490914D04D5DE809195
:101810004A0490914B0465EC72E0009721F48091AA
:101820004C0490914D04C8DE8FEA87BD80916E0014
:10183000826080936E0081E080935A0368EE73E0CB
:1018400080E090E020D866ED72E08EE494E0B4DEB3
:1018500062EE72E08BE593E0AFDEA7DA84E6C82E95
:10186000D12CE12CF12C94E6392E80915A03811170
:1018700005C080914904811101C068DC2090FA0301
:10188000211019C08090FB039090FC03A090FD03F1
:10189000B090FE0330D8681579058A059B0508F0DD
:1018A0001CC529D86093FB037093FC038093FD0350
:1018B0009093FE0312C51092FA030091F803109161
:1018C000F903F80101900020E9F731979F01201BEF
:1018D000310BA90144505109F801E40FF51F808133
:1018E0008A32E1F5200F311FF9013397808180336F
:1018F00054F08A3314F4805307C09FEB980F96304E
:1019000010F4875301C080E060E1869FC00111247C
:10191000F90132972081203354F02A3314F42053F4
:1019200007C03FEB320F363010F4275301C020E0E0
:10193000820F911D62E0262F30E02417350758F4FE
:10194000F801E20FF31F2081022E000C330B8227D7
:1019500093276F5FF0CF892B09F058C562EF72E0D3
:10196000C8010E945A1C892B09F460C26CE270E025
:10197000C8010E94391C8C010F5F1F4FC801FAD5A6
:101980004B015C010E940F192B013C0120E137E261
:1019900040E050E00E94C1192093FF03A701960187
:1019A0000E94C11920930004C301B201A70196014E
:1019B0000E94C1196093010420E030E040E85FE339
:1019C000C501B4010E94421920E030E04AE754E426
:1019D0000E946D170E940F1970930604609305040E
:1019E0006CE270E0C8010E94391C5C018C010F5F41
:1019F0001F4FFC0181818C3209F4A6C042E050E007
:101A0000B801CE0101960E944B1C1B82CE010196AB
:101A1000D1D59B01AC0160E876E988E990E00E94AD
:101A20009F192B013C01B5016D5F7F4F42E050E0F3
:101A3000CE0101960E944B1C0B5F1F4F44E050E00B
:101A4000B801CE0103960E944B1C1F82CE01019665
:101A5000B1D59B01AC01A2E3B0E00E94241823E0C1
:101A600030E040E050E00E94E31949015A01D301FF
:101A7000C201820F931FA41FB51F80930F04909380
:101A80001004A0931104B0931204C301B20120EA20
:101A900036E841E050E00E94E319CA01B9010E9412
:101AA0000E172B013C01C501B4010E940E172CE951
:101AB00033E549EC56E30E946D179B01AC01C3016D
:101AC000B2010E943E182B013C0160930704709301
:101AD00008048093090490930A0420E030E048EC65
:101AE00052E40E94A2180E940A194B015C01389C22
:101AF000B001399C700D1124072E000C880B990B36
:101B00000E940E179B01AC01C301B2010E943D1857
:101B100020E030E040E752E40E94A2182B013C0193
:101B2000B401990C880B990B0E940E179B01AC0114
:101B3000C301B2010E943E18609317047093180409
:101B40008093190490931A046CE270E0C8010E941B
:101B5000391CFC019C012F5F3F4F81818C3201F1C8
:101B6000833589F48091170490911804A091190489
:101B7000B0911A04B0588093170490931804A0935E
:101B80001904B0931A0491819E3411F0933519F41D
:101B90009093370405C09C3209F038C41092370482
:101BA0006CE270E0C9010E94391C5C018C010F5F7E
:101BB0001F4FFC0181818C3209F4A6C043E050E044
:101BC000B801CE0101960E944B1C1C82CE010196E9
:101BD000F1D49B01AC0160E876E988E990E00E94CD
:101BE0009F192B013C01B5016C5F7F4F42E050E033
:101BF000CE0101960E944B1C0A5F1F4F44E050E04B
:101C0000B801CE0103960E944B1C1F82CE010196A3
:101C1000D1D49B01AC01A2E3B0E00E94241823E0E0
:101C200030E040E050E00E94E31949015A01D3013D
:101C3000C201820F931FA41FB51F809313049093BA
:101C40001404A0931504B0931604C301B20120EA52
:101C500036E841E050E00E94E319CA01B9010E9450
:101C60000E172B013C01C501B4010E940E172CE98F
:101C700033E549EC56E30E946D179B01AC01C301AB
:101C8000B2010E943E182B013C0160930B0470933B
:101C90000C0480930D0490930E0420E030E048EC97
:101CA00052E40E94A2180E940A194B015C01389C60
:101CB000B001399C700D1124072E000C880B990B74
:101CC0000E940E179B01AC01C301B2010E943D1896
:101CD00020E030E040E752E40E94A2182B013C01D2
:101CE000B401990C880B990B0E940E179B01AC0153
:101CF000C301B2010E943E1860931B0470931C0440
:101D000080931D0490931E046CE270E0C8010E9451
:101D1000391CFC019C012F5F3F4F81818C3201F106
:101D2000873589F480911B0490911C04A0911D04B7
:101D3000B0911E04B05880931B0490931C04A09390
:101D40001D04B0931E049181973511F0953419F458
:101D50009093380405C09C3209F058C3109238049F
:101D60006CE270E0C9010E94391C8C010F5F1F4FAB
:101D7000FC0181818C3221F0C801FFD380933B04A8
:101D80006CE270E0C8010E94391C8C010F5F1F4F8C
:101D9000FC0181818C3221F0C801EFD380933C0497
:101DA0006CE270E0C8010E94391C8C010F5F1F4F6C
:101DB000FC0181818C3251F0C801DCD36093330483
:101DC0007093340480933504909336046CE270E091
:101DD000C8010E94391C8C010F5F1F4FFC018181DB
:101DE0008C3251F0C801C6D360932304709324044D
:101DF00080932504909326046CE270E0C8010E9451
:101E0000391C6CE270E001960E94391CFC012181B2
:101E10002C3209F45FC20196ADD360931F04709316
:101E20002004809321049093220454C269EF72E04D
:101E3000C8010E945A1C892B09F4E8C26CE270E0C8
:101E4000C8010E94391C8C010F5F1F4FC80192D33B
:101E50004B015C010E940F192B013C0120E137E28C
:101E600040E050E00E94C1192093FF03A7019601B2
:101E70000E94C11920930004C301B201A701960179
:101E80000E94C1196093010420E030E040E85FE364
:101E9000C501B4010E94421920E030E04AE754E451
:101EA0000E946D170E940F19709306046093050439
:101EB0006CE270E0C8010E94391CFC0121812134D0
:101EC00021F4F1E0F0933A0405C0263509F09EC2F2
:101ED00010923A046CE270E001960E94391C5C0199
:101EE0008C010F5F1F4FFC0181818C3209F4A1C06E
:101EF00042E050E0B801CE0101960E944B1C1B82CB
:101F0000CE01019657D39B01AC0160E876E988E9E0
:101F100090E00E949F192B013C01B5016D5F7F4F3E
:101F200042E050E0CE0101960E944B1C0B5F1F4F18
:101F300044E050E0B801CE0103960E944B1C1F8282
:101F4000CE01019637D39B01AC01A2E3B0E00E9421
:101F5000241823E030E040E050E00E94E3194901FA
:101F60005A01D301C201820F931FA41FB51F809392
:101F70000F0490931004A0931104B0931204C301B2
:101F8000B20120EA36E841E050E00E94E319CA01BC
:101F9000B90144D72B013C01C501B4013FD72CE95D
:101FA00033E549EC56E399D79B01AC01C301B2017B
:101FB0000E943E182B013C016093070470930804B3
:101FC0008093090490930A0420E030E048EC52E446
:101FD0000E94A2180E940A194B015C01389CB001B2
:101FE000399C700D1124072E000C880B990B16D705
:101FF0009B01AC01C301B2010E943D1820E030E01A
:1020000040E752E40E94A2182B013C01B401990C54
:10201000880B990B03D79B01AC01C301B2010E944D
:102020003E186093170470931804809319049093DA
:102030001A046CE270E0C8010E94391CFC019C018A
:102040002F5F3F4F81818C3201F1833589F480917C
:10205000170490911804A0911904B0911A04B05873
:102060008093170490931804A0931904B0931A0452
:1020700091819E3411F0933519F49093370405C083
:102080009C3209F0C3C1109237046CE270E0C901C0
:102090000E94391C5C018C010F5F1F4FFC01818184
:1020A0008C3209F49BC043E050E0B801CE010196A8
:1020B0000E944B1C1C82CE0101967CD29B01AC017C
:1020C00060E876E988E990E00E949F192B013C01C5
:1020D000B5016C5F7F4F42E050E0CE0101960E9457
:1020E0004B1C0A5F1F4F44E050E0B801CE0103963D
:1020F0000E944B1C1F82CE0101965CD29B01AC0159
:10210000A2E3B0E0A1D723E030E040E050E00E943D
:10211000E31949015A01D301C201820F931FA41F81
:10212000B51F8093130490931404A0931504B093E7
:102130001604C301B20120EA36E841E050E00E94F3
:10214000E319CA01B9016AD62B013C01C501B401EA
:1021500065D62CE933E549EC56E3BFD69B01AC01CB
:10216000C301B2018BD72B013C0160930B04709328
:102170000C0480930D0490930E0420E030E048ECB2
:1021800052E4E0D70E940A194B015C01389CB0016F
:10219000399C700D1124072E000C880B990B3ED62C
:1021A0009B01AC01C301B20168D720E030E040E7F9
:1021B00052E4C8D72B013C01B401990C880B990B50
:1021C0002DD69B01AC01C301B20158D760931B040B
:1021D00070931C0480931D0490931E046CE270E0C5
:1021E000C8010E94391CFC019C012F5F3F4F818177
:1021F0008C3201F1873589F480911B0490911C0485
:10220000A0911D04B0911E04B05880931B049093BC
:102210001C04A0931D04B0931E049181973511F006
:10222000953419F49093380405C09C3209F0EEC03F
:10223000109238046CE270E0C9010E94391C8C01D4
:102240000F5F1F4FFC0181818C3251F0C80192D188
:1022500060932704709328048093290490932A04A0
:102260006CE270E0C8010E94391C8C010F5F1F4FA7
:10227000FC0181818C3251F0C8017CD160932B0428
:1022800070932C0480932D0490932E046CE270E0E4
:10229000C8010E94391CFC0121812C32D9F0019621
:1022A00069D1BDD74B015C0120E137E240E050E04D
:1022B0000E94C11920930404A70196010E94C1192C
:1022C00020930304C501B401A70196010E94C1191E
:1022D000609302042110D6CA99C00E947B04009129
:1022E000FB031091FC032091FD033091FE03DC0100
:1022F000CB01801B910BA20BB30B81319742A1053F
:10230000B10508F474C060910704709108048091CD
:10231000090490910A048CD869E08BE593E02AD8EF
:1023200060910B0470910C0480910D0490910E0447
:102330007FD869E08BE593E01DD860911704709118
:1023400018048091190490911A0472D869E08BE501
:1023500093E010D860911B0470911C0480911D04BF
:1023600090911E0465D869E08BE593E003D86091F5
:10237000230470912404809125049091260458D858
:1023800069E08BE593E00E94BA0960912B0470919B
:102390002C0480912D0490912E044AD869E08BE59D
:1023A00093E00E94BA096091040470E080E090E03C
:1023B0004AE00E94D60969E08BE593E00E94BA09E1
:1023C0006091030470E080E090E04AE00E94D6094A
:1023D00069E08BE593E00E94BA096091020470E025
:1023E00080E090E04AE00E94D6090E94D5068DE682
:1023F00094E00E946703892B49F08DE694E00E94E7
:102400007E03682F8BE593E00E94DC030E9420028C
:102410002CCAEBE5F3E01382128288EE93E0A0E091
:10242000B0E084839583A683B7838CE192E09183A7
:10243000808385EC90E09587848784EC90E0978793
:10244000868780EC90E0918B808B81EC90E0938B81
:10245000828B82EC90E0958B848B86EC90E0978B5E
:10246000868B118E128E138E148E20E048E067E06A
:102470008DE694E00E94A80520E042E063E08EE44F
:1024800094E00E94A805EFEFF3E010924D04109243
:102490004C041092FA031092490410927E0584E0D5
:1024A00095E090937D0580937C058CE894E0909373
:1024B000F9038093F80310923C0414AE1582148241
:1024C000138212821182108212AE11AE10AE13AEC0
:1024D0001782168214AA15AA16AA17AA10AA11AA58
:1024E00012AA13AA14A615A616A617A610A611A618
:1024F00012A613A614A215A216A217A210A211A228
:1025000012A213A2148615861686178610861186C7
:10251000128613868EE494E090934B0480934A04D1
:102520000E947B046093FB037093FC038093FD0384
:102530009093FE030895EF920F931F93CF93DF9331
:10254000E80147FD02C034E001C034E1E42F440F4C
:10255000FF0BF7FF03C0F195E195F109E32E022F80
:102560002E2FAE016AD0CE01DF91CF911F910F9136
:10257000EF90089566277727EDC1FC0188279927FA
:10258000E89421912032E9F3293010F02E30C8F37D
:102590002B3239F02D3231F4689403C046D0820FCB
:1025A000911D219120532A30C8F31EF490958195F6
:1025B0009F4F08951F93FC0199278827BC01E89439
:1025C00011911032E9F3193010F01E30C8F31B32AC
:1025D00049F01D3241F4689405C012D0610F711D9D
:1025E000811D911D119110531A30B8F33EF490954E
:1025F0008095709561957F4F8F4F9F4F1F910895E4
:10260000592F482F372F262F660F771F881F991FA6
:10261000660F771F881F991F620F731F841F951FF6
:10262000660F771F881F991F08957AE0979F902D56
:10263000879F802D910D112408954F925F926F9284
:102640007F929F92AF92BF92CF92DF92EF92FF92D2
:102650000F931F93CF93DF93CDB7DEB729970FB6B4
:10266000F894DEBF0FBECDBF6A01122FB02E2BE350
:10267000201720F0FF24F394F00E02C0BCE3FB2EE1
:102680000F2D27E0AE014F5F5F4FCAD2AC018981A9
:10269000982F9970913031F0E1FC06C0E0FE06C041
:1026A00090E205C09DE203C09BE201C090E0EE2DE8
:1026B000E07183FF3CC0911102C083E001C084E05F
:1026C000811718F4212F281B01C020E0E1110BC055
:1026D000F601822F30E2882319F031938150FBCF2D
:1026E000C20ED11C20E0992329F0D6019C93F6015B
:1026F00031966F01C6010396E2FE0AC03EE4D601A0
:102700003C9341E411964C93119712963C9306C06A
:102710003EE6F601308341E641833283FC01322FED
:1027200040E2332309F442C041933150FACF82FF93
:1027300044C0911102C083E001C084E0811718F405
:10274000212F281B01C020E0E1110BC0F601822FD0
:1027500030E2882319F031938150FBCFC20ED11C97
:1027600020E0992329F0D6019C93F60131966F0160
:10277000C6010396E2FE0BC039E4D6013C933EE469
:1027800011963C93119736E412963C9307C039E6B4
:10279000F60130833EE6318336E63283FC01322F88
:1027A00040E2332319F041933150FBCFFC01E20F9B
:1027B000F11D10828EEF9FEFB7C0F1E0911101C0C3
:1027C000F0E06F2F70E01416150624F49A012F5FC5
:1027D0003F4F02C021E030E0260F371FBB2029F019
:1027E0006B2D70E06F5F7F4F02C060E070E0260FDE
:1027F000371F612F70E0261737071CF4121B212F9B
:1028000001C020E03E2D387159F4D601322F60E22C
:10281000332319F06D933150FBCFC20ED11C20E051
:10282000FF2331F0D6019C93B6016F5F7F4F6B01A0
:10283000E1110BC0F601922F30E3992319F0319387
:102840009150FBCFC20ED11C20E09F2D940F3A81F6
:10285000782F7071A72E84FF03C0313309F4915093
:10286000191624F4993018F098E001C091E0E42F93
:10287000852F57FF02C0E0E080E06E2F782FE0E068
:10288000F0E0AEE29A2E3A01691A71082A01461A5E
:10289000570A0B2D10E01195019511096F3F8FEF2D
:1028A000780729F4D6019C92C60101966C0146175F
:1028B000570784F0661677066CF47F01E40CF51C6C
:1028C000A1E0B0E0AC0FBD1FEA0EFB1ED7011196D0
:1028D000BC9002C090E3B92E615071093196C601D7
:1028E00001967C016017710724F0D601BC926C013F
:1028F000D5CF6417750741F4363320F4353321F40E
:10290000A11002C081E3B82EF601B082F701822F38
:1029100090E2882319F091938150FBCFF701E20FE9
:10292000F11D108280E090E029960FB6F894DEBF8A
:102930000FBECDBFDF91CF911F910F91FF90EF9010
:10294000DF90CF90BF90AF909F907F906F905F90FF
:102950004F9008956F927F928F929F92AF92BF9205
:10296000CF92DF92EF92FF920F931F93CF93DF935B
:10297000EC017B016115710519F0DB018D939C93CE
:102980008E010F5F1F4F7880872D90E021D2892B19
:1029900011F0E801F5CFBDE27B1205C00F5F1F4FBC
:1029A0007980C1E008C0EBE27E1204C08E010E5FA8
:1029B0001F4F7980C0E06801F1E0CF1AD10843E0F1
:1029C00050E060E171E0C6010BD2892BE9F46801A7
:1029D00022E0C20ED11C45E050E06BE071E0C60180
:1029E000FFD1892B21F4680187E0C80ED11CE114C6
:1029F000F10419F0D701CD92DC92C111F9C060E069
:102A000070E080E89FE7FDC043E050E068E071E0DF
:102A1000C601E6D1892B51F4E114F10409F4EDC0AB
:102A20000E5F1F4FF70111830083E7C0680160E06C
:102A300070E0CB0100E010E0F601D0EDD70DDA3008
:102A400050F52C2F2260622E2C2F2870C2FF05C05B
:102A5000211127C00F5F1F4F24C0222311F0015006
:102A60001109A5E0B0E09B01AC01EED24B015C0185
:102A7000880C991CAA1CBB1CC501B4016D0F711DEB
:102A8000811D911D6839A9E97A078A07A9E19A078A
:102A900040F0C66005C0DE3F51F4C3FD44C0C860CD
:102AA0006C2EBFEFCB1ADB0A7080C62DC5CF2D2F41
:102AB0002F7D2531C1F540814D3211F4C06106C032
:102AC0004B3221F0319621E030E006C03296D6013B
:102AD00011964C9122E030E0A0EDA40FAA3018F03E
:102AE000E21BF30B20C040E050E04038BCE05B0745
:102AF0005CF49A01220F331F220F331F420F531F22
:102B0000440F551F4A0F511D3196DF0111972C912B
:102B1000A0EDA20FAA3048F3C4FF03C05195419520
:102B20005109040F151FC1FF07C0E114F10421F082
:102B30003197D701ED93FC936FD1C370C33019F077
:102B40006B017C0106C06B017C01F7FAF094F7F889
:102B5000F09420E030E0A901C701B60159D18823E3
:102B600009F443C017FF06C0119501951109C7E28A
:102B7000D1E002C0CFE3D1E05E01B8E1AB1AB10809
:102B80004601BE2DAF2D90E2E92EF12C0E151F054A
:102B90007CF0FE012591359145915491B4018B2F24
:102BA0009A2F9BD14B01B82FA92F0E191F09EECFD9
:102BB0002497F594E794CA15DB0541F76401EB2EE1
:102BC000FA2E8E2D880F8F2D881F8F3F41F020E029
:102BD00030E0A901C701B6011BD1811106C082E214
:102BE00090E09093800580937F05C701B60109C0EE
:102BF00060E070E080E89FEF04C060E070E080EC8F
:102C00009FE7DF91CF911F910F91FF90EF90DF90A1
:102C1000CF90BF90AF909F908F907F906F900895CE
:102C2000283008F027E03327DA01990F311D87FD9E
:102C3000916000966105710539F432602E5F3D9315
:102C400030E32A95E1F708959F3F30F08038710511
:102C5000610509F03C5F3C5F3D93913008F080686E
:102C6000911DDF93CF931F930F93FF92EF92192F34
:102C7000987F9695E92F96959695E90FFF27E3564D
:102C8000FE4F99273327EE24FF24A701E701059083
:102C90000894079428F4360FE71EF81E491F511DAB
:102CA000660F771F881F991F0694A1F70590079458
:102CB00028F4E70EF81E491F561FC11D770F881F05
:102CC000991F661F0694A1F70590079428F4F80E43
:102CD000491F561FC71FD11D880F991F661F771FD9
:102CE0000694A1F70590079420F4490F561FC71FBB
:102CF000D81F990F661F771F881F0694A9F7849124
:102D00001095177041F0D695C79557954795F7944C
:102D1000E7941A95C1F7E3E4F1E0689415901591F2
:102D200035916591959105907FE27395E118F10ACF
:102D3000430B560BC90BD009C0F7E10CF11E431F22
:102D4000561FC91FD01D7EF4703311F48A95E6CF4B
:102D5000E894015030F0080F0AF40027021708F435
:102D6000202F2395022F7A3328F079E37D932A953B
:102D7000E9F710C07D932A9589F606949795679593
:102D8000379517951794E118F10A430B560BC90BA9
:102D9000D00998F023957E9173957A3308F070E30B
:102DA0007C932013B8F77E9170617D9330F083950A
:102DB00071E37D9370E32A95E1F71124EF90FF9082
:102DC0000F911F91CF91DF91992787FD90950895DD
:102DD0009111E6C0803219F089508550D0F70895DE
:102DE000FB01DC014150504088F08D9181341CF092
:102DF0008B350CF4805E659161341CF06B350CF4FE
:102E0000605E861B611171F3990B0895881BFCCFDE
:102E100040D008F481E00895E89409C097FB3EF49F
:102E200090958095709561957F4F8F4F9F4F992317
:102E3000A9F0F92F96E9BB279395F6958795779595
:102E40006795B795F111F8CFFAF4BB0F11F460FF55
:102E50001BC06F5F7F4F8F4F9F4F16C0882311F0AD
:102E600096E911C0772321F09EE8872F762F05C0C1
:102E7000662371F096E8862F70E060E02AF09A955C
:102E8000660F771F881FDAF7880F9695879597F951
:102E90000895990F0008550FAA0BE0E8FEEF1616EB
:102EA0001706E807F907C0F012161306E407F5073E
:102EB00098F0621B730B840B950B39F40A2661F0B2
:102EC000232B242B252B21F408950A2609F4A14055
:102ED000A6958FEF811D811D08950BD07BC06CD00E
:102EE00028F071D018F0952309F05DC062C011245C
:102EF000A5C081D0A0F3959FD1F3950F50E0551F49
:102F0000629FF001729FBB27F00DB11D639FAA273E
:102F1000F00DB11DAA1F649F6627B00DA11D661F8D
:102F2000829F2227B00DA11D621F739FB00DA11DAE
:102F3000621F839FA00D611D221F749F3327A00D68
:102F4000611D231F849F600D211D822F762F6A2F04
:102F500011249F5750408AF0E1F088234AF0EE0F89
:102F6000FF1FBB1F661F771F881F91505040A9F796
:102F70009E3F510570F017C061C05F3FECF3983E73
:102F8000DCF3869577956795B795F795E7959F5FFD
:102F9000C1F7FE2B880F911D9695879597F9089597
:102FA00099278827089597F99F6780E870E060E087
:102FB00008959FEF80EC089500240A9416161706D2
:102FC00018060906089500240A941216130614061A
:102FD00005060895092E0394000C11F4882352F07D
:102FE000BB0F40F4BF2B11F460FF04C06F5F7F4F35
:102FF0008F4F9F4F089557FD9058440F551F59F01C
:103000005F3F71F04795880F97FB991F61F09F3FD5
:1030100079F087950895121613061406551FF2CFFE
:103020004695F1DF08C0161617061806991FF1CF4E
:1030300086957105610508940895E894BB27662775
:103040007727CB0197F9089509D0A59F900DB49FDC
:10305000900DA49F800D911D11240895A29FB00191
:10306000B39FC001A39F700D811D1124911DB29FBC
:10307000700D811D1124911D08955058BB27AA275A
:103080000ED0A8CF99DF30F09EDF20F031F49F3FC3
:1030900011F41EF48ECF0EF4E095E7FB84CFE92FF8
:1030A000AADF80F3BA17620773078407950718F041
:1030B00071F49EF5C2CF0EF4E0950B2EBA2FA02D21
:1030C0000B01B90190010C01CA01A0011124FF27D5
:1030D000591B99F0593F50F4503E68F11A16F040D0
:1030E000A22F232F342F4427585FF3CF46953795CF
:1030F0002795A795F0405395C9F77EF41F16BA0B94
:10310000620B730B840BBAF09150A1F0FF0FBB1F41
:10311000661F771F881FC2F70EC0BA0F621F731F8A
:10312000841F48F4879577956795B795F7959E3FE7
:1031300008F0B3CF9395880F08F09927EE0F979575
:10314000879508950CD046CF3EDF40F035DF30F054
:1031500021F45F3F19F027CF511170CF2ACF4BDFF9
:1031600098F39923C9F35523B1F3951B550BBB274E
:10317000AA2762177307840738F09F5F5F4F220FFB
:10318000331F441FAA1FA9F333D00E2E3AF0E0E8F4
:1031900030D091505040E695001CCAF729D0FE2F40
:1031A00027D0660F771F881FBB1F261737074807D2
:1031B000AB07B0E809F0BB0B802DBF01FF27935888
:1031C0005F4F2AF09E3F510568F0EDCE37CF5F3F4D
:1031D000ECF3983EDCF3869577956795B795F79570
:1031E0009F5FC9F7880F911D9695879597F9089568
:1031F000E1E0660F771F881FBB1F62177307840704
:10320000BA0720F0621B730B840BBA0BEE1F88F712
:10321000E095089504D06894B11110CF0895F3DEBD
:1032200088F09F5790F0B92F9927B751A0F0D1F0AF
:10323000660F771F881F991F1AF0BA95C9F712C039
:10324000B13081F0FADEB1E00895F7CE672F782F24
:103250008827B85F39F0B93FCCF3869577956795A5
:10326000B395D9F73EF490958095709561957F4F11
:103270008F4F9F4F0895A0DE18F011F0A4DE38F4B0
:1032800098CEDCCEE92FB7DEB0F35523C9F3E7FBC8
:103290006217730784079507A8F199F3E92FFF27B1
:1032A00088232AF03197660F771F881FDAF7952F4A
:1032B0005527442332F091505040220F331F441FB2
:1032C000D2F7BB27E91BF50B621B730B840BB1090B
:1032D000C1F222F4620F731F841FB11D31972AF0CF
:1032E000660F771F881FBB1FEFCF915050405AF0D9
:1032F00041F0882332F0660F771F881F91505040AD
:10330000C1F7939506C08695779567959F5FD9F726
:10331000F8CF9F3F31F0915020F4879577956795CE
:10332000B795880F911D9695879597F90895B1DD0A
:1033300008F48FEF0895ADDD880B990B0895DB013C
:103340008F939F9381DEBF91AF91A29F800D911DBE
:10335000A39F900DB29F900D1124089597FB072E07
:1033600016F4009406D077FD08D051D007FC05D0A4
:103370003EF4909581959F4F0895709561957F4F8C
:103380000895A1E21A2EAA1BBB1BFD010DC0AA1FA6
:10339000BB1FEE1FFF1FA217B307E407F50720F0BE
:1033A000A21BB30BE40BF50B661F771F881F991F39
:1033B0001A9469F760957095809590959B01AC0182
:1033C000BD01CF010895052E97FB16F400940FD090
:1033D00057FD05D0D6DF07FC02D046F408C0509553
:1033E0004095309521953F4F4F4F5F4F08959095F1
:1033F0008095709561957F4F8F4F9F4F0895EE0F89
:10340000FF1F881F8BBF0790F691E02D1994AA1B10
:10341000BB1B51E107C0AA1FBB1FA617B70710F0BF
:10342000A61BB70B881F991F5A95A9F780959095F1
:10343000BC01CD010895CF93DF938230910510F444
:1034400082E090E0E0918305F091840520E030E097
:10345000C0E0D0E0309711F1408151814817590701
:10346000C0F04817590761F482819381209719F0C1
:103470009B838A832BC0909384058093830526C009
:103480002115310519F04217530718F49A01BE01AE
:10349000DF01EF010280F381E02DDCCF2115310542
:1034A00009F1281B390B2430310590F412968D91C7
:1034B0009C9113976115710521F0FB019383828321
:1034C00004C09093840580938305FD01329644C027
:1034D000FD01E20FF31F81939193225031092D9347
:1034E0003C933AC02091810530918205232B41F411
:1034F00020910202309103023093820520938105CE
:1035000020910002309101022115310541F42DB7BF
:103510003EB74091040250910502241B350BE09107
:103520008105F0918205E217F307A0F42E1B3F0BF3
:103530002817390778F0AC014E5F5F4F2417350725
:1035400048F04E0F5F1F5093820540938105819391
:10355000919302C0E0E0F0E0CF01DF91CF910895B8
:103560000F931F93CF93DF93009709F48CC0FC0156
:103570003297138212820091830510918405011500
:10358000110581F420813181820F931F20918105E3
:10359000309182052817390779F5F0938205E09379
:1035A000810571C0D80140E050E0AE17BF0750F46C
:1035B00012962D913C911397AD012115310509F11A
:1035C000D901F3CF9D01DA013383228360817181B8
:1035D000860F971F8217930769F4EC0128813981C0
:1035E000260F371F2E5F3F4F318320838A819B81B7
:1035F00093838283452B29F4F0938405E09383051C
:1036000042C01396FC93EE931297ED0149915991A4
:103610009E01240F351FE217F30771F48081918119
:10362000840F951F029611969C938E9382819381AD
:1036300013969C938E931297E0E0F0E0D8011296D7
:103640008D919C911397009719F0F8018C01F6CF9A
:103650008D919C9198012E5F3F4F820F931F209177
:103660008105309182052817390769F4309729F4CC
:10367000109284051092830502C013821282109367
:10368000820500938105DF91CF911F910F910895DD
:103690006F927F928F929F92AF92BF92CF92DF9262
:1036A000EF92FF920F931F93CF93DF93EC0100975C
:1036B00081F4CB01DF91CF911F910F91FF90EF909B
:1036C000DF90CF90BF90AF909F908F907F906F9042
:1036D000B2CEFC01E60FF71F9C0122503109E21720
:1036E000F30708F4A8C0D9010D911C911197061792
:1036F0001707A8F00530110508F49BC0C80104970E
:103700008617970708F495C002501109061B170B7E
:10371000019311936D937C93CF0122DF8AC05B01EB
:10372000A01AB10A4C01800E911EA0918305B091A0
:10373000840540E050E0E12CF12C109709F44AC0D8
:10374000A815B905D1F56D907C901197630182E0C1
:10375000C80ED11CCA14DB0480F1A3014A195B090D
:103760006A0182E0C80ED11C1296BC901297139683
:10377000AC91B5E0CB16D10440F0B282A383518363
:103780004083D9016D937C930AC00E5F1F4FC30124
:10379000800F911FF90191838083EB2DFA2FE114A3
:1037A000F10431F0D7011396FC93EE93129741C0C8
:1037B000F0938405E09383053CC08D919C91119713
:1037C0004817590708F4AC017D0112960D90BC9181
:1037D000A02DB3CF80918105909182058815990520
:1037E000E1F446175707C8F4809100029091010256
:1037F000009741F48DB79EB74091040250910502A5
:10380000841B950BE817F907B0F4F0938205E09359
:103810008105F901718360830CC0CB010CDE7C0152
:10382000009749F0A801BE011BD0CE0199DEC70167
:1038300004C0CE0102C080E090E0DF91CF911F91E3
:103840000F91FF90EF90DF90CF90BF90AF909F903F
:103850008F907F906F90089581E090E0F89444C03D
:10386000FB01DC0102C001900D9241505040D8F79D
:103870000895FC018191861721F08823D9F79927B3
:1038800008953197CF010895FB01DC0101900D925D
:103890000020E1F70895FB01DC014150504048F061
:1038A00001900D920020C9F701C01D924150504077
:1038B000E0F70895FB0151915523A9F0BF01DC0108
:1038C0004D9145174111E1F759F4CD0101900020C8
:1038D00049F04D9140154111C9F3FB014111EFCF62
:1038E00081E090E00197089511E0C0EBD1E000E0A5
:1038F00005C0802FFE0183DD2196011DC13BD1074C
:0A39000080E00807B1F7F894FFCF4C
:10390A000000850580000000000013037B08B60351
:10391A00120367037E03FA0200000000DC037B083F
:10392A00E30122041402F201060200000000B903B6
:10393A007B08B603B503B903B903B9030000000055
:10394A00B9037B08B603B5032C00312E3233343564
:10395A002C20312E323334350041542B434D474607
:10396A003D310D004154202B20434D4753203D202B
:10397A0022002B3136343735323837323939000D97
:10398A000A004750525320494E495449414C495A1A
:10399A0045440024504D544B3331342C302C312CB7
:1039AA00302C312C302C302C302C302C302C302C2C
:1039BA00302C302C302C302C302C302C302C302C1D
:1039CA00302A32380024504D544B3232302C3130A8
:1039DA0030302A31460024504D544B3630352A3384
:1039EA00310047505320494E495449414C495A45A0
:1039FA00440024475047474100244750524D430052
:0C3A0A006E616E00696E66006F766600EB
:020000023000CC
:10E000000D9489F10D94B2F10D94B2F10D94B2F129
:10E010000D94B2F10D94B2F10D94B2F10D94B2F1F0
:10E020000D94B2F10D94B2F10D94B2F10D94B2F1E0
:10E030000D94B2F10D94B2F10D94B2F10D94B2F1D0
:10E040000D94B2F10D94B2F10D94B2F10D94B2F1C0
:10E050000D94B2F10D94B2F10D94B2F10D94B2F1B0
:10E060000D94B2F10D94B2F10D94B2F10D94B2F1A0
:10E070000D94B2F10D94B2F10D94B2F10D94B2F190
:10E080000D94B2F10D94B2F10D94B2F10D94B2F180
:10E090000D94B2F10D94B2F10D94B2F10D94B2F170
:10E0A0000D94B2F10D94B2F10D94B2F10D94B2F160
:10E0B0000D94B2F10D94B2F10D94B2F10D94B2F150
:10E0C0000D94B2F10D94B2F10D94B2F10D94B2F140
:10E0D0000D94B2F10D94B2F10D94B2F10D94B2F130
:10E0E0000D94B2F141546D656761323536300041AF
:10E0F000726475696E6F206578706C6F72657220DE
:10E1000073746B3530305632206279204D4C530099
:10E11000426F6F746C6F616465723E004875683F52
:10E1200000436F6D70696C6564206F6E203D200048
:10E130004350552054797065202020203D20005FF9
:10E140005F4156525F415243485F5F3D2000415658
:10E1500052204C696243205665723D20004743437C
:10E160002056657273696F6E203D20004350552024
:10E1700049442020202020203D20004C6F7720663D
:10E18000757365202020203D20004869676820665F
:10E190007573652020203D200045787420667573D6
:10E1A00065202020203D20004C6F636B2066757336
:10E1B000652020203D20004D617220203720323024
:10E1C000313300312E362E3800342E332E350056A2
:10E1D00023202020414444522020206F7020636F70
:10E1E00064652020202020696E73747275637469E1
:10E1F0006F6E2061646472202020496E74657272B3
:10E20000757074006E6F20766563746F7200726A49
:10E210006D702020006A6D70200057686174207056
:10E220006F72743A00506F7274206E6F7420737541
:10E2300070706F72746564004D7573742062652030
:10E2400061206C6574746572002000577269747483
:10E25000696E672045450052656164696E672045B7
:10E26000450045452065727220636E743D00504F35
:10E27000525400303D5A65726F2061646472003FF1
:10E280003D43505520737461747300403D454550C3
:10E29000524F4D207465737400423D426C696E6B41
:10E2A000204C454400453D44756D70204545505215
:10E2B0004F4D00463D44756D7020464C415348001B
:10E2C000483D48656C70004C3D4C69737420492F83
:10E2D0004F20506F72747300513D51756974005234
:10E2E0003D44756D702052414D00563D73686F7707
:10E2F00020696E7465727275707420566563746FF0
:10E30000727300593D506F727420626C696E6B00BD
:10E310002A0011241FBECFEFD1E2DEBFCDBF01E046
:10E320000CBF12E0A0E0B2E0EEE1FDEF03E00BBFB6
:10E3300002C007900D92A030B107D9F712E0A0E01B
:10E34000B2E001C01D92AE30B107E1F70F9460F367
:10E350000D948DFE01E20EBF0FEF0DBF11241FBE05
:10E360000D9460F30D9400F020E030E040ED57E0B4
:10E3700005C0FA013197F1F72F5F3F4F2817390792
:10E38000C0F308959C01260F311DC901A0E0B0E043
:10E390002F5F3F4FABBFFC018791882361F08093D3
:10E3A000C6008091C00086FFFCCF8091C0008064D1
:10E3B0008093C000EACF08958DE08093C6008091DD
:10E3C000C00086FFFCCF8091C00080648093C000B5
:10E3D0008AE08093C6008091C00086FFFCCF8091C8
:10E3E000C00080648093C00008950F94C2F10F9420
:10E3F000DCF10895FC019081992359F09093C600B7
:10E400008091C00086FFFCCF8091C0008064809323
:10E41000C0003196992379F70895282F982F929567
:10E420009F70892F805D8A3308F0895F8093C600D2
:10E430008091C00086FFFCCF8091C00080648093F3
:10E44000C000822F8F70982F905D9A3308F0995FEB
:10E450009093C6008091C00086FFFCCF8091C000E1
:10E4600080648093C00008959C01FB01853691056E
:10E470001CF46330710594F0C90164E670E00F94F8
:10E480002EFE605D7F4F6093C6008091C00086FFC6
:10E49000FCCF8091C00080648093C0002B30310598
:10E4A00014F43297B4F0C90164E670E00F942EFEC4
:10E4B0006AE070E00F942EFE605D7F4F6093C600AF
:10E4C0008091C00086FFFCCF8091C0008064809363
:10E4D000C000C9016AE070E00F942EFEC0968093E0
:10E4E000C6008091C00086FFFCCF8091C000806490
:10E4F0008093C00008951F93182F8EE692EE60E07F
:10E500000F94C2F11093C6008091C00086FFFCCF2B
:10E510008091C00080648093C0000F94DCF11F9153
:10E5200008952F923F924F925F926F927F928F92B7
:10E530009F92AF92BF92CF92DF92EF92FF920F9392
:10E540001F93DF93CF93CDB7DEB762970FB6F894E2
:10E55000DEBF0FBECDBF382E622ECA01DB015C01CB
:10E560006D01772420E2222E2E010894411C511CBB
:10E570008BC081E0A81680E0B80681E0C80680E084
:10E58000D80628F0C601AA27BB270F940DF2BB2797
:10E59000AD2D9C2D8B2D0F940DF28A2D0F940DF225
:10E5A0002092C6008091C00086FFFCCF8091C00001
:10E5B00080648093C0009DE29093C6008091C0006B
:10E5C00086FFFCCF8091C00080648093C0002092C1
:10E5D000C6008091C00086FFFCCF8091C00080649F
:10E5E0008093C00019828601750188249924A1E0D6
:10E5F0003A1651F03A1620F0B2E03B1661F409C029
:10E600000BBFF701779007C0C7010F9477FE782EF4
:10E6100002C0F7017080872D0F940DF22092C60082
:10E620008091C00086FFFCCF8091C0008064809301
:10E63000C000872D8052F401EF70F0708F3520F408
:10E64000E40DF51D708204C0E40DF51D8EE280839B
:10E650000894E11CF11C011D111D0894811C911CE2
:10E6600090E18916910409F0C2CF80E190E0A0E02A
:10E67000B0E0A80EB91ECA1EDB1E198AC2010F9493
:10E68000FAF10F94DCF16A94662009F072CF629679
:10E690000FB6F894DEBF0FBECDBFCF91DF911F91B3
:10E6A0000F91FF90EF90DF90CF90BF90AF909F9031
:10E6B0008F907F906F905F904F903F902F90089534
:10E6C0002F923F924F925F926F927F928F929F9282
:10E6D000AF92BF92CF92DF92EF92FF920F931F9370
:10E6E000DF93CF93CDB7DEB7CD53D1400FB6F894BB
:10E6F000DEBF0FBECDBF01E20EBF0FEF0DBF94B75F
:10E70000F894A89514BE80916000886180936000A1
:10E7100010926000789493FF05C0E0910002F091A0
:10E7200001021995279A2F9A8091C00082608093E8
:10E73000C00080E18093C40088E18093C1000000A4
:10E74000EE24FF24870144E0A42EB12CCC24DD2448
:10E7500024C0C5010197F1F70894E11CF11C011DCB
:10E76000111D21E2E2162EE4F20620E0020720E06D
:10E77000120718F031E0C32ED12CC801B70127ECE5
:10E780003BE140E050E00F9441FE611571058105C9
:10E79000910519F485B1805885B98091C00087FD35
:10E7A00003C0C114D104A9F2A6014F5F5F4FC25E3E
:10E7B000DE4F59834883CE51D140C25EDE4F8881FF
:10E7C0009981CE51D140019711F00D9410FEC05D9A
:10E7D000DE4F19821882C053D14060E0C15DDE4F28
:10E7E0001882CF52D14088249924C35DDE4F19820C
:10E7F0001882CD52D140C05EDE4F188219821A8233
:10E800001B82C052D140CE5CDE4F188219821A8220
:10E810001B82C253D140EE24FF2487010BBFF701B6
:10E8200007911691C45CDE4F19830883CC53D14005
:10E830000D940BFEC25EDE4F28813981CE51D1404E
:10E840002130310509F52091C600C25EDE4F1982E4
:10E850001882CE51D14022C02F5F3F4F4F4F5F4FA4
:10E86000213082E138078AE7480780E0580780F0C6
:10E87000C45CDE4FE881F981CC53D140EF5FFF4F9C
:10E8800019F0EE27FF27099420E030E040E050E047
:10E890008091C00087FFE0CF2091C600C35DDE4FAE
:10E8A00048815981CD52D1404F5F5F4FC35DDE4FEC
:10E8B00059834883CD52D140213209F063C64A3092
:10E8C000510508F05FC60894811C911C53E0851621
:10E8D000910409F059C600E010E018C081E280936D
:10E8E000C6008091C00086FFFCCF8091C00080648C
:10E8F0008093C0002F5F3F4F2931310579F70F9486
:10E90000DCF10F5F1F4F0530110519F020E030E0FA
:10E91000E5CF10920A0210920B0210920C02109294
:10E920000D02109206021092070210920802109235
:10E930000902109202021092030210920402109235
:10E9400005028FEE90EE60E00F94F5F180E191EE1C
:10E9500060E00F94C2F18091C00087FFFCCF9091DE
:10E96000C600903608F09F759032B8F09093C600BC
:10E970008091C00086FFFCCF8091C00080648093AE
:10E98000C000A0E2A093C6008091C00086FFFCCF2B
:10E990008091C00080648093C000983409F4D7C18E
:10E9A0009934B8F4923409F459C1933458F490333B
:10E9B00019F1903308F4E3C59F33A1F1903409F0C5
:10E9C000DEC5BDC0953409F470C1963409F0D7C5D1
:10E9D00098C1923509F42BC2933538F49C3409F46C
:10E9E000F5C1913509F0CBC518C2963509F445C279
:10E9F000993509F0C4C567C483E792EE62E00F94CD
:10EA0000F5F110920602109207021092080210927D
:10EA1000090210920A0210920B0210920C0210923C
:10EA20000D0213C18FE792EE62E00F94F5F18FEEC5
:10EA300090EE60E00F94F5F181E291EE60E00F94CA
:10EA4000C2F187EB91EE60E00F94F5F180E391EE77
:10EA500060E00F94C2F184EE90EE60E00F94F5F167
:10EA60008FE391EE60E00F94C2F186E090E061E008
:10EA700070E00F9434F20F94DCF18DE591EE60E0DC
:10EA80000F94C2F189EC91EE60E00F94F5F18EE401
:10EA900091EE60E00F94C2F183EC91EE60E00F9490
:10EAA000F5F18CE691EE60E00F94C2F18EE10F94E7
:10EAB0000DF288E90F940DF281E00F940DF20F949E
:10EAC000DCF18BE791EE60E00F94C2F119E0E0E039
:10EAD000F0E010935700E4918E2F0F940DF20F94F5
:10EAE000DCF18AE891EE60E00F94C2F1E3E0F0E03F
:10EAF00010935700E4918E2F0F940DF20F94DCF1D8
:10EB000089E991EE60E00F94C2F1E2E0F0E0109349
:10EB10005700E4918E2F0F940DF20F94DCF188EAE8
:10EB200091EE60E00F94C2F1E1E0F0E01093570045
:10EB30001491812F0F940DF20F94DCF107CF8BE825
:10EB400092EE62E00F94F5F18BE492EE60E00F94A8
:10EB5000F5F10F94DCF100E010E019C0C8016F2D51
:10EB60000F947FFEFF2031F489E492EE60E00F9471
:10EB7000C2F10BC0F092C6008091C00086FFFCCFAE
:10EB80008091C00080648093C0000F5F1F4FC80158
:10EB900081519F41A0E0B0E0ABBFFC01F790BAE229
:10EBA000FB1621F0E2E000301E07C1F60F94DCF105
:10EBB0000F94DCF187E592EE60E00F94F5F10F948D
:10EBC000DCF1CC24DD2400E010E01EC0C8010F946D
:10EBD00077FEF82E882331F489E492EE60E00F94FA
:10EBE000C2F10BC08093C6008091C00086FFFCCFAD
:10EBF0008091C00080648093C000FE1419F00894D6
:10EC0000C11CD11C0F5F1F4FC80181519F41A0E063
:10EC1000B0E0ABBFFC01E790FAE2EF1621F022E092
:10EC20000030120799F60F94DCF10F94DCF182E6C4
:10EC300092EE60E00F94C2F1C60161E070E00F94C3
:10EC400034F20F94DCF10F94DCF110920202109276
:10EC50000302109204021092050278CE89E992EE26
:10EC600062E00F94F5F1279A2F9A16C02F9880E052
:10EC700090E0E0EDF7E03197F1F7019684369105E9
:10EC8000C1F72F9A80E090E0E0EDF7E03197F1F7DF
:10EC9000019684369105C1F78091C00087FFE6CFC9
:10ECA0008091C00087FFFCCF64C485EA92EE62E0E9
:10ECB0000F94F5F140910202509103026091040219
:10ECC0007091050281E020E10F9491F2809102029F
:10ECD00090910302A0910402B091050280509F4FD1
:10ECE000AF4FBF4F8093020290930302A0930402A0
:10ECF000B093050280509041A040B04008F426CE69
:10ED0000A4CF83EB92EE62E00F94F5F140910602FE
:10ED100050910702609108027091090280E020E1A1
:10ED20000F9491F28091060290910702A09108023F
:10ED3000B091090280509F4FAF4FBF4F80930602A2
:10ED400090930702A0930802B0930902FFCD80ECD4
:10ED500092EE62E00F94F5F183E792EE60E00F949B
:10ED6000F5F18FE792EE60E00F94F5F18BE892EE0B
:10ED700060E00F94F5F189E992EE60E00F94F5F10F
:10ED800085EA92EE60E00F94F5F183EB92EE60E09D
:10ED90000F94F5F180EC92EE60E00F94F5F187ECC2
:10EDA00092EE60E00F94F5F188ED92EE60E00F9442
:10EDB000F5F18FED92EE60E00F94F5F18AEE92EEB0
:10EDC00060E00F94F5F183E093EEBDCD87EC92EE19
:10EDD00062E00F94F5F181E40F947BF282E40F94EA
:10EDE0007BF283E40F947BF284E40F947BF285E45E
:10EDF0000F947BF286E40F947BF287E40F947BF20E
:10EE000088E40F947BF28AE40F947BF28BE40F94F6
:10EE10007BF28CE40F947BF299CD88ED92EE62E068
:10EE20000F94F5F1772473948824992409C48FED05
:10EE300092EE62E00F94F5F140910A0250910B02BC
:10EE400060910C0270910D0282E020E10F9491F22A
:10EE500080910A0290910B02A0910C02B0910D02D8
:10EE600080509F4FAF4FBF4F80930A0290930B0289
:10EE7000A0930C02B0930D0269CD8AEE92EE62E08F
:10EE80000F94F5F184EE90EE60E00F94F5F18FECC5
:10EE900091EE60E00F94F5F1662477244301CC5D98
:10EEA000DE4F19821882C452D140D401C301B695F5
:10EEB000A79597958795CA5DDE4F88839983AA8326
:10EEC000BB83C652D140CC5DDE4FA881B981C4520C
:10EED000D1401196CC5DDE4FB983A883C452D14096
:10EEE000CD0162E070E00F9434F2B0E2B093C6005E
:10EEF0008091C00086FFFCCF8091C0008064809329
:10EF0000C000EDE2E093C6008091C00086FFFCCF18
:10EF10008091C00080648093C000F0E2F093C6004E
:10EF20008091C00086FFFCCF8091C00080648093F8
:10EF3000C000CA5DDE4FE880F9800A811B81C6529D
:10EF4000D140BB27A12F902F8F2D0F940DF2CA5DBA
:10EF5000DE4F8881C652D1400F940DF2B0E2FB2EF5
:10EF6000F092C6008091C00086FFFCCF8091C00067
:10EF700080648093C0000DE30093C6008091C000C0
:10EF800086FFFCCF8091C00080648093C00010E2B7
:10EF90001093C6008091C00086FFFCCF8091C00016
:10EFA00080648093C0008BBEF3012791C65DDE4F65
:10EFB0002883CA52D140A22EBB24CC24DD2408943D
:10EFC000611C711C811C911C8BBEF3018791282E42
:10EFD0003324442455240894611C711C811C911C09
:10EFE0008BBEF3013791C55DDE4F3883CB52D140E4
:10EFF0000894611C711C811C911C8BBEF30147910C
:10F00000C45DDE4F4883CC52D140ADEFEA2EAFEF66
:10F01000FA2EAFEF0A2FAFEF1A2F6E0C7F1C801E57
:10F02000911E142D032DF22CEE24EA0CFB1C0C1D5A
:10F030001D1D0F940DF220E22093C6008091C000A8
:10F0400086FFFCCF8091C00080648093C000C65DC5
:10F05000DE4F8881CA52D1400F940DF230E23093D6
:10F06000C6008091C00086FFFCCF8091C000806404
:10F070008093C000C45DDE4F8881CC52D1400F9494
:10F080000DF240E24093C6008091C00086FFFCCFA5
:10F090008091C00080648093C000C55DDE4F888190
:10F0A000CB52D1400F940DF250E25093C6008091A4
:10F0B000C00086FFFCCF8091C00080648093C000B8
:10F0C0008FEFE8168FEFF80680E0080780E018075A
:10F0D00031F484E092EE60E00F94C2F1DFC0D80119
:10F0E000C7018070907CA070B0708050904CA040A0
:10F0F000B040D1F52FEF3FE340E050E0E222F322B1
:10F1000004231523CA5DDE4FA880B980CA80DB8046
:10F11000C652D140AE0CBF1CC01ED11EAA0CBB1CD7
:10F12000CC1CDD1C8EE092EE60E00F94C2F1BB2798
:10F13000A12F902F8F2D0F940DF28E2D0F940DF285
:10F1400030E23093C6008091C00086FFFCCF8091F2
:10F15000C00080648093C0004EE34093C60080915D
:10F16000C00086FFFCCF87C08EE09EEFA0E0B0E03D
:10F17000E822F9220A231B239CE0E91694E9F90608
:10F1800090E0090790E0190709F088C0C45DDE4FE0
:10F19000A881CC52D140EA2EFF2400E010E0102FCD
:10F1A0000F2DFE2CEE24C55DDE4FB881CB52D14031
:10F1B000EB0EF11C011D111DD601C501817090706F
:10F1C000A070B070DC0199278827E80EF91E0A1F8D
:10F1D0001B1F20EF30E040E050E0A222B322C42207
:10F1E000D52241E1AA0CBB1CCC1CDD1C4A95D1F7F1
:10F1F000EA0CFB1C0C1D1D1D81E090E0A0E0B0E0BE
:10F20000282239224A225B2235E1220C331C441C7D
:10F21000551C3A95D1F7E20CF31C041D151D57013E
:10F220006801AA0CBB1CCC1CDD1C85E192EE60E0E1
:10F230000F94C2F1C801AA27BB270F940DF2BB2778
:10F24000A12F902F8F2D0F940DF28E2D0F940DF274
:10F2500090E29093C6008091C00086FFFCCF809121
:10F26000C00080648093C000AEE3A093C60080918C
:10F27000C00086FFFCCF8091C00080648093C000F6
:10F28000C601AA27BB270F940DF2BB27AD2D9C2DDD
:10F290008B2D0F940DF28A2D0F940DF20F94DCF14B
:10F2A000CC5DDE4FE881F981C452D140F99709F471
:10F2B0004DCBF4E0EF2EF12C012D112D6E0C7F1CA7
:10F2C000801E911EF2CD83E093EE62E00F94F5F183
:10F2D0008AE192EE60E00F94C2F18091C00087FF56
:10F2E000FCCF1091C6001F751093C6008091C0001E
:10F2F00086FFFCCF8091C00080648093C0000F9493
:10F30000DCF1812F81548A3108F036C1163409F4BA
:10F3100095C0173490F4133409F44EC0143430F40B
:10F320001134F1F0123409F01DC130C0143409F465
:10F3300059C0153409F016C16BC01A3409F4C4C0A1
:10F340001B3438F4173409F48FC0183409F00AC19B
:10F35000A1C01B3409F4D2C01C3409F003C1E8C0B9
:10F360008FEF81B90DC082B1809582B980E090E0C5
:10F37000E0EDF7E03197F1F70196883C9105C1F790
:10F380008091C00087FFEFCF12B8EFC08FEF84B934
:10F390000DC085B1809585B980E090E0E0EDF7E0A3
:10F3A0003197F1F70196883C9105C1F78091C00033
:10F3B00087FFEFCF15B8D9C08FEF87B90DC088B1DF
:10F3C000809588B980E090E0E0EDF7E03197F1F7C3
:10F3D0000196883C9105C1F78091C00087FFEFCF6F
:10F3E00018B8C3C08FEF8AB90DC08BB180958BB9A7
:10F3F00080E090E0E0EDF7E03197F1F70196883C8E
:10F400009105C1F78091C00087FFEFCF1BB8ADC059
:10F410008FEF8DB90DC08EB180958EB980E090E0F0
:10F42000E0EDF7E03197F1F70196883C9105C1F7DF
:10F430008091C00087FFEFCF1EB897C08FEF80BBD1
:10F440000DC081B3809581BB80E090E0E0EDF7E0F6
:10F450003197F1F70196883C9105C1F78091C00082
:10F4600087FFEFCF11BA81C08FEF83BB0DC084B38C
:10F47000809584BB80E090E0E0EDF7E03197F1F714
:10F480000196883C9105C1F78091C00087FFEFCFBE
:10F4900014BA6BC08FEF809301010FC080910201FD
:10F4A00080958093020180E090E0E0EDF7E03197F5
:10F4B000F1F70196883C9105C1F78091C00087FF64
:10F4C000EDCF1092020151C08FEF809304010FC065
:10F4D0008091050180958093050180E090E0E0ED4A
:10F4E000F7E03197F1F70196883C9105C1F78091DB
:10F4F000C00087FFEDCF1092050137C08FEF8093DA
:10F5000007010FC08091080180958093080180E079
:10F5100090E0E0EDF7E03197F1F70196883C910536
:10F52000C1F78091C00087FFEDCF109208011DC088
:10F530008FEF80930A010FC080910B01809580931B
:10F540000B0180E090E0E0EDF7E03197F1F70196F4
:10F55000883C9105C1F78091C00087FFEDCF1092E4
:10F560000B0103C085E292EEEEC98091C00087FFD7
:10F57000FCCF8091C600EAC988E392EEE4C98CE131
:10F5800091EEE1C988249924933011F1943028F444
:10F59000913089F09230B8F408C0953061F195301F
:10F5A000F0F0963009F048C043C02B3109F042C951
:10F5B00091E06BE13FC96227C15DDE4F2883CF52E6
:10F5C000D14092E037C9B22FA0E0622793E032C960
:10F5D000822F90E0A82BB92B622794E02BC92E3004
:10F5E00009F039C3622795E0C05DDE4F19821882A9
:10F5F000C053D1401FC9E1E0F0E0EC0FFD1FC05D3A
:10F60000DE4F08811981C053D140E00FF11F2083E4
:10F610000F5F1F4FC05DDE4F19830883C053D14079
:10F6200062270A171B0709F005C9D80196E002C92D
:10F63000261709F010C303C0973009F0FBC87724E0
:10F640009981933109F412C19431C8F4963009F4C8
:10F65000D8C0973050F4923009F406C1933009F4C1
:10F660006DC0913009F059C253C0913109F477C08F
:10F67000923108F0BBC0903109F04FC2F5C098310B
:10F6800009F487C0993150F4953109F4EFC09531F0
:10F6900008F4C6C1963109F040C2C2C19A3109F4DA
:10F6A0006CC09A3108F491C09B3109F45BC09D3164
:10F6B00009F033C29D81903359F48F81882311F46E
:10F6C0009EE11CC0813011F091E018C098E916C08D
:10F6D000892F807591F0903539F4E0E0F0E089E011
:10F6E0008093570094910AC0983539F4E3E0F0E034
:10F6F00089E080935700949101C090E01A821B82A8
:10F700008D818C831D829E831F8227E030E009C299
:10F710001A8288E08B8381E48C8386E58D8382E581
:10F720008E8389E48F8383E5888780E589878FE5E9
:10F730008A8782E38B872BE030E0F3C18A818139AD
:10F7400041F0823941F0803911F48FE005C080E04A
:10F7500003C082E001C08AE01A828B8344C0772410
:10F76000739482C08D81882311F48EE12CC0813086
:10F7700011F081E028C088E926C01A82E1E0F0E0BB
:10F7800089E08093570084918B831C8224E030E0D1
:10F79000C8C18B81803589F48C81883039F4E2E0EE
:10F7A000F0E089E08093570084910DC0E0E0F0E044
:10F7B00089E080935700849106C0E3E0F0E089E09F
:10F7C0008093570084911A82DFCF8D81836C99E0FA
:10F7D000E1E0F0E0082E90935700E89507B600FCB2
:10F7E000FDCF1A821B8223E030E09BC180EC8A832C
:10F7F000CE5CDE4F188219821A821B82C253D1401E
:10F800008EC18A8190E0A0E0B0E0582F44273327D2
:10F8100022278B8190E0A0E0B0E0DC0199278827C7
:10F82000282B392B4A2B5B2B8D8190E0A0E0B0E098
:10F83000282B392B4A2B5B2B8C8190E0A0E0B0E089
:10F84000BA2FA92F982F8827282B392B4A2B5B2BCF
:10F85000220F331F441F551FC05EDE4F288339839C
:10F860004A835B83C052D1401A8259C13A81C95C34
:10F87000DE4F3883C753D140CA5CDE4F1882C6536F
:10F88000D1408B81C82EDD24CA5CDE4F488159816E
:10F89000C653D140C42AD52A933109F082C0CE5C28
:10F8A000DE4F88819981AA81BB81C253D1408050AB
:10F8B000904CA340B04030F583E0CE5CDE4FE88052
:10F8C000F9800A811B81C253D140F70100935B008C
:10F8D00080935700E89507B600FCFDCFCE5CDE4F65
:10F8E000088119812A813B81C253D14000501F4FAA
:10F8F0002F4F3F4FCE5CDE4F088319832A833B8313
:10F90000C253D140C05EDE4F488159816A817B81FC
:10F91000C052D140DE011B9631E08C9111962C91A2
:10F9200011971296C75CDE4F2883C953D140C85C3B
:10F93000DE4F1882C853D14090E0C85CDE4FE881AA
:10F94000F981C853D1408E2B9F2B0C01FA01609393
:10F950005B0030935700E89511244E5F5F4F6F4F67
:10F960007F4F0EEFE02E0FEFF02ECE0CDF1CC114F8
:10F97000D10499F685E0C05EDE4F088119812A81A5
:10F980003B81C052D140F80120935B008093570027
:10F99000E89507B600FCFDCF81E180935700E8951C
:10F9A00035C0C05EDE4F88819981AA81BB81C0527B
:10F9B000D140B695A795979587957C018601ABE0D8
:10F9C000AA2EB12CAC0EBD1E0BC0D5016D915D01F0
:10F9D000C7010F947FFE0894E11CF11C01501040F8
:10F9E0000115110591F7A60160E070E0440F551F65
:10F9F000661F771FC05EDE4FE880F9800A811B8199
:10FA0000C052D1404E0D5F1D601F711F1A82C05E33
:10FA1000DE4F488359836A837B83C052D1407FC0C5
:10FA2000FA80C55CDE4FF882CB53D140C65CDE4F16
:10FA30001882CA53D1408B81C82EDD24C65CDE4FAC
:10FA400008811981CA53D140C02AD12A1A828981DA
:10FA5000BE016D5F7F4F843121F59601C05EDE4FA0
:10FA6000E880F9800A811B81C052D1400BBFF701A9
:10FA700087919691DB018C9311969C936E5F7F4FDB
:10FA8000D801C7010296A11DB11DC05EDE4F88835B
:10FA90009983AA83BB83C052D14022503040F1F6F3
:10FAA00036C0C05EDE4F288139814A815B81C052F9
:10FAB000D1400894C108D108760100E010E0089414
:10FAC000C11CD11C0894E11CF11C011D111DE20E8A
:10FAD000F31E041F151F21BDBB27A52F942F832FB5
:10FAE00082BD2F5F3F4F4F4F5F4FF89A80B5DB01CC
:10FAF0008D93BD012E153F054007510761F7C05E8C
:10FB0000DE4F288339834A835B83C052D1409601FC
:10FB10002D5F3F4FFB01108204C080EC8A8322E0FE
:10FB200030E08BE18093C6008091C00086FFFCCF5F
:10FB30008091C00080648093C000C15DDE4FF88179
:10FB4000CF52D140F093C6008091C00086FFFCCF19
:10FB50008091C00080648093C000432F3093C60022
:10FB60008091C00086FFFCCF8091C00080648093AC
:10FB7000C000922F2093C6008091C00086FFFCCF6A
:10FB80008091C00080648093C0008EE08093C600A6
:10FB90008091C00086FFFCCF8091C000806480937C
:10FBA000C00065E1C15DDE4FE880CF52D1406E25D7
:10FBB00069276427FE01319610C090819093C6009A
:10FBC0008091C00086FFFCCF31968091C000806498
:10FBD0008093C0006927215030402115310569F715
:10FBE0006093C6008091C00086FFFCCF8091C0006A
:10FBF00080648093C00085B1805885B9772081F4F6
:10FC0000C15DDE4F0881CF52D1400F5FC15DDE4F35
:10FC10000883CF52D14090E0A0E0B0E00D941AF4F8
:10FC200027982F9880E090E020ED37E0F901319798
:10FC3000F1F7019684369105C9F700008091C00064
:10FC40008D7F8093C00081E180935700E895EE2777
:10FC5000FF270994FFCF90E00D941AF497FB092E2B
:10FC600007260AD077FD04D02ED006D000201AF443
:10FC7000709561957F4F0895F6F7909581959F4F08
:10FC80000895A1E21A2EAA1BBB1BFD010DC0AA1FDD
:10FC9000BB1FEE1FFF1FA217B307E407F50720F0F5
:10FCA000A21BB30BE40BF50B661F771F881F991F70
:10FCB0001A9469F760957095809590959B01AC01B9
:10FCC000BD01CF010895AA1BBB1B51E107C0AA1FAC
:10FCD000BB1FA617B70710F0A61BB70B881F991FED
:10FCE0005A95A9F780959095BC01CD010895F99991
:10FCF000FECF92BD81BDF89A992780B50895262F31
:10FD0000F999FECF1FBA92BD81BD20BD0FB6F89400
:0EFD1000FA9AF99A0FBE01960895F894FFCF63
:040000033000E000E9
:00000001FF