:100000000C94FE000C9426010C9426010C947B05A4
:100010000C947B050C947B050C9426010C94260112
:100020000C9426010C9426010C9426010C942601B4
:100030000C9426010C9426010C9423070C942601A1
:100040000C94D4030C9426010C942B020C940502FE
:100050000C9426010C9426010C9426010C94260184
:100060000C9426010C9426014E414E494E49545998
:10007000494E46CDCCCC3D0AD7233C17B7D1387773
:10008000CC2B329595E6241FB14F0A000020410089
:1000900000C84200401C4620BCBE4CCA1B0E5AAED3
:1000A000C59D7400407A10F35A00A0724E180900E2
:1000B00010A5D4E80000E87648170000E40B5402CD
:1000C0000000CA9A3B000000E1F505000080969808
:1000D00000000040420F000000A086010000001058
:1000E0002700000000E8030000000064000000009A
:1000F000000A00000000000100000000002C76D87B
:1001000088DC674F0823DFC1DFAE59E1B1B796E560
:10011000E3E453C63AE651997696E8E6C28426EBC4
:10012000898C9B62ED407C6FFCEFBC9C9F40F2BAD7
:10013000A56FA5F490055A2AF75C936B6CF9676D6F
:10014000C11BFCE0E40D47FEF520E6B500D0ED90C4
:100150002E0300943577050080841E080000204E91
:100160000A000000C80C333333330F986E1283112A
:1001700041EF8D2114893BE65516CFFEE6DB18D101
:10018000844B381BF77C1D901DA4BBE424203284D3
:10019000725E228100C9F124ECA1E53D2700000038
:1001A00000240027002A0000000000230026002968
:1001B0000000000000250028002B000404040404B3
:1001C0000404040202020202020303030303030104
:1001D00002040810204080010204081020010204DB
:1001E00008102000000008000201000003040700BE
:1001F0000000000000000000E210CC1011241FBE1F
:10020000CFEFD8E0DEBFCDBF24E0A0E1B2E001C077
:100210001D92A938B207E1F712E0A0E0B1E0E6E4F0
:10022000F7E302C005900D92A031B107D9F710E0B5
:10023000CDEFD0E004C02197FE010E945019CC3FC1
:10024000D107C9F70E94DD090C94961B0C9400009D
:10025000FC01538D448D252F30E0842F90E0821BCC
:10026000930B541710F0CF96089501970895FC0151
:10027000918D828D981761F0828DDF01A80FB11DDD
:100280005D968C91928D9F5F9F73928F90E0089501
:100290008FEF9FEF0895FC01918D828D981731F0BB
:1002A000828DE80FF11D858D90E008958FEF9FEF0F
:1002B0000895FC01918D228D892F90E0805C9F4FE5
:1002C000821B91098F73992708958FE592E00E9410
:1002D000590121E0892B09F420E0822F0895FC01C7
:1002E000848DDF01A80FB11DA35ABF4F2C91848DBF
:1002F00090E001968F739927848FA689B7892C93F4
:10030000A089B1898C9180648C93938D848D98138E
:1003100006C00288F389E02D80818F7D8083089557
:10032000EF92FF920F931F93CF93DF93EC0181E045
:10033000888F9B8D8C8D981305C0E889F989808101
:1003400085FD24C0F62E0B8D10E00F5F1F4F0F733D
:100350001127E02E8C8DE8120CC00FB607FCFACFE7
:10036000E889F989808185FFF5CFCE010E946F0170
:10037000F1CF8B8DFE01E80FF11DE35AFF4FF082A4
:100380000B8FEA89FB898081806207C0EE89FF8933
:100390006083E889F98980818064808381E090E0CE
:1003A000DF91CF911F910F91FF90EF900895CF9320
:1003B000DF93EC01888D8823C9F0EA89FB8980816D
:1003C00085FD05C0A889B9898C9186FD0FC00FB63F
:1003D00007FCF5CF808185FFF2CFA889B9898C9180
:1003E00085FFEDCFCE010E946F01E7CFDF91CF9166
:1003F000089580E090E0892B29F00E946501811129
:100400000C94000008950E944D1B1F920F920FB68E
:100410000F9211242F933F934F935F936F937F938A
:100420008F939F93AF93BF93EF93FF938FE592E0EA
:100430000E946F01FF91EF91BF91AF919F918F91BA
:100440007F916F915F914F913F912F910F900FBED0
:100450000F901F9018951F920F920FB60F921124B4
:100460002F938F939F93EF93FF93E0916F02F091FF
:1004700070028081E0917502F091760282FD12C0D7
:100480009081809178028F5F8F732091790282171B
:1004900051F0E0917802F0E0E15AFD4F958F8093A2
:1004A000780201C08081FF91EF919F918F912F91F0
:1004B0000F900FBE0F901F90189590E0FC01ED512A
:1004C000FE4F3491FC01E153FE4F2491FC01E554B1
:1004D000FE4FE491EE2309F43BC0332339F133306E
:1004E00091F038F43130A9F0323001F584B58F7DC8
:1004F00012C0373091F03830A1F03430B9F4809127
:1005000080008F7D03C0809180008F778093800072
:100510000DC084B58F7784BD09C08091B0008F77FE
:1005200003C08091B0008F7D8093B000F0E0EE0FAB
:10053000FF1FEF54FE4FA591B4918FB7F894EC9143
:10054000611103C020952E2301C02E2B2C938FBF49
:1005500008953FB7F89480915B0290915C02A0915E
:100560005D02B0915E0226B5A89B05C02F3F19F031
:100570000196A11DB11D3FBFBA2FA92F982F882723
:10058000820F911DA11DB11DBC01CD0142E0660F7E
:10059000771F881F991F4A95D1F70895209154021B
:1005A000309155022817390771F4909153028091C8
:1005B0005202981741F0E0915302F0E0EE5EFD4FD9
:1005C000808190E008958FEF9FEF089508951F9325
:1005D000CF93DF93DC015C962D913C915D972115C3
:1005E000310539F481E090E013969C938E93129735
:1005F0003DC05196ED91FC91529750969C91509729
:10060000892F80951FB75E964C915E9741FB7727A7
:1006100070F941FD6095F8944081772311F0492BE2
:1006200001C048234083E9012197F1F748E0508158
:1006300060FF02C0592B01C058235083E901219764
:10064000F1F76695415099F7772321F0908189233E
:10065000808303C08081982B90831FBF5C968D910F
:100660009C915D970197F1F721E030E0C901DF919E
:10067000CF911F910895209154023091550228176F
:10068000390771F4809152022091530290E0805C0E
:100690009F4F821B910960E470E00E94E718089563
:1006A00080E090E00895209154023091550228177F
:1006B0003907B9F49091530280915202981789F04A
:1006C000E0915302F0E0EE5EFD4F808120915302F5
:1006D00030E02F5F3F4F2F7333272093530290E07A
:1006E00008958FEF9FEF0895E0915402F091550225
:1006F000E817F90769F4A389B4899C9185898095E5
:1007000089238C93109255021092540281E008952F
:1007100080E00895089580E090E008958F929F9280
:10072000AF92BF92CF92DF92EF92FF926B017C016A
:100730000E94A9024B015C01C114D104E104F1043F
:10074000F1F00E94A902DC01CB0188199909AA09DC
:10075000BB09883E9340A105B10570F321E0C21AA0
:10076000D108E108F10888EE880E83E0981EA11CEC
:10077000B11CC114D104E104F10419F7DDCFFF90DD
:10078000EF90DF90CF90BF90AF909F908F900895A3
:100790002FB7F894609157027091580280915902D6
:1007A00090915A022FBF08951F920F920FB60F9289
:1007B00011242F933F938F939F93AF93BF93809177
:1007C000570290915802A0915902B0915A0230916B
:1007D000560223E0230F2D3720F40196A11DB11DF1
:1007E00005C026E8230F0296A11DB11D20935602D5
:1007F0008093570290935802A0935902B0935A02E3
:1008000080915B0290915C02A0915D02B0915E02CA
:100810000196A11DB11D80935B0290935C02A09391
:100820005D02B0935E02BF91AF919F918F913F9116
:100830002F910F900FBE0F901F901895CF93DF93BD
:10084000EC019A01AB011B8E1A8E198E188E1F8A2D
:100850001E8A60E079E08DE390E00E941D19F901A5
:100860002430310518F0C901039702C081E090E0FF
:100870009D8F8C8F6C85663108F069C0C901969593
:1008800087958431910510F0439702C081E090E094
:100890009F8B8E8B369718F0C901059702C081E0B7
:1008A00090E0998F888FC901880F991F280F391FF1
:1008B00036952795369527952D30310518F02C5013
:1008C000310902C021E030E03B8F2A8F909168000F
:1008D000683050F021E06E3008F420E081E001C083
:1008E000880F2A95EAF701C084E0892B809368007D
:1008F0009C85983038F09E3040F0963148F020E0EA
:1009000030E008C02DE630E005C02BE630E002C044
:100910002CE630E03C8B2B8B983030F481E001C02A
:10092000880F9A95EAF70EC0292F30E09E3018F410
:100930002850310902C02E50310981E001C0880FD2
:100940002A95EAF78D8B8C8D9D8D0197F1F78A8D15
:100950009B8D892BE1F080915402909155028C1768
:100960009D07A9F0009711F00E9474038E8D8E7F71
:100970008E8F1092520210925302D0935502C09360
:100980005402EB89FC8990818D89892B8083DF91CA
:10099000CF910895AF92BF92CF92DF92FF920F93C3
:1009A0001F93CF93DF931F92CDB7DEB75C01F62E76
:1009B000FC011382128288EE93E0A0E0B0E0848311
:1009C0009583A683B7838AE091E091838083178A19
:1009D000168A118E108E138E128E158E148E668DC1
:1009E0006E7F20FB61F9668F6695617081E06827F4
:1009F000842F49830E945D02498150E0BA0161530E
:100A00007E4FFB01A49145545E4FFA0184918823E7
:100A1000A9F090E0880F991F9C0123563E4FF901E1
:100A2000059114918F549E4FFC01259134918FB7FD
:100A3000F894F8019081A92BA0838FBFFB016491EA
:100A4000F501608BFA014491E42FF0E0EE0FFF1FF7
:100A5000EF54FE4F85919491F501928B818B0F2D70
:100A600010E0C80181539E4F6C01FC018491055434
:100A70001E4FF80124912223C1F030E0220F331FD2
:100A8000F901E356FE4FA591B4912F543E4FF90161
:100A9000459154912FB7F8949C91809598239C93FD
:100AA000FA019081892380832FBFF501868D81FD16
:100AB00004C061E08F2D0E945D02F501F486F6010D
:100AC000C490F501C586F8010491E02FF0E0EE0F27
:100AD000FF1FE955FE4F85919491F5019787868711
:100AE0000F90DF91CF911F910F91FF90DF90CF90EA
:100AF000BF90AF9008951F920F920FB60F921124DE
:100B00002F933F934F935F936F937F938F939F9315
:100B1000AF93BF93EF93FF93E0915402F09155028E
:100B2000309709F451C0968DA685B785858591FFCC
:100B300004C09C91892329F447C09C91892309F022
:100B400043C0A389B4899C918589809589238C931E
:100B5000868997890197F1F7608D718DA685B78594
:100B6000558538E020E0CB010197F1F7822F90E026
:100B700095958795282F4C91452309F02068315091
:100B800091F7868D81FD20958091520290E001962B
:100B90008F73992730915302381749F0A091520270
:100BA000B0E0AE5EBD4F2C938093520203C0868DA1
:100BB0008160868F828D938D0197F1F7A389B48927
:100BC0009C918589892B8C93FF91EF91BF91AF9177
:100BD0009F918F917F916F915F914F913F912F9155
:100BE0000F900FBE0F901F901895EF92FF920F93EA
:100BF0001F93CF93DF93CDB7DEB768970FB6F89406
:100C0000DEBF0FBECDBF1A8219821C821B821E82DC
:100C10001D8240E050E068EC71E0CE0101960E9438
:100C20001A0880913E03882309F474C040911F0381
:100C300050912003609121037091220324E0CE01A2
:100C400043960E94520840911B0350911C036091EF
:100C50001D0370911E0324E0CE0107960E945208E6
:100C60001E861D86188A1F861A8A198ABE01695F28
:100C70007F4FCE010D960E943B0809891A890F5FAC
:100C80001F4FB801CE010D960E94E107882309F499
:100C9000D5C02D853E8589899A8969EC71E0820FDE
:100CA000931F0E94661B1A8B098B8F89988DEB8886
:100CB000FC8809891A89E114F10409F4BAC0009783
:100CC000A9F0080F191FB801CE010D960E94E10787
:100CD000882309F4AEC02D853E8589899A89B7019C
:100CE000820F931F0E94661B1A8B098BBE01635FE4
:100CF0007F4FCE0101960E943B088D859E850E9404
:100D0000EB198F8198850E94EB198B899C890E9431
:100D1000EB1908C041E150E06BEC71E0CE010196A7
:100D20000E941A0818861F821A8619861C861B863E
:100D3000BE016F5F7F4FCE0107960E943B086DEDAD
:100D400071E081E793E00E94970864E670E080E03C
:100D500090E00E948E0368EE71E081E793E00E94CC
:100D6000970864E670E080E090E00E948E0366EFF2
:100D700071E081E793E00E94970864E670E080E00C
:100D800090E00E948E0364EF71E081E793E00E949F
:100D9000C90964E670E080E090E00E948E034B8514
:100DA0005C856F81788581E793E00E944B0766EC54
:100DB00071E081E793E00E94970864E670E080E0CC
:100DC00090E00E948E036AE181E793E00E94900820
:100DD00066EC71E081E793E00E94970864E670E0BA
:100DE00080E090E00E948E0366EC71E081E793E082
:100DF0000E9497088F8198850E94EB190E94C80372
:100E00006093FF02709300038093010390930203A9
:100E100089819A810E94EB1968960FB6F894DEBF1B
:100E20000FBECDBFDF91CF911F910F91FF90EF903B
:100E30000895CE010D960E94080858CFCE010D9658
:100E40000E94080832CF1F920F920FB60F92112402
:100E50002F933F934F935F936F937F938F939F93C2
:100E6000AF93BF93EF93FF9380914D03811102C025
:100E70000E947607FF91EF91BF91AF919F918F9163
:100E80007F916F915F914F913F912F910F900FBE86
:100E90000F901F901895CF92DF92EF92FF920F93D1
:100EA0001F93CF93DF936C017A018B01C0E0D0E0F8
:100EB000CE15DF0589F0D8016D918D01D601ED9138
:100EC000FC910190F081E02DC6010995892B11F468
:100ED0007E0102C02196ECCFC701DF91CF911F9117
:100EE0000F91FF90EF90DF90CF90089580914E0387
:100EF00090914F03009781F0DC01ED91FC9100840B
:100F0000F185E02D0995892B11F480E008958091F9
:100F10004E0390914F0311C0809150039091510363
:100F2000DC01ED91FC910084F185E02D0995892B80
:100F300061F38091500390915103DC01ED91FC919C
:100F40000284F385E02D09958A3031F520918004E3
:100F50003091810490918204F901E90FF11D108212
:100F6000B4E028303B0739F440E953E05093810462
:100F70004093800408C028E034E03093810420933B
:100F8000800420E933E03093FD022093FC021092AC
:100F9000820491E09093FE02E0918004F09181043C
:100FA0009091820421E0290F20938204E90FF11D22
:100FB000808390918204983718F097E79093820489
:100FC00008950F931F93CF93DF93EC01888199814C
:100FD000009729F02A813B812617370788F48B0177
:100FE0006F5F7F4F0E94831A009761F09983888317
:100FF0001B830A832C813D81232B11F4FC01108279
:1010000081E001C080E0DF91CF911F910F910895A1
:10101000CF93DF93EC0188819981009711F00E94B2
:10102000EB19198218821D821C821B821A82DF91A1
:10103000CF910895EF92FF920F931F93CF93DF9379
:10104000EC017B018A01BA010E94E107811104C011
:10105000CE010E94080807C01D830C83B701888158
:1010600099810E94661BCE01DF91CF911F910F9154
:10107000FF90EF900895CF93DF93EC01FB0186176B
:10108000970761F0608171816115710529F04481D4
:1010900055810E941A0802C00E940808CE01DF9103
:1010A000CF910895EF92FF920F931F93CF93DF9309
:1010B000CDB7DEB7A1970FB6F894DEBF0FBECDBF98
:1010C0007C01CB01BA01F7011182108213821282D6
:1010D0001582148242E0420F8E010F5F1F4F0E9463
:1010E0007411009769F0FC0101900020E9F7319735
:1010F000AF01481B590BBC01C7010E941A0803C06D
:10110000C7010E940808A1960FB6F894DEBF0FBE73
:10111000CDBFDF91CF911F910F91FF90EF90089578
:10112000DC01ED91FC910190F081E02D09946115B5
:10113000710579F0FB0101900020E9F73197AF01CB
:10114000461B570BDC01ED91FC910280F381E02DF1
:10115000099480E090E008958F929F92AF92BF92A1
:101160000F931F93CF93DF93CDB7DEB7A1970FB641
:10117000F894DEBF0FBECDBF19A2423008F44AE09A
:101180008E010F5D1F4F842E912CA12CB12CA50137
:1011900094010E94FB18E62FB901CA010150110900
:1011A000EA3014F4E05D01C0E95CD801EC93232B34
:1011B000242B252B61F7B8018FE592E00E94970858
:1011C000A1960FB6F894DEBF0FBECDBFDF91CF91D1
:1011D0001F910F91BF90AF909F908F9008954F9265
:1011E0005F926F927F928F929F92AF92BF92CF92B7
:1011F000DF92EF92FF926B017C01B42E9B01AC0158
:101200000E94D218882319F063E072E027C02601FB
:101210003701E89477F82FEF3FEF4FE75FE7C3011F
:10122000B2010E94D21881110DC02FEF3FEF4FE79E
:101230005FE7C301B2010E94DE1518161CF467E0D7
:1012400072E00CC02FEF3FEF4FE75FE4C701B6013C
:101250000E94CD18181694F46BE072E08FE592E0CE
:10126000FF90EF90DF90CF90BF90AF909F908F90C6
:101270007F906F905F904F900C9497082FEF3FEF07
:101280004FE75FECC701B6010E94DE1587FDE4CF92
:1012900020E030E0A901C701B6010E94DE1587FFFA
:1012A0000BC06DE28FE592E00E9490084C01F7FAC6
:1012B000F094F7F8F09402C0812C912CA12C60E0FE
:1012C00070E080E09FE3AB1441F020E030E040E2CA
:1012D00051E40E94C317A394F6CF9B01AC01C70150
:1012E000B6010E9457172B013C010E943C186B016C
:1012F0007C010E94E3159B01AC01C301B2010E9475
:1013000056172B013C014AE0C701B6010E94AC0808
:101310007C01E80CF91CBB2039F06EE28FE592E00D
:101320000E949008E80EF91EDB2CDD2021F120E060
:1013300030E040E251E4C301B2010E9444162B01A7
:101340003C010E943C184B01A12CB12C4AE0C50184
:10135000B4010E94AC08E80EF91EC501B4010E9458
:10136000E3159B01AC01C301B2010E9456172B018A
:101370003C01DA94DACFC701FF90EF90DF90CF9075
:10138000BF90AF909F908F907F906F905F904F90A5
:1013900008950F931F93CF93DF93EC010E9497085A
:1013A0008C0166EC71E0CE010E949708800F911FBE
:1013B000DF91CF911F910F910895CF93DF93CDB718
:1013C000DEB72A970FB6F894DEBF0FBECDBF789474
:1013D00084B5826084BD84B5816084BD85B582603A
:1013E00085BD85B5816085BD80916E0081608093EB
:1013F0006E00109281008091810082608093810054
:101400008091810081608093810080918000816063
:10141000809380008091B10084608093B1008091BE
:10142000B00081608093B00080917A0084608093E6
:101430007A0080917A00826080937A0080917A00AD
:10144000816080937A0080917A00806880937A002E
:101450001092C10040E05BE460E070E081E793E05F
:101460000E941E04E0916F02F091700202E000837E
:10147000E0916B02F0916C021082E0916D02F091AC
:101480006E0287E6808310927702E0917302F091FA
:10149000740216E01083E0917102F0917202808173
:1014A00080618083E0917102F09172028081886096
:1014B0008083E0917102F091720280818068808364
:1014C000E0917102F091720280818F7D808364EFE0
:1014D00071E080E090E00E948E0368E471E08FE5A7
:1014E00092E00E94C90980914E0390914F030097AA
:1014F00039F040E855E260E070E00E941E0427C029
:10150000E0915003F0915103A089B1890C93A48517
:10151000B5851C92A685B7858FEC8C93108EA48917
:10152000B5891C93A289B3898C9180618C93A2891F
:10153000B3898C9188608C93A289B3898C918068DF
:101540008C930288F389E02D80818F7D80836AE00F
:1015500070E080E090E00E948E0380914E039091B5
:101560004F0369E571E0009721F480915003909159
:1015700051030E94C90980914E0390914F036BE87B
:1015800071E0009721F480915003909151030E94E3
:10159000C9098FEA87BD80916E00826080936E00DA
:1015A00081E08093100268EE73E080E090E00E949A
:1015B0008E036CE971E082E593E00E94C90968EA54
:1015C00071E08FE592E00E94C9090E94F50584E66A
:1015D000C82ED12CE12CF12C94E6392E80911002EA
:1015E000811106C080914D03811102C00E947607CF
:1015F0002090FE0221101BC08090FF0290900003FB
:10160000A0900103B09002030E94C80368157905F9
:101610008A059B0508F040C50E94C8036093FF023D
:1016200070930003809301039093020335C51092D9
:10163000FE020091FC021091FD02F80101900020D1
:10164000E9F731979F01201B310BA9014450510943
:10165000F801E40FF51F80818A32E1F5200F311F78
:10166000F90133978081803354F08A3314F4805326
:1016700007C09FEB980F963010F4875301C080E0AD
:1016800060E1869FC0011124F90132972081203347
:1016900054F02A3314F4205307C03FEB320F363096
:1016A00010F4275301C020E0820F911D62E0262F25
:1016B00030E02417350758F4F801E20FF31F2081BA
:1016C000022E000C330B822793276F5FF0CF892BFC
:1016D00009F05FC568EB71E0C8010E947C1B892B93
:1016E00009F46AC26CE270E0C8010E945B1B8C01C5
:1016F0000F5F1F4FC8010E9494114B015C010E94B3
:101700003C182B013C0120E137E240E050E00E9410
:10171000FB1820930303A70196010E94FB18209356
:101720000403C301B201A70196010E94FB18609354
:10173000050320E030E040E85FE3C501B4010E940A
:10174000761820E030E04AE754E40E9444160E94F4
:101750003C1870930A03609309036CE270E0C801BF
:101760000E945B1B5C018C010F5F1F4FFC0181819C
:101770008C3209F4A8C042E050E0B801CE010196D5
:101780000E946D1B1B82CE0101960E94B6119B0127
:10179000AC0160E876E988E990E00E94D7182B0157
:1017A0003C01B5016D5F7F4F42E050E0CE010196F4
:1017B0000E946D1B0B5F1F4F44E050E0B801CE014B
:1017C00003960E946D1B1F82CE0101960E94B611E6
:1017D0009B01AC01A2E3B0E00E94051723E030E0DA
:1017E00040E050E00E941D1949015A01D301C20195
:1017F000820F931FA41FB51F8093130390931403AC
:10180000A0931503B0931603C301B20120EA36E892
:1018100041E050E00E941D19CA01B9010E94E5157E
:101820002B013C01C501B4010E94E5152CE933E50B
:1018300049EC56E30E9444169B01AC01C301B2017E
:101840000E9457172B013C0160930B0370930C030C
:1018500080930D0390930E0320E030E048EC52E4B7
:101860000E94C3170E9435184B015C01389CB001DF
:10187000399C700D1124072E000C880B990B0E94C7
:10188000E5159B01AC01C301B2010E94561720E08F
:1018900030E040E752E40E94C3172B013C01B40141
:1018A000990C880B990B0E94E5159B01AC01C301B3
:1018B000B2010E94571760931B0370931C0380931F
:1018C0001D0390931E036CE270E0C8010E945B1B35
:1018D000FC019C012F5F3F4F81818C3201F18335E8
:1018E00089F480911B0390911C03A0911D03B0917A
:1018F0001E03B05880931B0390931C03A0931D03F9
:10190000B0931E0391819E3411F0933519F4909396
:101910003B0305C09C3209F03CC410923B036CE2CF
:1019200070E0C9010E945B1B5C018C010F5F1F4FBF
:10193000FC0181818C3209F4A8C043E050E0B80179
:10194000CE0101960E946D1B1C82CE0101960E9461
:10195000B6119B01AC0160E876E988E990E00E944D
:10196000D7182B013C01B5016C5F7F4F42E050E07E
:10197000CE0101960E946D1B0A5F1F4F44E050E0AC
:10198000B801CE0103960E946D1B1F82CE01019605
:101990000E94B6119B01AC01A2E3B0E00E940517C2
:1019A00023E030E040E050E00E941D1949015A0157
:1019B000D301C201820F931FA41FB51F8093170389
:1019C00090931803A0931903B0931A03C301B201B3
:1019D00020EA36E841E050E00E941D19CA01B90131
:1019E0000E94E5152B013C01C501B4010E94E515DB
:1019F0002CE933E549EC56E30E9444169B01AC0107
:101A0000C301B2010E9457172B013C0160930F03E1
:101A100070931003809311039093120320E030E041
:101A200048EC52E40E94C3170E9435184B015C0138
:101A3000389CB001399C700D1124072E000C880BC6
:101A4000990B0E94E5159B01AC01C301B2010E94F4
:101A5000561720E030E040E752E40E94C3172B0104
:101A60003C01B401990C880B990B0E94E5159B0170
:101A7000AC01C301B2010E94571760931F0370931A
:101A8000200380932103909322036CE270E0C8014D
:101A90000E945B1BFC019C012F5F3F4F81818C32B8
:101AA00001F1873589F480911F0390912003A09163
:101AB0002103B0912203B05880931F039093200319
:101AC000A0932103B09322039181973511F09534AF
:101AD00019F490933C0305C09C3209F05AC310924C
:101AE0003C036CE270E0C9010E945B1B8C010F5F3C
:101AF0001F4FFC0181818C3229F0C8010E9498118E
:101B000080933F036CE270E0C8010E945B1B8C0174
:101B10000F5F1F4FFC0181818C3229F0C8010E94A8
:101B20009811809340036CE270E0C8010E945B1B37
:101B30008C010F5F1F4FFC0181818C3259F0C8016D
:101B40000E94941160933703709338038093390394
:101B500090933A036CE270E0C8010E945B1B8C0119
:101B60000F5F1F4FFC0181818C3259F0C8010E9428
:101B70009411609327037093280380932903909313
:101B80002A036CE270E0C8010E945B1B6CE270E00B
:101B900001960E945B1BFC0121812C3209F479C261
:101BA00001960E9494116093230370932403809301
:101BB0002503909326036DC26FEB71E0C8010E946C
:101BC0007C1B892B09F4E5C26CE270E0C8010E941D
:101BD0005B1B8C010F5F1F4FC8010E9494114B01CA
:101BE0005C010E943C182B013C0120E137E240E0FF
:101BF00050E00E94FB1820930303A70196010E9466
:101C0000FB1820930403C301B201A70196010E94AF
:101C1000FB186093050320E030E040E85FE3C50176
:101C2000B4010E94761820E030E04AE754E40E94B4
:101C300044160E943C1870930A03609309036CE2F7
:101C400070E0C8010E945B1BFC012181213421F45A
:101C5000F1E0F0933E0305C0263509F09AC21092D8
:101C60003E036CE270E001960E945B1B5C018C01FC
:101C70000F5F1F4FFC0181818C3209F4A8C042E044
:101C800050E0B801CE0101960E946D1B1B82CE016F
:101C900001960E94B6119B01AC0160E876E988E9E3
:101CA00090E00E94D7182B013C01B5016D5F7F4F7A
:101CB00042E050E0CE0101960E946D1B0B5F1F4F6A
:101CC00044E050E0B801CE0103960E946D1B1F82D4
:101CD000CE0101960E94B6119B01AC01A2E3B0E0D7
:101CE0000E94051723E030E040E050E00E941D19FB
:101CF00049015A01D301C201820F931FA41FB51FCE
:101D00008093130390931403A0931503B0931603C9
:101D1000C301B20120EA36E841E050E00E941D19FB
:101D2000CA01B9010E94E5152B013C01C501B401AE
:101D30000E94E5152CE933E549EC56E30E94441670
:101D40009B01AC01C301B2010E9457172B013C015A
:101D500060930B0370930C0380930D0390930E0319
:101D600020E030E048EC52E40E94C3170E9435188E
:101D70004B015C01389CB001399C700D1124072E79
:101D8000000C880B990B0E94E5159B01AC01C30167
:101D9000B2010E94561720E030E040E752E40E9472
:101DA000C3172B013C01B401990C880B990B0E94BD
:101DB000E5159B01AC01C301B2010E945717609366
:101DC0001B0370931C0380931D0390931E036CE20E
:101DD00070E0C8010E945B1BFC019C012F5F3F4F1C
:101DE00081818C3201F1833589F480911B039091BC
:101DF0001C03A0911D03B0911E03B05880931B03D8
:101E000090931C03A0931D03B0931E0391819E34F5
:101E100011F0933519F490933B0305C09C3209F0FF
:101E2000B8C110923B036CE270E0C9010E945B1BD9
:101E30005C018C010F5F1F4FFC0181818C3209F422
:101E4000A8C043E050E0B801CE0101960E946D1B8E
:101E50001C82CE0101960E94B6119B01AC0160E884
:101E600076E988E990E00E94D7182B013C01B50182
:101E70006C5F7F4F42E050E0CE0101960E946D1BE7
:101E80000A5F1F4F44E050E0B801CE0103960E9464
:101E90006D1B1F82CE0101960E94B6119B01AC0101
:101EA000A2E3B0E00E94051723E030E040E050E0FC
:101EB0000E941D1949015A01D301C201820F931FCB
:101EC000A41FB51F8093170390931803A0931903C1
:101ED000B0931A03C301B20120EA36E841E050E0B2
:101EE0000E941D19CA01B9010E94E5152B013C0190
:101EF000C501B4010E94E5152CE933E549EC56E330
:101F00000E9444169B01AC01C301B2010E94571705
:101F10002B013C0160930F03709310038093110316
:101F20009093120320E030E048EC52E40E94C31783
:101F30000E9435184B015C01389CB001399C700D32
:101F40001124072E000C880B990B0E94E5159B01AC
:101F5000AC01C301B2010E94561720E030E040E717
:101F600052E40E94C3172B013C01B401990C880B69
:101F7000990B0E94E5159B01AC01C301B2010E94BF
:101F8000571760931F03709320038093210390934E
:101F900022036CE270E0C8010E945B1BFC019C0103
:101FA0002F5F3F4F81818C3201F1873589F4809119
:101FB0001F0390912003A0912103B0912203B058F8
:101FC00080931F0390932003A0932103B0932203D7
:101FD0009181973511F0953419F490933C0305C025
:101FE0009C3209F0D6C010923C036CE270E0C9014B
:101FF0000E945B1B8C010F5F1F4FFC0181818C32A3
:1020000059F0C8010E94941160932B0370932C0324
:1020100080932D0390932E036CE270E0C8010E9420
:102020005B1B8C010F5F1F4FFC0181818C3259F0CB
:10203000C8010E94941160932F0370933003809322
:102040003103909332036CE270E0C8010E945B1B85
:10205000FC0121812C32E9F001960E9494110E942A
:102060003C184B015C0120E137E240E050E00E9467
:10207000FB1820930803A70196010E94FB182093E8
:102080000703C501B401A70196010E94FB186093E4
:1020900006032110B1CA7DC00E94C8030091FF024F
:1020A000109100032091010330910203DC01CB0168
:1020B000801B910BA20BB30B89399A43A105B10583
:1020C00008F458C00E94C8034AE00E94AC0869E0C6
:1020D0008FE592E00E9490086091FF0270910003EA
:1020E00080910103909102034AE00E94AC0869E0EC
:1020F0008FE592E00E9490080E94C8030091FF02C1
:10210000109100032091010330910203601B710BB9
:10211000820B930B4AE00E94AC0869E08FE592E0E5
:102120000E94900860911B0370911C0380911D0315
:1021300090911E0342E00E94EF0869E08FE592E073
:102140000E94900860911F037091200380912103E9
:102150009091220342E00E94EF0866EC71E08FE567
:1021600092E00E94970869E08FE592E00E94900853
:102170000E94F50581E793E00E943B03892B49F01B
:1021800081E793E00E945303682F8FE592E00E945D
:1021900090010E94F90122CACF93DF93CAE0D1E0F7
:1021A000D0935303C093520382E593E00E947403DB
:1021B000D0937203C093710381E793E0DF91CF91D5
:1021C0000C947403EFE5F2E01382128288EE93E040
:1021D000A0E0B0E084839583A683B7838CE191E08F
:1021E0009183808385EC90E09587848784EC90E0F0
:1021F0009787868780EC90E0918B808B81EC90E0D4
:10220000938B828B82EC90E0958B848B86EC90E0B4
:10221000978B868B118E128E138E148E20E048E0E1
:1022200067E081E793E00E94CA0420E04BE06CE0A5
:1022300082E593E00E94CA04E3E0F3E010925103C8
:10224000109250031092FE0210924D0310928204DD
:1022500088E094E0909381048093800480E993E087
:102260009093FD028093FC021092400314AE1582FD
:102270001482138212821182108212AE11AE10AE3D
:1022800013AE1782168214AA15AA16AA17AA10AAA4
:1022900011AA12AA13AA14A615A616A617A610A666
:1022A00011A612A613A614A215A216A217A210A276
:1022B00011A212A213A214861586168617861086FE
:1022C00011861286138682E593E090934F038093E4
:1022D0004E030E94C8036093FF0270930003809333
:1022E0000103909302030895EF920F931F93CF93EE
:1022F000DF93E80147FD02C034E001C034E1E42F80
:10230000440FFF0BF7FF03C0F195E195F109E32EB0
:10231000022F2E2FAE010E94FA11CE01DF91CF9134
:102320001F910F91EF900895662777270C948813DB
:10233000FC0188279927E89421912032E9F329307C
:1023400010F02E30C8F32B3241F02D3239F468945E
:1023500004C00E94F211820F911D219120532A3056
:10236000C0F31EF4909581959F4F08951F93FC0133
:1023700099278827BC01E89411911032E9F31930AC
:1023800010F01E30C8F31B3251F01D3249F468942E
:1023900006C00E94DD11610F711D811D911D1191FB
:1023A00010531A30B0F33EF4909580957095619576
:1023B0007F4F8F4F9F4F1F910895592F482F372FD1
:1023C000262F660F771F881F991F660F771F881F9C
:1023D000991F620F731F841F951F660F771F881F39
:1023E000991F08957AE0979F902D879F802D910DDA
:1023F000112408954F925F926F927F929F92AF92B5
:10240000BF92CF92DF92EF92FF920F931F93CF93E1
:10241000DF93CDB7DEB729970FB6F894DEBF0FBEB6
:10242000CDBF6A01122FB02E2BE3201720F0FF241E
:10243000F394F00E02C0BCE3FB2E0F2D27E0AE019B
:102440004F5F5F4F0E94E514AC018981982F99700E
:10245000913031F0E1FC06C0E0FE06C090E205C01C
:102460009DE203C09BE201C090E0EE2DE07183FF8E
:102470003CC0911102C083E001C084E0811718F4D0
:10248000212F281B01C020E0E1110BC0F601822F93
:1024900030E2882319F031938150FBCFC20ED11C5A
:1024A00020E0992329F0D6019C93F60131966F0123
:1024B000C6010396E2FE0AC03EE4D6013C9341E425
:1024C00011964C93119712963C9306C03EE6F60186
:1024D000308341E641833283FC01322F40E23323D3
:1024E00009F442C041933150FACF82FF44C09111A8
:1024F00002C083E001C084E0811718F4212F281B5B
:1025000001C020E0E1110BC0F601822F30E28823E8
:1025100019F031938150FBCFC20ED11C20E09923DA
:1025200029F0D6019C93F60131966F01C6010396FE
:10253000E2FE0BC039E4D6013C933EE411963C9395
:10254000119736E412963C9307C039E6F6013083C2
:102550003EE6318336E63283FC01322F40E23323FC
:1025600019F041933150FBCFFC01E20FF11D1082B5
:102570008EEF9FEFB7C0F1E0911101C0F0E06F2F37
:1025800070E01416150624F49A012F5F3F4F02C025
:1025900021E030E0260F371FBB2029F06B2D70E0C3
:1025A0006F5F7F4F02C060E070E0260F371F612F22
:1025B00070E0261737071CF4121B212F01C020E002
:1025C0003E2D387159F4D601322F60E2332319F0D1
:1025D0006D933150FBCFC20ED11C20E0FF2331F0B0
:1025E000D6019C93B6016F5F7F4F6B01E1110BC069
:1025F000F601922F30E3992319F031939150FBCFDC
:10260000C20ED11C20E09F2D940F3A81782F70715B
:10261000A72E84FF03C0313309F49150191624F416
:10262000993018F098E001C091E0E42F852F57FF12
:1026300002C0E0E080E06E2F782FE0E0F0E0AEE254
:102640009A2E3A01691A71082A01461A570A0B2D67
:1026500010E01195019511096F3F8FEF780729F46C
:10266000D6019C92C60101966C014617570784F06B
:10267000661677066CF47F01E40CF51CA1E0B0E06F
:10268000AC0FBD1FEA0EFB1ED7011196BC9002C015
:1026900090E3B92E615071093196C60101967C0113
:1026A0006017710724F0D601BC926C01D5CF641776
:1026B000750741F4363320F4353321F4A11002C0FC
:1026C00081E3B82EF601B082F701822F90E28823D1
:1026D00019F091938150FBCFF701E20FF11D1082A9
:1026E00080E090E029960FB6F894DEBF0FBECDBF14
:1026F000DF91CF911F910F91FF90EF90DF90CF90DE
:10270000BF90AF909F907F906F905F904F90089593
:10271000A0E0B0E0EEE8F3E10C941417EC017B01CB
:102720006115710519F0DB018D939C938E010F5F8C
:102730001F4F7880872D90E00E94BD15892B11F0E6
:10274000E801F4CFBDE27B1205C00F5F1F4F798017
:10275000C1E008C0EBE27E1204C08E010E5F1F4F85
:102760007980C0E06801F1E0CF1AD10843E050E081
:1027700060E770E0C6010E94C615892BF1F468017C
:1027800022E0C20ED11C45E050E06BE670E0C601CD
:102790000E94C615892B21F4680187E0C80ED11C60
:1027A000E114F10419F0D701CD92DC92C111FFC000
:1027B00060E070E080E89FE703C143E050E068E636
:1027C00070E0C6010E94C615892B51F4E114F10492
:1027D00009F4F2C00E5F1F4FF70111830083ECC0B4
:1027E000680160E070E0CB0100E010E0F601D0EDA0
:1027F000D70DDA3058F52C2F2260622E2C2F28703E
:10280000C2FF05C0211128C00F5F1F4F25C0222322
:1028100011F001501109A5E0B0E09B01AC010E944C
:1028200005174B015C01880C991CAA1CBB1CC50137
:10283000B4016D0F711D811D911D6839A9E97A07D9
:102840008A07A9E19A0740F0C66005C0DE3F51F44F
:10285000C3FD44C0C8606C2EBFEFCB1ADB0A70808A
:10286000C62DC4CF2D2F2F7D2531C1F540814D328E
:1028700011F4C06106C04B3221F0319621E030E006
:1028800006C03296D60111964C9122E030E0A0EDC0
:10289000A40FAA3018F0E21BF30B20C040E050E078
:1028A0004038BCE05B075CF49A01220F331F220F13
:1028B000331F420F531F440F551F4A0F511D3196AE
:1028C000DF0111972C91A0EDA20FAA3048F3C4FFAD
:1028D00003C0519541955109040F151FC1FF07C051
:1028E000E114F10421F03197D701ED93FC930E949C
:1028F000E315C370C33019F06B017C0106C06B0196
:102900007C01F7FAF094F7F8F09420E030E0A901A8
:10291000C701B6010E94DE15882309F445C017FFE0
:1029200006C0119501951109C7E8D0E002C0CFE9B2
:10293000D0E05E01B8E1AB1AB1084601BE2DAF2D63
:1029400090E2E92EF12C0E151F0584F0FE01259171
:10295000359145915491B4018B2F9A2F0E944416C2
:102960004B01B82FA92F0E191F09EDCF2497F5940D
:10297000E794CA15DB0539F76401EB2EFA2E8E2D8C
:10298000880F8F2D881F8F3F49F020E030E0A9018C
:10299000C701B6010E94DE15811106C082E290E0F7
:1029A0009093840480938304C701B60109C060E05A
:1029B00070E080E89FEF04C060E070E080EC9FE78B
:1029C000CDB7DEB7EEE00C943017283008F027E0E2
:1029D0003327DA01990F311D87FD9160009661055B
:1029E000710539F432602E5F3D9330E32A95E1F7AB
:1029F00008959F3F30F080387105610509F03C5F14
:102A00003C5F3D93913008F08068911DDF93CF9338
:102A10001F930F93FF92EF92192F987F9695E92FAE
:102A200096959695E90FFF27E350FF4F9927332797
:102A3000EE24FF24A701E70105900894079428F4E9
:102A4000360FE71EF81E491F511D660F771F881F9E
:102A5000991F0694A1F70590079428F4E70EF81E35
:102A6000491F561FC11D770F881F991F661F0694A7
:102A7000A1F70590079428F4F80E491F561FC71FA9
:102A8000D11D880F991F661F771F0694A1F7059027
:102A9000079420F4490F561FC71FD81F990F661FB0
:102AA000771F881F0694A9F784911095177041F03D
:102AB000D695C79557954795F794E7941A95C1F71A
:102AC000E3EAF0E068941590159135916591959140
:102AD00005907FE27395E118F10A430B560BC90B81
:102AE000D009C0F7E10CF11E431F561FC91FD01DAE
:102AF0007EF4703311F48A95E6CFE894015030F0FB
:102B0000080F0AF40027021708F4202F2395022F3C
:102B10007A3328F079E37D932A95E9F710C07D9305
:102B20002A9589F606949795679537951795179482
:102B3000E118F10A430B560BC90BD00998F0239505
:102B40007E9173957A3308F070E37C932013B8F785
:102B50007E9170617D9330F0839571E37D9370E396
:102B60002A95E1F71124EF90FF900F911F91CF91DB
:102B7000DF91992787FD9095089591110C94B116D6
:102B8000803219F089508550C8F70895FB01DC01A7
:102B90004150504088F08D9181341CF08B350CF4FD
:102BA000805E659161341CF06B350CF4605E861BB1
:102BB000611171F3990B0895881BFCCF0E942016B8
:102BC00008F481E00895E89409C097FB3EF49095DD
:102BD0008095709561957F4F8F4F9F4F9923A9F0F6
:102BE000F92F96E9BB279395F69587957795679585
:102BF000B795F111F8CFFAF4BB0F11F460FF1BC0C9
:102C00006F5F7F4F8F4F9F4F16C0882311F096E95B
:102C100011C0772321F09EE8872F762F05C0662309
:102C200071F096E8862F70E060E02AF09A95660FC2
:102C3000771F881FDAF7880F9695879597F908957B
:102C4000990F0008550FAA0BE0E8FEEF16161706BD
:102C5000E807F907C0F012161306E407F50798F025
:102C6000621B730B840B950B39F40A2661F0232B3E
:102C7000242B252B21F408950A2609F4A140A695BA
:102C80008FEF811D811D08950E9457160C94CB165D
:102C90000E94BD1638F00E94C41620F0952311F052
:102CA0000C94B4160C94BA1611240C94FF160E94BE
:102CB000DC1670F3959FC1F3950F50E0551F629F8E
:102CC000F001729FBB27F00DB11D639FAA27F00D85
:102CD000B11DAA1F649F6627B00DA11D661F829FAC
:102CE0002227B00DA11D621F739FB00DA11D621F91
:102CF000839FA00D611D221F749F3327A00D611DAE
:102D0000231F849F600D211D822F762F6A2F11248F
:102D10009F5750409AF0F1F088234AF0EE0FFF1FC2
:102D2000BB1F661F771F881F91505040A9F79E3F19
:102D3000510580F00C94B4160C94FF165F3FE4F339
:102D4000983ED4F3869577956795B795F795E7956F
:102D50009F5FC1F7FE2B880F911D9695879597F978
:102D6000089599278827089597F99F6780E870E06C
:102D700060E008959FEF80EC089500240A941616F1
:102D8000170618060906089500240A941216130659
:102D9000140605060895092E0394000C11F48823E7
:102DA00052F0BB0F40F4BF2B11F460FF04C06F5F03
:102DB0007F4F8F4F9F4F089557FD9058440F551FD9
:102DC00059F05F3F71F04795880F97FB991F61F0AD
:102DD0009F3F79F087950895121613061406551F24
:102DE000F2CF4695F1DF08C0161617061806991F90
:102DF000F1CF86957105610508940895E894BB2785
:102E000066277727CB0197F908950E944717A59F5A
:102E1000900DB49F900DA49F800D911D11240895D5
:102E20002F923F924F925F926F927F928F929F92DA
:102E3000AF92BF92CF92DF92EF92FF920F931F93C8
:102E4000CF93DF93CDB7DEB7CA1BDB0B0FB6F89479
:102E5000DEBF0FBECDBF09942A88398848885F84B9
:102E60006E847D848C849B84AA84B984C884DF802A
:102E7000EE80FD800C811B81AA81B981CE0FD11D0E
:102E80000FB6F894DEBF0FBECDBFED010895A29F2F
:102E9000B001B39FC001A39F700D811D1124911D2E
:102EA000B29F700D811D1124911D08955058BB27AC
:102EB000AA270E946E170C94CB160E94BD1638F0FC
:102EC0000E94C41620F039F49F3F19F426F40C94A4
:102ED000BA160EF4E095E7FB0C94B416E92F0E94A5
:102EE000DC1658F3BA17620773078407950720F0BA
:102EF00079F4A6F50C94FE160EF4E0950B2EBA2F7D
:102F0000A02D0B01B90190010C01CA01A0011124EF
:102F1000FF27591B99F0593F50F4503E68F11A169B
:102F2000F040A22F232F342F4427585FF3CF46952C
:102F300037952795A795F0405395C9F77EF41F164E
:102F4000BA0B620B730B840BBAF09150A1F0FF0F18
:102F5000BB1F661F771F881FC2F70EC0BA0F621F04
:102F6000731F841F48F4879577956795B795F795F4
:102F70009E3F08F0B0CF9395880F08F09927EE0F89
:102F80009795879508950E94D7170C94CB160E94A9
:102F9000C41658F00E94BD1640F029F45F3F29F096
:102FA0000C94B41651110C94FF160C94BA160E948E
:102FB000DC1668F39923B1F3552391F3951B550B58
:102FC000BB27AA2762177307840738F09F5F5F4FFC
:102FD000220F331F441FAA1FA9F335D00E2E3AF03B
:102FE000E0E832D091505040E695001CCAF72BD053
:102FF000FE2F29D0660F771F881FBB1F26173707A4
:103000004807AB07B0E809F0BB0B802DBF01FF27D5
:1030100093585F4F3AF09E3F510578F00C94B416E8
:103020000C94FF165F3FE4F3983ED4F386957795B2
:103030006795B795F7959F5FC9F7880F911D96958E
:10304000879597F90895E1E0660F771F881FBB1FEA
:10305000621773078407BA0720F0621B730B840B97
:10306000BA0BEE1F88F7E09508950E943C1868940B
:10307000B1110C94FF1608950E94E41688F09F5732
:1030800098F0B92F9927B751B0F0E1F0660F771F8C
:10309000881F991F1AF0BA95C9F714C0B13091F082
:1030A0000E94FE16B1E008950C94FE16672F782F4B
:1030B0008827B85F39F0B93FCCF386957795679547
:1030C000B395D9F73EF490958095709561957F4FB3
:1030D0008F4F9F4F08950E94BD1620F019F00E9457
:1030E000C41650F40C94BA160C94FF16E92F0E94E3
:1030F000DC1688F35523B1F3E7FB621773078407E7
:103100009507A8F189F3E92FFF2788232AF0319743
:10311000660F771F881FDAF7952F5527442332F063
:1031200091505040220F331F441FD2F7BB27E91B99
:10313000F50B621B730B840BB109B1F222F4620F21
:10314000731F841FB11D31972AF0660F771F881FE8
:10315000BB1FEFCF9150504062F041F0882332F016
:10316000660F771F881F91505040C1F793950C94BC
:10317000BF188695779567959F5FD9F7F7CF9F3FE3
:1031800031F0915020F4879577956795B795880F22
:10319000911D9695879597F908950E94201608F439
:1031A0008FEF08950E942016880B990B0895DB017C
:1031B0008F939F930E940517BF91AF91A29F800D9F
:1031C000911DA39F900DB29F900D1124089597FB20
:1031D000072E16F4009407D077FD09D00E943C1901
:1031E00007FC05D03EF4909581959F4F089570950A
:1031F00061957F4F0895A1E21A2EAA1BBB1BFD010A
:103200000DC0AA1FBB1FEE1FFF1FA217B307E407C5
:10321000F50720F0A21BB30BE40BF50B661F771F1D
:10322000881F991F1A9469F76095709580959095FD
:103230009B01AC01BD01CF010895052E97FB1EF443
:1032400000940E94341957FD07D00E94FB1807FC18
:1032500003D04EF40C943419509540953095219537
:103260003F4F4F4F5F4F08959095809570956195B2
:103270007F4F8F4F9F4F0895AA1BBB1B51E107C083
:10328000AA1FBB1FA617B70710F0A61BB70B881FF6
:10329000991F5A95A9F780959095BC01CD01089585
:1032A000EE0FFF1F0590F491E02D0994CF93DF936B
:1032B0008230910510F482E090E0E0918704F09173
:1032C000880420E030E0C0E0D0E0309711F1408188
:1032D000518148175907C0F04817590761F4828196
:1032E0009381209719F09B838A832BC09093880445
:1032F0008093870426C02115310519F04217530722
:1033000018F49A01BE01DF01EF010280F381E02D84
:10331000DCCF2115310509F1281B390B243031058B
:1033200090F412968D919C9113976115710521F07F
:10333000FB019383828304C0909388048093870465
:10334000FD01329644C0FD01E20FF31F819391937A
:10335000225031092D933C933AC02091850430913D
:103360008604232B41F42091020130910301309314
:1033700086042093850420910001309101012115DC
:10338000310541F42DB73EB740910401509105013C
:10339000241B350BE0918504F0918604E217F307B6
:1033A000A0F42E1B3F0B2817390778F0AC014E5FB5
:1033B0005F4F2417350748F04E0F5F1F5093860468
:1033C000409385048193919302C0E0E0F0E0CF0147
:1033D000DF91CF9108950F931F93CF93DF930097C1
:1033E00009F48CC0FC013297138212820091870489
:1033F000109188040115110581F420813181820F1B
:10340000931F20918504309186042817390779F598
:10341000F0938604E093850471C0D80140E050E049
:10342000AE17BF0750F412962D913C911397AD0142
:103430002115310509F1D901F3CF9D01DA0133835B
:10344000228360817181860F971F8217930769F429
:10345000EC0128813981260F371F2E5F3F4F3183C2
:1034600020838A819B8193838283452B29F4F09367
:103470008804E093870442C01396FC93EE9312975E
:10348000ED01499159919E01240F351FE217F30771
:1034900071F480819181840F951F029611969C93FF
:1034A0008E938281938113969C938E931297E0E082
:1034B000F0E0D80112968D919C911397009719F026
:1034C000F8018C01F6CF8D919C9198012E5F3F4FB2
:1034D000820F931F209185043091860428173907A5
:1034E00069F4309729F4109288041092870402C07E
:1034F000138212821093860400938504DF91CF918A
:103500001F910F910895A0E0B0E0E9E8FAE10C9472
:103510001417EC01009721F4CB010E945619B8C092
:10352000FC01E60FF71F9C0122503109E217F30757
:1035300008F4ACC0D9010D911C911197061717071B
:10354000B0F00530110508F49FC0C8010497861734
:10355000970708F499C002501109061B170B019335
:1035600011936D937C93CF010E94EB198DC05B0189
:10357000A01AB10A4C01800E911EA0918704B0914F
:10358000880440E050E0E12CF12C109709F44AC087
:10359000A815B905D1F56D907C901197630182E073
:1035A000C80ED11CCA14DB0480F1A3014A195B09BF
:1035B0006A0182E0C80ED11C1296BC901297139635
:1035C000AC91B5E0CB16D10440F0B282A383518315
:1035D0004083D9016D937C930AC00E5F1F4FC301D6
:1035E000800F911FF90191838083EB2DFA2FE11455
:1035F000F10431F0D7011396FC93EE93129744C077
:10360000F0938804E09387043FC08D919C911197BB
:103610004817590708F4AC017D0112960D90BC9132
:10362000A02DB3CF809185049091860488159905CB
:10363000E1F446175707C8F4809100019091010109
:10364000009741F48DB79EB7409104015091050158
:10365000841B950BE817F907C8F4F0938604E093F0
:103660008504F901718360830FC0CB010E94561954
:103670007C01009759F0A801BE010E94521BCE01A7
:103680000E94EB19C70104C0CE0102C080E090E0A7
:10369000CDB7DEB7EEE00C94301781E090E0F894FF
:1036A0000C94961BFB01DC0102C001900D9241506D
:1036B0005040D8F70895FC018191861721F08823A6
:1036C000D9F7992708953197CF010895FB01DC01BF
:1036D00001900D920020E1F70895FB01DC014150BB
:1036E000504048F001900D920020C9F701C01D9292
:1036F00041505040E0F70895FB0151915523A9F046
:10370000BF01DC014D9145174111E1F759F4CD019D
:103710000190002049F04D9140154111C9F3FB0182
:103720004111EFCF81E090E00197089510E0CDEFD7
:10373000D0E004C0FE010E9450192196CE3FD1076F
:06374000C9F7F894FFCF69
:1037460000008904800000000000E7024B078B039D
:10375600E6023B035303CE020000000090014B0734
:103766002801D701590137014B010000000003026F
:103776004B078B038A0303020302030200000000C7
:1037860003024B078B038A034750525320494E4985
:103796005449414C495A45440024504D544B333109
:1037A600342C302C312C302C312C302C302C302C2D
:1037B600302C302C302C302C302C302C302C302C23
:1037C600302C302C302C302A32380024504D544BBB
:1037D6003232302C313030302A31460024504D54AC
:1037E6004B3630352A33310047505320494E495421
:1037F60049414C495A454400244750474741002413
:103806004750524D43000D0A002C0034332E3437F6
:1038160033312C202D38302E353430310041542BA5
:10382600434D47463D310D004154202B20434D4723
:1038360053203D2022002B3136343735323837328B
:103846003939006E616E00696E66006F766600003B
:00000001FF
